{"abi":[{"type":"constructor","inputs":[{"name":"_owner","type":"address","internalType":"address"},{"name":"_nodeFee","type":"uint256","internalType":"uint256"},{"name":"_protocolFee","type":"uint256","internalType":"uint256"}],"stateMutability":"nonpayable"},{"type":"receive","stateMutability":"payable"},{"type":"function","name":"NODE_FEE","inputs":[],"outputs":[{"name":"","type":"uint256","internalType":"uint256"}],"stateMutability":"view"},{"type":"function","name":"PROTOCOL_FEE","inputs":[],"outputs":[{"name":"","type":"uint256","internalType":"uint256"}],"stateMutability":"view"},{"type":"function","name":"changeOwner","inputs":[{"name":"newOwner","type":"address","internalType":"address"}],"outputs":[],"stateMutability":"nonpayable"},{"type":"function","name":"depositFees","inputs":[{"name":"nodeAddress","type":"address","internalType":"address"},{"name":"targetContract","type":"address","internalType":"address"},{"name":"targetOwner","type":"address","internalType":"address"}],"outputs":[],"stateMutability":"payable"},{"type":"function","name":"nodeFees","inputs":[{"name":"","type":"address","internalType":"address"}],"outputs":[{"name":"","type":"uint256","internalType":"uint256"}],"stateMutability":"view"},{"type":"function","name":"owner","inputs":[],"outputs":[{"name":"","type":"address","internalType":"address"}],"stateMutability":"view"},{"type":"function","name":"protocolFees","inputs":[],"outputs":[{"name":"","type":"uint256","internalType":"uint256"}],"stateMutability":"view"},{"type":"function","name":"updateNodeFee","inputs":[{"name":"_nodeFee","type":"uint256","internalType":"uint256"}],"outputs":[],"stateMutability":"nonpayable"},{"type":"function","name":"updateProtocolFee","inputs":[{"name":"_protocolFee","type":"uint256","internalType":"uint256"}],"outputs":[],"stateMutability":"nonpayable"},{"type":"function","name":"withdraw","inputs":[{"name":"recipient","type":"address","internalType":"address"},{"name":"value","type":"uint256","internalType":"uint256"}],"outputs":[],"stateMutability":"nonpayable"},{"type":"function","name":"withdrawNodeFee","inputs":[],"outputs":[],"stateMutability":"nonpayable"},{"type":"event","name":"FeeCollected","inputs":[{"name":"sender","type":"address","indexed":true,"internalType":"address"},{"name":"nodeAddress","type":"address","indexed":true,"internalType":"address"},{"name":"targetContract","type":"address","indexed":false,"internalType":"address"},{"name":"targetOwner","type":"address","indexed":false,"internalType":"address"},{"name":"nodeFee","type":"uint256","indexed":false,"internalType":"uint256"},{"name":"protocolFee","type":"uint256","indexed":false,"internalType":"uint256"}],"anonymous":false}],"bytecode":{"object":"0x608060405234801561001057600080fd5b5060405161099c38038061099c83398101604081905261002f91610139565b6001600160a01b03831661007a5760405162461bcd60e51b815260206004820152600d60248201526c34b73b30b634b21037bbb732b960991b60448201526064015b60405180910390fd5b600082116100bd5760405162461bcd60e51b815260206004820152601060248201526f496e76616c6964206e6f64652066656560801b6044820152606401610071565b6000811161010d5760405162461bcd60e51b815260206004820152601460248201527f496e76616c69642070726f746f636f6c206665650000000000000000000000006044820152606401610071565b600080546001600160a01b0319166001600160a01b03949094169390931790925560015560025561017c565b60008060006060848603121561014e57600080fd5b83516001600160a01b038116811461016557600080fd5b602085015160409095015190969495509392505050565b6108118061018b6000396000f3fe6080604052600436106100a05760003560e01c806342e820931161006457806342e82093146101405780634f3efede146101555780638da5cb5b14610182578063a6f9dae1146101ba578063a753130c146101da578063f3fef3a3146101f057600080fd5b80630b4501fd146100ac5780631ad8b03b146100d55780631cd5c1d9146100eb578063315cf0c6146101005780634256dd781461012057600080fd5b366100a757005b600080fd5b3480156100b857600080fd5b506100c260025481565b6040519081526020015b60405180910390f35b3480156100e157600080fd5b506100c260045481565b6100fe6100f936600461070c565b610210565b005b34801561010c57600080fd5b506100fe61011b36600461074f565b61031b565b34801561012c57600080fd5b506100fe61013b36600461074f565b61037a565b34801561014c57600080fd5b506100fe6103e4565b34801561016157600080fd5b506100c2610170366004610768565b60036020526000908152604090205481565b34801561018e57600080fd5b506000546101a2906001600160a01b031681565b6040516001600160a01b0390911681526020016100cc565b3480156101c657600080fd5b506100fe6101d5366004610768565b6104de565b3480156101e657600080fd5b506100c260015481565b3480156101fc57600080fd5b506100fe61020b36600461078a565b6105b0565b3460025460015461022191906107b4565b1461026c5760405162461bcd60e51b815260206004820152601660248201527524b73b30b634b2103332b2903232b837b9b4ba34b7b760511b60448201526064015b60405180910390fd5b6001546001600160a01b038416600090815260036020526040812080549091906102979084906107b4565b9091555050600254600480546000906102b19084906107b4565b9091555050600154600254604080516001600160a01b038681168252858116602083015291810193909352606083019190915284169033907f187e6e874ee22d14b5701be3f1921b016a1148ee6ca05962f30d9f4f456a67809060800160405180910390a3505050565b6000546001600160a01b031633146103755760405162461bcd60e51b815260206004820152601e60248201527f4f6e6c79206f776e65722063616e20757064617465206e6f64652066656500006044820152606401610263565b600155565b6000546001600160a01b031633146103df5760405162461bcd60e51b815260206004820152602260248201527f4f6e6c79206f776e65722063616e207570646174652070726f746f636f6c2066604482015261656560f01b6064820152608401610263565b600255565b33600090815260036020526040902054806104375760405162461bcd60e51b81526020600482015260136024820152724e6f206665657320746f20776974686472617760681b6044820152606401610263565b33600081815260036020526040808220829055519091906108fc90849084818181858888f193505050503d806000811461048d576040519150601f19603f3d011682016040523d82523d6000602084013e610492565b606091505b50509050806104da5760405162461bcd60e51b81526020600482015260146024820152732330b4b632b2103a379039b2b7321022ba3432b960611b6044820152606401610263565b5050565b6000546001600160a01b031633146105385760405162461bcd60e51b815260206004820152601b60248201527f4f6e6c79206f776e65722063616e206368616e6765206f776e657200000000006044820152606401610263565b6001600160a01b03811661058e5760405162461bcd60e51b815260206004820181905260248201527f4e6577206f776e65722063616e6e6f74206265207a65726f20616464726573736044820152606401610263565b600080546001600160a01b0319166001600160a01b0392909216919091179055565b6000546001600160a01b0316331461060a5760405162461bcd60e51b815260206004820152601760248201527f4f6e6c79206f776e65722063616e2077697468647261770000000000000000006044820152606401610263565b804710156106515760405162461bcd60e51b8152602060048201526014602482015273496e73756666696369656e742062616c616e636560601b6044820152606401610263565b6000826001600160a01b0316826108fc90604051600060405180830381858888f193505050503d80600081146106a3576040519150601f19603f3d011682016040523d82523d6000602084013e6106a8565b606091505b50509050806106eb5760405162461bcd60e51b815260206004820152600f60248201526e15da5d1a191c985dc819985a5b1959608a1b6044820152606401610263565b505050565b80356001600160a01b038116811461070757600080fd5b919050565b60008060006060848603121561072157600080fd5b61072a846106f0565b9250610738602085016106f0565b9150610746604085016106f0565b90509250925092565b60006020828403121561076157600080fd5b5035919050565b60006020828403121561077a57600080fd5b610783826106f0565b9392505050565b6000806040838503121561079d57600080fd5b6107a6836106f0565b946020939093013593505050565b808201808211156107d557634e487b7160e01b600052601160045260246000fd5b9291505056fea26469706673582212201fccb9bb78e02a626b687faa18af7acca6b567d119e3a005d2a416a3782ba28164736f6c63430008170033","linkReferences":{}},"methodIdentifiers":{"NODE_FEE()":"a753130c","PROTOCOL_FEE()":"0b4501fd","changeOwner(address)":"a6f9dae1","depositFees(address,address,address)":"1cd5c1d9","nodeFees(address)":"4f3efede","owner()":"8da5cb5b","protocolFees()":"1ad8b03b","updateNodeFee(uint256)":"315cf0c6","updateProtocolFee(uint256)":"4256dd78","withdraw(address,uint256)":"f3fef3a3","withdrawNodeFee()":"42e82093"},"id":45}