{"abi":[{"type":"constructor","inputs":[{"name":"_authKey","type":"address","internalType":"address"},{"name":"_recoveryKey","type":"address","internalType":"address"},{"name":"_owner","type":"address","internalType":"address"},{"name":"_delegatedAccountImpl","type":"address","internalType":"address"},{"name":"_usdcToken","type":"address","internalType":"address"},{"name":"_propertyAddress","type":"string","internalType":"string"}],"stateMutability":"nonpayable"},{"type":"function","name":"MAX_SINGLE_PURCHASE_PCT","inputs":[],"outputs":[{"name":"","type":"uint256","internalType":"uint256"}],"stateMutability":"view"},{"type":"function","name":"MIN_CONFIDENCE","inputs":[],"outputs":[{"name":"","type":"uint256","internalType":"uint256"}],"stateMutability":"view"},{"type":"function","name":"MIN_INVESTMENT","inputs":[],"outputs":[{"name":"","type":"uint256","internalType":"uint256"}],"stateMutability":"view"},{"type":"function","name":"allInvestments","inputs":[{"name":"","type":"uint256","internalType":"uint256"}],"outputs":[{"name":"investor","type":"address","internalType":"address"},{"name":"tokenAmount","type":"uint256","internalType":"uint256"},{"name":"usdcAmount","type":"uint256","internalType":"uint256"},{"name":"timestamp","type":"uint256","internalType":"uint256"},{"name":"ownershipPercentage","type":"uint256","internalType":"uint256"}],"stateMutability":"view"},{"type":"function","name":"allowance","inputs":[{"name":"owner","type":"address","internalType":"address"},{"name":"spender","type":"address","internalType":"address"}],"outputs":[{"name":"","type":"uint256","internalType":"uint256"}],"stateMutability":"view"},{"type":"function","name":"approve","inputs":[{"name":"spender","type":"address","internalType":"address"},{"name":"value","type":"uint256","internalType":"uint256"}],"outputs":[{"name":"","type":"bool","internalType":"bool"}],"stateMutability":"nonpayable"},{"type":"function","name":"balanceOf","inputs":[{"name":"account","type":"address","internalType":"address"}],"outputs":[{"name":"","type":"uint256","internalType":"uint256"}],"stateMutability":"view"},{"type":"function","name":"calculateExpectedReturn","inputs":[{"name":"investmentAmount","type":"uint256","internalType":"uint256"}],"outputs":[{"name":"","type":"uint256","internalType":"uint256"}],"stateMutability":"view"},{"type":"function","name":"decimals","inputs":[],"outputs":[{"name":"","type":"uint8","internalType":"uint8"}],"stateMutability":"pure"},{"type":"function","name":"delegatedAccountCodeHash","inputs":[],"outputs":[{"name":"","type":"bytes32","internalType":"bytes32"}],"stateMutability":"view"},{"type":"function","name":"emergencyResetNonce","inputs":[{"name":"user","type":"address","internalType":"address"},{"name":"newNonce","type":"uint256","internalType":"uint256"}],"outputs":[],"stateMutability":"nonpayable"},{"type":"function","name":"getAuthorizationHash","inputs":[{"name":"user","type":"address","internalType":"address"},{"name":"authData","type":"tuple","internalType":"struct TargetBase.AuthData","components":[{"name":"nonce","type":"uint256","internalType":"uint256"},{"name":"expiry","type":"uint256","internalType":"uint256"},{"name":"id","type":"bytes32","internalType":"bytes32"},{"name":"executions","type":"tuple[]","internalType":"struct TargetBase.Execution[]","components":[{"name":"id","type":"bytes32","internalType":"bytes32"},{"name":"request","type":"bytes","internalType":"bytes"},{"name":"response","type":"bytes","internalType":"bytes"}]},{"name":"result","type":"bytes","internalType":"bytes"},{"name":"sponsorExecutionFee","type":"bool","internalType":"bool"},{"name":"signature","type":"bytes","internalType":"bytes"}]},{"name":"selector","type":"bytes4","internalType":"bytes4"}],"outputs":[{"name":"","type":"bytes32","internalType":"bytes32"}],"stateMutability":"pure"},{"type":"function","name":"getAvailableTokens","inputs":[],"outputs":[{"name":"","type":"uint256","internalType":"uint256"}],"stateMutability":"view"},{"type":"function","name":"getCodeHash","inputs":[{"name":"account","type":"address","internalType":"address"}],"outputs":[{"name":"","type":"bytes32","internalType":"bytes32"}],"stateMutability":"view"},{"type":"function","name":"getInvestmentSummary","inputs":[{"name":"investor","type":"address","internalType":"address"}],"outputs":[{"name":"tokensOwned","type":"uint256","internalType":"uint256"},{"name":"investmentValue","type":"uint256","internalType":"uint256"},{"name":"ownershipPercentage","type":"uint256","internalType":"uint256"},{"name":"expectedAnnualReturn","type":"uint256","internalType":"uint256"}],"stateMutability":"view"},{"type":"function","name":"getInvestorRecord","inputs":[{"name":"investor","type":"address","internalType":"address"},{"name":"index","type":"uint256","internalType":"uint256"}],"outputs":[{"name":"","type":"tuple","internalType":"struct RealEstateInvestment.InvestmentRecord","components":[{"name":"investor","type":"address","internalType":"address"},{"name":"tokenAmount","type":"uint256","internalType":"uint256"},{"name":"usdcAmount","type":"uint256","internalType":"uint256"},{"name":"timestamp","type":"uint256","internalType":"uint256"},{"name":"ownershipPercentage","type":"uint256","internalType":"uint256"}]}],"stateMutability":"view"},{"type":"function","name":"getInvestorRecordCount","inputs":[{"name":"investor","type":"address","internalType":"address"}],"outputs":[{"name":"","type":"uint256","internalType":"uint256"}],"stateMutability":"view"},{"type":"function","name":"getNonce","inputs":[{"name":"user","type":"address","internalType":"address"}],"outputs":[{"name":"","type":"uint256","internalType":"uint256"}],"stateMutability":"view"},{"type":"function","name":"getOwnershipPercentage","inputs":[{"name":"investor","type":"address","internalType":"address"}],"outputs":[{"name":"","type":"uint256","internalType":"uint256"}],"stateMutability":"view"},{"type":"function","name":"getPropertyInfo","inputs":[],"outputs":[{"name":"","type":"tuple","internalType":"struct RealEstateInvestment.PropertyInfo","components":[{"name":"propertyAddress","type":"string","internalType":"string"},{"name":"totalValue","type":"uint256","internalType":"uint256"},{"name":"investmentGrade","type":"string","internalType":"string"},{"name":"expectedYield","type":"uint256","internalType":"uint256"},{"name":"confidence","type":"uint256","internalType":"uint256"},{"name":"totalTokenSupply","type":"uint256","internalType":"uint256"},{"name":"pricePerToken","type":"uint256","internalType":"uint256"},{"name":"isActive","type":"bool","internalType":"bool"},{"name":"createdAt","type":"uint256","internalType":"uint256"},{"name":"analysisTimestamp","type":"uint256","internalType":"uint256"}]}],"stateMutability":"view"},{"type":"function","name":"getTotalInvestmentCount","inputs":[],"outputs":[{"name":"","type":"uint256","internalType":"uint256"}],"stateMutability":"view"},{"type":"function","name":"hasInvested","inputs":[{"name":"","type":"address","internalType":"address"}],"outputs":[{"name":"","type":"bool","internalType":"bool"}],"stateMutability":"view"},{"type":"function","name":"investorRecords","inputs":[{"name":"","type":"address","internalType":"address"},{"name":"","type":"uint256","internalType":"uint256"}],"outputs":[{"name":"investor","type":"address","internalType":"address"},{"name":"tokenAmount","type":"uint256","internalType":"uint256"},{"name":"usdcAmount","type":"uint256","internalType":"uint256"},{"name":"timestamp","type":"uint256","internalType":"uint256"},{"name":"ownershipPercentage","type":"uint256","internalType":"uint256"}],"stateMutability":"view"},{"type":"function","name":"isAuthorizationUsed","inputs":[{"name":"authHash","type":"bytes32","internalType":"bytes32"}],"outputs":[{"name":"","type":"bool","internalType":"bool"}],"stateMutability":"view"},{"type":"function","name":"isDelegatedAccount","inputs":[{"name":"account","type":"address","internalType":"address"}],"outputs":[{"name":"","type":"bool","internalType":"bool"}],"stateMutability":"view"},{"type":"function","name":"isDelegatedAccountSet","inputs":[],"outputs":[{"name":"","type":"bool","internalType":"bool"}],"stateMutability":"view"},{"type":"function","name":"isInvestmentAvailable","inputs":[],"outputs":[{"name":"","type":"bool","internalType":"bool"}],"stateMutability":"view"},{"type":"function","name":"masterKey","inputs":[],"outputs":[{"name":"","type":"address","internalType":"address"}],"stateMutability":"view"},{"type":"function","name":"name","inputs":[],"outputs":[{"name":"","type":"string","internalType":"string"}],"stateMutability":"view"},{"type":"function","name":"nonces","inputs":[{"name":"","type":"address","internalType":"address"}],"outputs":[{"name":"","type":"uint256","internalType":"uint256"}],"stateMutability":"view"},{"type":"function","name":"owner","inputs":[],"outputs":[{"name":"","type":"address","internalType":"address"}],"stateMutability":"view"},{"type":"function","name":"pauseInvestments","inputs":[],"outputs":[],"stateMutability":"nonpayable"},{"type":"function","name":"property","inputs":[],"outputs":[{"name":"propertyAddress","type":"string","internalType":"string"},{"name":"totalValue","type":"uint256","internalType":"uint256"},{"name":"investmentGrade","type":"string","internalType":"string"},{"name":"expectedYield","type":"uint256","internalType":"uint256"},{"name":"confidence","type":"uint256","internalType":"uint256"},{"name":"totalTokenSupply","type":"uint256","internalType":"uint256"},{"name":"pricePerToken","type":"uint256","internalType":"uint256"},{"name":"isActive","type":"bool","internalType":"bool"},{"name":"createdAt","type":"uint256","internalType":"uint256"},{"name":"analysisTimestamp","type":"uint256","internalType":"uint256"}],"stateMutability":"view"},{"type":"function","name":"purchaseTokens","inputs":[{"name":"authData","type":"tuple","internalType":"struct TargetBase.AuthData","components":[{"name":"nonce","type":"uint256","internalType":"uint256"},{"name":"expiry","type":"uint256","internalType":"uint256"},{"name":"id","type":"bytes32","internalType":"bytes32"},{"name":"executions","type":"tuple[]","internalType":"struct TargetBase.Execution[]","components":[{"name":"id","type":"bytes32","internalType":"bytes32"},{"name":"request","type":"bytes","internalType":"bytes"},{"name":"response","type":"bytes","internalType":"bytes"}]},{"name":"result","type":"bytes","internalType":"bytes"},{"name":"sponsorExecutionFee","type":"bool","internalType":"bool"},{"name":"signature","type":"bytes","internalType":"bytes"}]},{"name":"usdcAmount","type":"uint256","internalType":"uint256"}],"outputs":[],"stateMutability":"nonpayable"},{"type":"function","name":"recoveryKey","inputs":[],"outputs":[{"name":"","type":"address","internalType":"address"}],"stateMutability":"view"},{"type":"function","name":"renounceOwnership","inputs":[],"outputs":[],"stateMutability":"nonpayable"},{"type":"function","name":"resumeInvestments","inputs":[],"outputs":[],"stateMutability":"nonpayable"},{"type":"function","name":"setDelegatedAccountImplementation","inputs":[{"name":"implementation","type":"address","internalType":"address"}],"outputs":[],"stateMutability":"nonpayable"},{"type":"function","name":"submitPropertyAnalysis","inputs":[{"name":"authData","type":"tuple","internalType":"struct TargetBase.AuthData","components":[{"name":"nonce","type":"uint256","internalType":"uint256"},{"name":"expiry","type":"uint256","internalType":"uint256"},{"name":"id","type":"bytes32","internalType":"bytes32"},{"name":"executions","type":"tuple[]","internalType":"struct TargetBase.Execution[]","components":[{"name":"id","type":"bytes32","internalType":"bytes32"},{"name":"request","type":"bytes","internalType":"bytes"},{"name":"response","type":"bytes","internalType":"bytes"}]},{"name":"result","type":"bytes","internalType":"bytes"},{"name":"sponsorExecutionFee","type":"bool","internalType":"bool"},{"name":"signature","type":"bytes","internalType":"bytes"}]}],"outputs":[],"stateMutability":"nonpayable"},{"type":"function","name":"symbol","inputs":[],"outputs":[{"name":"","type":"string","internalType":"string"}],"stateMutability":"view"},{"type":"function","name":"totalInvestors","inputs":[],"outputs":[{"name":"","type":"uint256","internalType":"uint256"}],"stateMutability":"view"},{"type":"function","name":"totalSupply","inputs":[],"outputs":[{"name":"","type":"uint256","internalType":"uint256"}],"stateMutability":"view"},{"type":"function","name":"transfer","inputs":[{"name":"to","type":"address","internalType":"address"},{"name":"value","type":"uint256","internalType":"uint256"}],"outputs":[{"name":"","type":"bool","internalType":"bool"}],"stateMutability":"nonpayable"},{"type":"function","name":"transferFrom","inputs":[{"name":"from","type":"address","internalType":"address"},{"name":"to","type":"address","internalType":"address"},{"name":"value","type":"uint256","internalType":"uint256"}],"outputs":[{"name":"","type":"bool","internalType":"bool"}],"stateMutability":"nonpayable"},{"type":"function","name":"transferOwnership","inputs":[{"name":"newOwner","type":"address","internalType":"address"}],"outputs":[],"stateMutability":"nonpayable"},{"type":"function","name":"updateMasterKey","inputs":[{"name":"newMasterKey","type":"address","internalType":"address"}],"outputs":[],"stateMutability":"nonpayable"},{"type":"function","name":"updateRecoveryKey","inputs":[{"name":"newRecoveryKey","type":"address","internalType":"address"}],"outputs":[],"stateMutability":"nonpayable"},{"type":"function","name":"usdc","inputs":[],"outputs":[{"name":"","type":"address","internalType":"contract IERC20"}],"stateMutability":"view"},{"type":"function","name":"usedAuthorizations","inputs":[{"name":"","type":"bytes32","internalType":"bytes32"}],"outputs":[{"name":"","type":"bool","internalType":"bool"}],"stateMutability":"view"},{"type":"function","name":"withdrawUSDC","inputs":[{"name":"amount","type":"uint256","internalType":"uint256"}],"outputs":[],"stateMutability":"nonpayable"},{"type":"event","name":"Approval","inputs":[{"name":"owner","type":"address","indexed":true,"internalType":"address"},{"name":"spender","type":"address","indexed":true,"internalType":"address"},{"name":"value","type":"uint256","indexed":false,"internalType":"uint256"}],"anonymous":false},{"type":"event","name":"AuthorizationVerified","inputs":[{"name":"authorizer","type":"address","indexed":true,"internalType":"address"},{"name":"sender","type":"address","indexed":true,"internalType":"address"},{"name":"nonce","type":"uint256","indexed":false,"internalType":"uint256"},{"name":"dataHash","type":"bytes32","indexed":false,"internalType":"bytes32"}],"anonymous":false},{"type":"event","name":"DelegatedAccountSet","inputs":[{"name":"implementation","type":"address","indexed":true,"internalType":"address"},{"name":"codeHash","type":"bytes32","indexed":true,"internalType":"bytes32"}],"anonymous":false},{"type":"event","name":"InvestmentOpened","inputs":[{"name":"caller","type":"address","indexed":true,"internalType":"address"},{"name":"nonce","type":"uint256","indexed":true,"internalType":"uint256"},{"name":"id","type":"bytes32","indexed":true,"internalType":"bytes32"},{"name":"propertyAddress","type":"string","indexed":false,"internalType":"string"},{"name":"totalValue","type":"uint256","indexed":false,"internalType":"uint256"},{"name":"totalTokenSupply","type":"uint256","indexed":false,"internalType":"uint256"},{"name":"pricePerToken","type":"uint256","indexed":false,"internalType":"uint256"}],"anonymous":false},{"type":"event","name":"MasterKeyUpdated","inputs":[{"name":"oldKey","type":"address","indexed":true,"internalType":"address"},{"name":"newKey","type":"address","indexed":true,"internalType":"address"},{"name":"updatedBy","type":"address","indexed":true,"internalType":"address"}],"anonymous":false},{"type":"event","name":"OwnershipTransferred","inputs":[{"name":"previousOwner","type":"address","indexed":true,"internalType":"address"},{"name":"newOwner","type":"address","indexed":true,"internalType":"address"}],"anonymous":false},{"type":"event","name":"PropertyAnalyzed","inputs":[{"name":"caller","type":"address","indexed":true,"internalType":"address"},{"name":"nonce","type":"uint256","indexed":true,"internalType":"uint256"},{"name":"id","type":"bytes32","indexed":true,"internalType":"bytes32"},{"name":"propertyAddress","type":"string","indexed":false,"internalType":"string"},{"name":"totalValue","type":"uint256","indexed":false,"internalType":"uint256"},{"name":"investmentGrade","type":"string","indexed":false,"internalType":"string"},{"name":"expectedYield","type":"uint256","indexed":false,"internalType":"uint256"},{"name":"confidence","type":"uint256","indexed":false,"internalType":"uint256"},{"name":"recommendation","type":"string","indexed":false,"internalType":"string"}],"anonymous":false},{"type":"event","name":"RecoveryKeyUpdated","inputs":[{"name":"oldKey","type":"address","indexed":true,"internalType":"address"},{"name":"newKey","type":"address","indexed":true,"internalType":"address"}],"anonymous":false},{"type":"event","name":"TokensPurchased","inputs":[{"name":"caller","type":"address","indexed":true,"internalType":"address"},{"name":"nonce","type":"uint256","indexed":true,"internalType":"uint256"},{"name":"id","type":"bytes32","indexed":true,"internalType":"bytes32"},{"name":"investor","type":"address","indexed":false,"internalType":"address"},{"name":"tokenAmount","type":"uint256","indexed":false,"internalType":"uint256"},{"name":"usdcAmount","type":"uint256","indexed":false,"internalType":"uint256"},{"name":"ownershipPercentage","type":"uint256","indexed":false,"internalType":"uint256"},{"name":"timestamp","type":"uint256","indexed":false,"internalType":"uint256"}],"anonymous":false},{"type":"event","name":"Transfer","inputs":[{"name":"from","type":"address","indexed":true,"internalType":"address"},{"name":"to","type":"address","indexed":true,"internalType":"address"},{"name":"value","type":"uint256","indexed":false,"internalType":"uint256"}],"anonymous":false},{"type":"error","name":"AuthorizationAlreadyUsed","inputs":[]},{"type":"error","name":"AuthorizationExpired","inputs":[]},{"type":"error","name":"ConfidenceTooLow","inputs":[]},{"type":"error","name":"DelegatedAccountNotSet","inputs":[]},{"type":"error","name":"ECDSAInvalidSignature","inputs":[]},{"type":"error","name":"ECDSAInvalidSignatureLength","inputs":[{"name":"length","type":"uint256","internalType":"uint256"}]},{"type":"error","name":"ECDSAInvalidSignatureS","inputs":[{"name":"s","type":"bytes32","internalType":"bytes32"}]},{"type":"error","name":"ERC20InsufficientAllowance","inputs":[{"name":"spender","type":"address","internalType":"address"},{"name":"allowance","type":"uint256","internalType":"uint256"},{"name":"needed","type":"uint256","internalType":"uint256"}]},{"type":"error","name":"ERC20InsufficientBalance","inputs":[{"name":"sender","type":"address","internalType":"address"},{"name":"balance","type":"uint256","internalType":"uint256"},{"name":"needed","type":"uint256","internalType":"uint256"}]},{"type":"error","name":"ERC20InvalidApprover","inputs":[{"name":"approver","type":"address","internalType":"address"}]},{"type":"error","name":"ERC20InvalidReceiver","inputs":[{"name":"receiver","type":"address","internalType":"address"}]},{"type":"error","name":"ERC20InvalidSender","inputs":[{"name":"sender","type":"address","internalType":"address"}]},{"type":"error","name":"ERC20InvalidSpender","inputs":[{"name":"spender","type":"address","internalType":"address"}]},{"type":"error","name":"ExceedsAvailableTokens","inputs":[]},{"type":"error","name":"ExceedsMaxSinglePurchase","inputs":[]},{"type":"error","name":"InsufficientInvestmentAmount","inputs":[]},{"type":"error","name":"InvalidAddress","inputs":[]},{"type":"error","name":"InvalidAnalysisData","inputs":[]},{"type":"error","name":"InvalidImplementation","inputs":[]},{"type":"error","name":"InvalidNonce","inputs":[]},{"type":"error","name":"InvalidRecommendation","inputs":[]},{"type":"error","name":"InvalidSignature","inputs":[]},{"type":"error","name":"NoCode","inputs":[]},{"type":"error","name":"OwnableInvalidOwner","inputs":[{"name":"owner","type":"address","internalType":"address"}]},{"type":"error","name":"OwnableUnauthorizedAccount","inputs":[{"name":"account","type":"address","internalType":"address"}]},{"type":"error","name":"PropertyAlreadyAnalyzed","inputs":[]},{"type":"error","name":"PropertyNotActive","inputs":[]},{"type":"error","name":"PropertyNotAnalyzed","inputs":[]},{"type":"error","name":"ReentrancyGuardReentrantCall","inputs":[]},{"type":"error","name":"USDCTransferFailed","inputs":[]},{"type":"error","name":"UnauthorizedCaller","inputs":[]}],"bytecode":{"object":"0x60a06040523480156200001157600080fd5b506040516200331038038062003310833981016040819052620000349162000350565b604080518082018252601a81527f5265616c204573746174652050726f706572747920546f6b656e000000000000602080830191909152825180840190935260048352631491541560e21b9083015260016000559087878787816001600160a01b038116620000bd57604051631e4fbdf760e01b81526000600482015260240160405180910390fd5b620000c881620001fe565b506001600160a01b038416620000f15760405163e6c4247b60e01b815260040160405180910390fd5b6001600160a01b038316620001195760405163e6c4247b60e01b815260040160405180910390fd5b6001600160a01b038116620001415760405163e6c4247b60e01b815260040160405180910390fd5b600280546001600160a01b038087166001600160a01b03199283161790925560038054928616929091169190911790556200017c8162000250565b5050505081600a908162000191919062000512565b50600b620001a0828262000512565b5050506001600160a01b038216620001cb5760405163e6c4247b60e01b815260040160405180910390fd5b6001600160a01b038216608052600c620001e6828262000512565b50506013805460ff1916905550620005de9350505050565b600180546001600160a01b038381166001600160a01b0319831681179093556040519116919082907f8be0079c531659141344cd1fd0a4f28419497f9722a3daafe3b4186f6b6457e090600090a35050565b803f8015806200027f57507fc5d2460186f7233c927e7db2dcc703c0e500b653ca82273b7bfad8045d85a47081145b156200029e57604051633c11a9c560e21b815260040160405180910390fd5b60405161ef0160f01b60208201526001600160601b0319606084901b16602382015260009060370160408051601f1981840301815290829052805160208201206006819055909250906001600160a01b038516907f5b1390f119226218b27296b195e4447b856827c4d713c7cb924a278080112e7c90600090a3505050565b80516001600160a01b03811681146200033557600080fd5b919050565b634e487b7160e01b600052604160045260246000fd5b60008060008060008060c087890312156200036a57600080fd5b62000375876200031d565b95506020620003868189016200031d565b955062000396604089016200031d565b9450620003a6606089016200031d565b9350620003b6608089016200031d565b60a08901519093506001600160401b0380821115620003d457600080fd5b818a0191508a601f830112620003e957600080fd5b815181811115620003fe57620003fe6200033a565b604051601f8201601f19908116603f011681019083821181831017156200042957620004296200033a565b816040528281528d868487010111156200044257600080fd5b600093505b8284101562000466578484018601518185018701529285019262000447565b60008684830101528096505050505050509295509295509295565b600181811c908216806200049657607f821691505b602082108103620004b757634e487b7160e01b600052602260045260246000fd5b50919050565b601f8211156200050d576000816000526020600020601f850160051c81016020861015620004e85750805b601f850160051c820191505b818110156200050957828155600101620004f4565b5050505b505050565b81516001600160401b038111156200052e576200052e6200033a565b62000546816200053f845462000481565b84620004bd565b602080601f8311600181146200057e5760008415620005655750858301515b600019600386901b1c1916600185901b17855562000509565b600085815260208120601f198616915b82811015620005af578886015182559484019460019091019084016200058e565b5085821015620005ce5787850151600019600388901b60f8161c191681555b5050505050600190811b01905550565b608051612d08620006086000396000818161044701528181610edb01526117750152612d086000f3fe608060405234801561001057600080fd5b50600436106102d65760003560e01c80637804404211610182578063ac1d92a1116100e9578063db81f99b116100a2578063ea3ad4a31161007c578063ea3ad4a31461074a578063edb9a5c014610752578063f2fde38b14610775578063f916948a1461078857600080fd5b8063db81f99b146106f6578063dd62ed3e14610709578063e35568cb1461074257600080fd5b8063ac1d92a114610674578063b80a852c14610687578063c7ee8b431461069a578063c99c35d8146106ad578063d5a1780b146106c0578063daafc3a2146106e357600080fd5b8063912c67691161013b578063912c67691461061857806395d89b411461062057806397905a8814610628578063a2931fe81461063b578063a9059cbb1461064e578063ab17e3371461066157600080fd5b806378044042146105565780637ecebe00146105af57806381ea4408146105cf578063832d7e69146105e15780638afe35b9146105f45780638da5cb5b1461060757600080fd5b80633545b6dc1161024157806356914d5b116101fa5780636f84329f116101d45780636f84329f146104ff57806370a0823114610512578063715018a61461053b57806376ca3f611461054357600080fd5b806356914d5b1461049d5780635de5f3be146104a5578063650e71e3146104ba57600080fd5b80633545b6dc1461040f5780633dacd33c146104385780633e413bee14610442578063401105351461048157806341f937571461048a5780634ef8ff331461049257600080fd5b806323b872dd1161029357806323b872dd1461039e57806329b8caff146103b15780632d0335ab146103ba5780632eb40090146103e35780632fcb61ff146103f8578063313ce5671461040057600080fd5b80630434c8c2146102db57806306fdde0314610313578063095ea7b31461032857806314335b8d1461034b578063176fd3f01461036e57806318160ddd1461038c575b600080fd5b6102ee6102e93660046122a4565b610791565b6040805194855260208501939093529183015260608201526080015b60405180910390f35b61031b6108dd565b60405161030a9190612305565b61033b610336366004612318565b61096f565b604051901515815260200161030a565b61033b610359366004612342565b60009081526005602052604090205460ff1690565b610376610989565b60405161030a9a9998979695949392919061235b565b6009545b60405190815260200161030a565b61033b6103ac3660046123c6565b610ae0565b61039060185481565b6103906103c83660046122a4565b6001600160a01b031660009081526004602052604090205490565b6103f66103f13660046122a4565b610b04565b005b61033b610b85565b6040516006815260200161030a565b61039061041d3660046122a4565b6001600160a01b031660009081526016602052604090205490565b600654151561033b565b6104697f000000000000000000000000000000000000000000000000000000000000000081565b6040516001600160a01b03909116815260200161030a565b61039060065481565b610390604681565b610390633b9aca0081565b601754610390565b6104ad610ba2565b60405161030a9190612402565b6104cd6104c8366004612318565b610d87565b604080516001600160a01b0390961686526020860194909452928401919091526060830152608082015260a00161030a565b6103f661050d3660046124bd565b610ddf565b6103906105203660046122a4565b6001600160a01b031660009081526007602052604090205490565b6103f66111a1565b6104cd610551366004612342565b6111b5565b610569610564366004612318565b611200565b60405161030a919081516001600160a01b031681526020808301519082015260408083015190820152606080830151908201526080918201519181019190915260a00190565b6103906105bd3660046122a4565b60046020526000908152604090205481565b6103906105dd3660046122a4565b3f90565b6103f66105ef366004612502565b61131d565b600254610469906001600160a01b031681565b6001546001600160a01b0316610469565b6103f661150b565b61031b611522565b600354610469906001600160a01b031681565b6103906106493660046122a4565b611531565b61033b61065c366004612318565b611577565b6103f661066f3660046122a4565b611585565b61039061068236600461253f565b611599565b61033b6106953660046122a4565b611633565b6103906106a8366004612342565b611652565b6103f66106bb3660046122a4565b611689565b61033b6106ce366004612342565b60056020526000908152604090205460ff1681565b6103f66106f1366004612318565b611747565b6103f6610704366004612342565b61176b565b6103906107173660046125ae565b6001600160a01b03918216600090815260086020908152604080832093909416825291909152205490565b610390611842565b6103f661185a565b61033b6107603660046122a4565b60196020526000908152604090205460ff1681565b6103f66107833660046122a4565b61186e565b6103906103e881565b6000806000806107b6856001600160a01b031660009081526007602052604090205490565b6001600160a01b038616600090815260166020908152604080832080548251818502810185019093528083529498509293909291849084015b828210156108565760008481526020908190206040805160a0810182526005860290920180546001600160a01b03168352600180820154848601526002820154928401929092526003810154606084015260040154608083015290835290920191016107ef565b50505050905060005b815181101561089b5781818151811061087a5761087a6125e1565b60200260200101516040015185610891919061260d565b945060010161085f565b506011546108ab86612710612620565b6108b59190612637565b600f54909350612710906108c99086612620565b6108d39190612637565b9150509193509193565b6060600a80546108ec90612659565b80601f016020809104026020016040519081016040528092919081815260200182805461091890612659565b80156109655780601f1061093a57610100808354040283529160200191610965565b820191906000526020600020905b81548152906001019060200180831161094857829003601f168201915b5050505050905090565b60003361097d8185856118a9565b60019150505b92915050565b600c8054819061099890612659565b80601f01602080910402602001604051908101604052809291908181526020018280546109c490612659565b8015610a115780601f106109e657610100808354040283529160200191610a11565b820191906000526020600020905b8154815290600101906020018083116109f457829003601f168201915b505050505090806001015490806002018054610a2c90612659565b80601f0160208091040260200160405190810160405280929190818152602001828054610a5890612659565b8015610aa55780601f10610a7a57610100808354040283529160200191610aa5565b820191906000526020600020905b815481529060010190602001808311610a8857829003601f168201915b505050600384015460048501546005860154600687015460078801546008890154600990990154979894979396509194509260ff909116918a565b600033610aee8582856118bb565b610af985858561193a565b506001949350505050565b610b0c611999565b6001600160a01b038116610b335760405163e6c4247b60e01b815260040160405180910390fd5b600380546001600160a01b038381166001600160a01b0319831681179093556040519116919082907fc1ded5e7b2e884aee7a9307c075cf7a3c01d6fde38a5dcc91e833fe602c7019990600090a35050565b60135460009060ff168015610b9d5750601154600954105b905090565b610bfa6040518061014001604052806060815260200160008152602001606081526020016000815260200160008152602001600081526020016000815260200160001515815260200160008152602001600081525090565b600c60405180610140016040529081600082018054610c1890612659565b80601f0160208091040260200160405190810160405280929190818152602001828054610c4490612659565b8015610c915780601f10610c6657610100808354040283529160200191610c91565b820191906000526020600020905b815481529060010190602001808311610c7457829003601f168201915b5050505050815260200160018201548152602001600282018054610cb490612659565b80601f0160208091040260200160405190810160405280929190818152602001828054610ce090612659565b8015610d2d5780601f10610d0257610100808354040283529160200191610d2d565b820191906000526020600020905b815481529060010190602001808311610d1057829003601f168201915b505050918352505060038201546020820152600482015460408201526005820154606082015260068201546080820152600782015460ff16151560a0820152600882015460c082015260099091015460e090910152919050565b60166020528160005260406000208181548110610da357600080fd5b6000918252602090912060059091020180546001820154600283015460038401546004909401546001600160a01b039093169550909350919085565b81610de9816119c6565b60135460ff16610e0c57604051632214b61f60e11b815260040160405180910390fd5b633b9aca00821015610e3157604051631578537b60e21b815260040160405180910390fd5b601254600090610e419084612637565b90506127106103e8600c60050154610e599190612620565b610e639190612637565b811115610e8357604051633468be7960e01b815260040160405180910390fd5b60115481610e9060095490565b610e9a919061260d565b1115610eb957604051637052492160e11b815260040160405180910390fd5b6040516323b872dd60e01b8152336004820152306024820152604481018490527f00000000000000000000000000000000000000000000000000000000000000006001600160a01b0316906323b872dd906064016020604051808303816000875af1158015610f2c573d6000803e3d6000fd5b505050506040513d601f19601f82011682018060405250810190610f50919061269b565b610f6d5760405163a55b288760e01b815260040160405180910390fd5b610f773382611c5d565b601154600090610f8983612710612620565b610f939190612637565b6040805160a0810182523380825260208083018781528385018a81524260608601908152608086018881526000868152601686528881208054600180820183559183528783208a51600592830290910180546001600160a01b03199081166001600160a01b039384161782558951828601558851600283015587516003830155865160049092019190915560178054948501815585528b517fc624b66cc0138b8fabc209247f72d758e1cf3343756d543badbf24212bed8c159490930293840180549091169290911691909117905594517fc624b66cc0138b8fabc209247f72d758e1cf3343756d543badbf24212bed8c1686015592517fc624b66cc0138b8fabc209247f72d758e1cf3343756d543badbf24212bed8c1785015590517fc624b66cc0138b8fabc209247f72d758e1cf3343756d543badbf24212bed8c18840155517fc624b66cc0138b8fabc209247f72d758e1cf3343756d543badbf24212bed8c19909201919091559182526019905291909120549192509060ff1661114257336000908152601960205260408120805460ff19166001179055601880549161113c836126b8565b91905055505b6040805133808252602082018690528183018890526060820185905242608083015291880135918835917fd3eb5ec696f68444f84e3e32407d4c08a673aac72824eb375c628597713ffd0e9060a00160405180910390a4505050505050565b6111a9611999565b6111b36000611c97565b565b601781815481106111c557600080fd5b6000918252602090912060059091020180546001820154600283015460038401546004909401546001600160a01b0390931694509092909185565b61123b6040518060a0016040528060006001600160a01b03168152602001600081526020016000815260200160008152602001600081525090565b6001600160a01b03831660009081526016602052604090205482106112975760405162461bcd60e51b815260206004820152600d60248201526c092dcecc2d8d2c840d2dcc8caf609b1b60448201526064015b60405180910390fd5b6001600160a01b03831660009081526016602052604090208054839081106112c1576112c16125e1565b60009182526020918290206040805160a081018252600590930290910180546001600160a01b03168352600181015493830193909352600283015490820152600382015460608201526004909101546080820152905092915050565b80611327816119c6565b600061133660808401846126d1565b81019061134391906127eb565b905060468160000151101561136b576040516315f0caef60e31b815260040160405180910390fd5b806060015160000361138f5760405162f492a760e11b815260040160405180910390fd5b6040805180820190915260068152651253959154d560d21b602091820152608082015180519101207f88970ec936c5c77d9657d854f3aba4563c32c528a1e3bf7b8d2a09908e191234146113f6576040516346fabdab60e11b815260040160405180910390fd5b6060810151600d556040810151600e9061141090826128ea565b506020810151600f558051601055606081015161143690670de0b6b3a764000090612637565b601155620f42406012556013805460ff1916600117905542601481905560155560608101516040828101516020840151845160808601518451948901359589359533957ff19f20860ef7c2238b52fdcac27f8010eae3544a16c9ea01211819af4a0bf206956114ad95600c95929391929091612a27565b60405180910390a4600d5460115460125460408051908701359387359333937f6928ff194f2d439ee50b5d743fc85d82b4399af1d2d506038ee8c435016ef1cf936114fe93600c9390929091612a7f565b60405180910390a4505050565b611513611999565b6013805460ff19166001179055565b6060600b80546108ec90612659565b601154600090810361154557506000919050565b6011546001600160a01b03831660009081526007602052604090205461156d90612710612620565b6109839190612637565b60003361097d81858561193a565b61158d611999565b61159681611ce9565b50565b6000838335602085013560408601356115b56060880188612aae565b6040516020016115c6929190612b67565b60408051601f1981840301815291905280516020909101206115eb60808901896126d1565b6115fb60c08b0160a08c01612c1a565b8960405160200161161499989796959493929190612c37565b6040516020818303038152906040528051906020012090509392505050565b600654600090823f908114801561164b575060065415155b9392505050565b60135460009060ff1661167857604051631ed84fa160e01b815260040160405180910390fd5b600f546127109061156d9084612620565b6001546001600160a01b031633148015906116af57506003546001600160a01b03163314155b156116cd57604051635c427cd960e01b815260040160405180910390fd5b6001600160a01b0381166116f45760405163e6c4247b60e01b815260040160405180910390fd5b600280546001600160a01b038381166001600160a01b031983168117909355604051911691339183907fb659f04626597961e33b3345b88799f112d62f49db80f9dfced83f1db86059b590600090a45050565b61174f611999565b6001600160a01b03909116600090815260046020526040902055565b611773611999565b7f00000000000000000000000000000000000000000000000000000000000000006001600160a01b031663a9059cbb6117b46001546001600160a01b031690565b6040516001600160e01b031960e084901b1681526001600160a01b039091166004820152602481018490526044016020604051808303816000875af1158015611801573d6000803e3d6000fd5b505050506040513d601f19601f82011682018060405250810190611825919061269b565b6115965760405163a55b288760e01b815260040160405180910390fd5b600061184d60095490565b601154610b9d9190612c99565b611862611999565b6013805460ff19169055565b611876611999565b6001600160a01b0381166118a057604051631e4fbdf760e01b81526000600482015260240161128e565b61159681611c97565b6118b68383836001611db9565b505050565b6001600160a01b03838116600090815260086020908152604080832093861683529290522054600019811015611934578181101561192557604051637dc7a0d960e11b81526001600160a01b0384166004820152602481018290526044810183905260640161128e565b61193484848484036000611db9565b50505050565b6001600160a01b03831661196457604051634b637e8f60e11b81526000600482015260240161128e565b6001600160a01b03821661198e5760405163ec442f0560e01b81526000600482015260240161128e565b6118b6838383611e8e565b6001546001600160a01b031633146111b35760405163118cdaa760e01b815233600482015260240161128e565b6119ce611fb8565b6119d6611fe2565b33600090815260046020526040902054813514611a0657604051633ab3447f60e11b815260040160405180910390fd5b8060200135421115611a2b57604051630f05f5bf60e01b815260040160405180910390fd5b600033823560208401356040850135611a476060870187612aae565b604051602001611a58929190612b67565b60408051601f198184030181529190528051602090910120611a7d60808801886126d1565b611a8d60c08a0160a08b01612c1a565b6000356001600160e01b031916604051602001611ab299989796959493929190612c37565b60408051601f1981840301815291815281516020928301206000818152600590935291205490915060ff1615611afb57604051634a8478f960e11b815260040160405180910390fd5b7f19457468657265756d205369676e6564204d6573736167653a0a3332000000006000908152601c829052603c812090611b78611b3b60c08601866126d1565b8080601f01602080910402602001604051908101604052809392919081815260200183838082843760009201919091525086939250506120899050565b6002549091506001600160a01b03808316911614611ba957604051638baa579f60e01b815260040160405180910390fd5b336000908152600460205260408120805491611bc4836126b8565b90915550506000838152600560205260409020805460ff1916600117905560025433906001600160a01b03167fd7bce872b861b0862977bd7cb13080ae07a63614c3978fd7bd6ba3bffa4b87858635611c2060808901896126d1565b604051611c2e929190612cac565b604051908190038120611c48928252602082015260400190565b60405180910390a35050506115966001600055565b6001600160a01b038216611c875760405163ec442f0560e01b81526000600482015260240161128e565b611c9360008383611e8e565b5050565b600180546001600160a01b038381166001600160a01b0319831681179093556040519116919082907f8be0079c531659141344cd1fd0a4f28419497f9722a3daafe3b4186f6b6457e090600090a35050565b803f801580611d1757507fc5d2460186f7233c927e7db2dcc703c0e500b653ca82273b7bfad8045d85a47081145b15611d3557604051633c11a9c560e21b815260040160405180910390fd5b60405161ef0160f01b60208201526bffffffffffffffffffffffff19606084901b16602382015260009060370160408051601f1981840301815290829052805160208201206006819055909250906001600160a01b038516907f5b1390f119226218b27296b195e4447b856827c4d713c7cb924a278080112e7c90600090a3505050565b6001600160a01b038416611de35760405163e602df0560e01b81526000600482015260240161128e565b6001600160a01b038316611e0d57604051634a1406b160e11b81526000600482015260240161128e565b6001600160a01b038085166000908152600860209081526040808320938716835292905220829055801561193457826001600160a01b0316846001600160a01b03167f8c5be1e5ebec7d5bd14f71427d1e84f3dd0314c0f7b2291e5b200ac8c7c3b92584604051611e8091815260200190565b60405180910390a350505050565b6001600160a01b038316611eb9578060096000828254611eae919061260d565b90915550611f2b9050565b6001600160a01b03831660009081526007602052604090205481811015611f0c5760405163391434e360e21b81526001600160a01b0385166004820152602481018290526044810183905260640161128e565b6001600160a01b03841660009081526007602052604090209082900390555b6001600160a01b038216611f4757600980548290039055611f66565b6001600160a01b03821660009081526007602052604090208054820190555b816001600160a01b0316836001600160a01b03167fddf252ad1be2c89b69c2b068fc378daa952ba7f163c4a11628f55a4df523b3ef83604051611fab91815260200190565b60405180910390a3505050565b600260005403611fdb57604051633ee5aeb560e01b815260040160405180910390fd5b6002600055565b60065461200257604051632412377b60e11b815260040160405180910390fd5b333f600081900361202657604051633c11a9c560e21b815260040160405180910390fd5b7fc5d2460186f7233c927e7db2dcc703c0e500b653ca82273b7bfad8045d85a47081900361206757604051633c11a9c560e21b815260040160405180910390fd5b60065481146115965760405163340aafcd60e11b815260040160405180910390fd5b60008060008061209986866120b3565b9250925092506120a98282612100565b5090949350505050565b600080600083516041036120ed5760208401516040850151606086015160001a6120df888285856121b9565b9550955095505050506120f9565b50508151600091506002905b9250925092565b600082600381111561211457612114612cbc565b0361211d575050565b600182600381111561213157612131612cbc565b0361214f5760405163f645eedf60e01b815260040160405180910390fd5b600282600381111561216357612163612cbc565b036121845760405163fce698f760e01b81526004810182905260240161128e565b600382600381111561219857612198612cbc565b03611c93576040516335e2f38360e21b81526004810182905260240161128e565b600080807f7fffffffffffffffffffffffffffffff5d576e7357a4501ddfe92f46681b20a08411156121f4575060009150600390508261227e565b604080516000808252602082018084528a905260ff891692820192909252606081018790526080810186905260019060a0016020604051602081039080840390855afa158015612248573d6000803e3d6000fd5b5050604051601f1901519150506001600160a01b0381166122745750600092506001915082905061227e565b9250600091508190505b9450945094915050565b80356001600160a01b038116811461229f57600080fd5b919050565b6000602082840312156122b657600080fd5b61164b82612288565b6000815180845260005b818110156122e5576020818501810151868301820152016122c9565b506000602082860101526020601f19601f83011685010191505092915050565b60208152600061164b60208301846122bf565b6000806040838503121561232b57600080fd5b61233483612288565b946020939093013593505050565b60006020828403121561235457600080fd5b5035919050565b600061014080835261236f8184018e6122bf565b90508b60208401528281036040840152612389818c6122bf565b606084019a909a525050608081019690965260a086019490945260c0850192909252151560e0840152610100830152610120909101529392505050565b6000806000606084860312156123db57600080fd5b6123e484612288565b92506123f260208501612288565b9150604084013590509250925092565b60208152600082516101408060208501526124216101608501836122bf565b9150602085015160408501526040850151601f1985840301606086015261244883826122bf565b92505060608501516080850152608085015160a085015260a085015160c085015260c085015160e085015260e08501516101006124888187018315159052565b860151610120868101919091529095015193019290925250919050565b600060e082840312156124b757600080fd5b50919050565b600080604083850312156124d057600080fd5b823567ffffffffffffffff8111156124e757600080fd5b6124f3858286016124a5565b95602094909401359450505050565b60006020828403121561251457600080fd5b813567ffffffffffffffff81111561252b57600080fd5b612537848285016124a5565b949350505050565b60008060006060848603121561255457600080fd5b61255d84612288565b9250602084013567ffffffffffffffff81111561257957600080fd5b612585868287016124a5565b92505060408401356001600160e01b0319811681146125a357600080fd5b809150509250925092565b600080604083850312156125c157600080fd5b6125ca83612288565b91506125d860208401612288565b90509250929050565b634e487b7160e01b600052603260045260246000fd5b634e487b7160e01b600052601160045260246000fd5b80820180821115610983576109836125f7565b8082028115828204841417610983576109836125f7565b60008261265457634e487b7160e01b600052601260045260246000fd5b500490565b600181811c9082168061266d57607f821691505b6020821081036124b757634e487b7160e01b600052602260045260246000fd5b801515811461159657600080fd5b6000602082840312156126ad57600080fd5b815161164b8161268d565b6000600182016126ca576126ca6125f7565b5060010190565b6000808335601e198436030181126126e857600080fd5b83018035915067ffffffffffffffff82111561270357600080fd5b60200191503681900382131561271857600080fd5b9250929050565b634e487b7160e01b600052604160045260246000fd5b60405160a0810167ffffffffffffffff811182821017156127585761275861271f565b60405290565b600082601f83011261276f57600080fd5b813567ffffffffffffffff8082111561278a5761278a61271f565b604051601f8301601f19908116603f011681019082821181831017156127b2576127b261271f565b816040528381528660208588010111156127cb57600080fd5b836020870160208301376000602085830101528094505050505092915050565b6000602082840312156127fd57600080fd5b813567ffffffffffffffff8082111561281557600080fd5b9083019060a0828603121561282957600080fd5b612831612735565b823581526020830135602082015260408301358281111561285157600080fd5b61285d8782860161275e565b6040830152506060830135606082015260808301358281111561287f57600080fd5b61288b8782860161275e565b60808301525095945050505050565b601f8211156118b6576000816000526020600020601f850160051c810160208610156128c35750805b601f850160051c820191505b818110156128e2578281556001016128cf565b505050505050565b815167ffffffffffffffff8111156129045761290461271f565b612918816129128454612659565b8461289a565b602080601f83116001811461294d57600084156129355750858301515b600019600386901b1c1916600185901b1785556128e2565b600085815260208120601f198616915b8281101561297c5788860151825594840194600190910190840161295d565b508582101561299a5787850151600019600388901b60f8161c191681555b5050505050600190811b01905550565b600081546129b781612659565b8085526020600183811680156129d457600181146129ee57612a1c565b60ff1985168884015283151560051b880183019550612a1c565b866000528260002060005b85811015612a145781548a82018601529083019084016129f9565b890184019650505b505050505092915050565b60c081526000612a3a60c08301896129aa565b8760208401528281036040840152612a5281886122bf565b905085606084015284608084015282810360a0840152612a7281856122bf565b9998505050505050505050565b608081526000612a9260808301876129aa565b6020830195909552506040810192909252606090910152919050565b6000808335601e19843603018112612ac557600080fd5b83018035915067ffffffffffffffff821115612ae057600080fd5b6020019150600581901b360382131561271857600080fd5b6000808335601e19843603018112612b0f57600080fd5b830160208101925035905067ffffffffffffffff811115612b2f57600080fd5b80360382131561271857600080fd5b81835281816020850137506000828201602090810191909152601f909101601f19169091010190565b60208082528181018390526000906040808401600586901b850182018785805b89811015612c0b57888403603f190185528235368c9003605e19018112612bac578283fd5b8b01803585526060612bc089830183612af8565b828b890152612bd28389018284612b3e565b92505050612be288830183612af8565b925086820389880152612bf6828483612b3e565b978a0197965050509287019250600101612b87565b50919998505050505050505050565b600060208284031215612c2c57600080fd5b813561164b8161268d565b6bffffffffffffffffffffffff198a60601b1681528860148201528760348201528660548201528560748201528385609483013791151560f81b9290910160948101929092526001600160e01b03191660958201526099019695505050505050565b81810381811115610983576109836125f7565b8183823760009101908152919050565b634e487b7160e01b600052602160045260246000fdfea26469706673582212200f82518a35ba939ebf01a1c09a66e4eccd68b2c644d33c47d0c90e56d997fdee64736f6c63430008170033","linkReferences":{}},"methodIdentifiers":{"MAX_SINGLE_PURCHASE_PCT()":"f916948a","MIN_CONFIDENCE()":"41f93757","MIN_INVESTMENT()":"4ef8ff33","allInvestments(uint256)":"76ca3f61","allowance(address,address)":"dd62ed3e","approve(address,uint256)":"095ea7b3","balanceOf(address)":"70a08231","calculateExpectedReturn(uint256)":"c7ee8b43","decimals()":"313ce567","delegatedAccountCodeHash()":"40110535","emergencyResetNonce(address,uint256)":"daafc3a2","getAuthorizationHash(address,(uint256,uint256,bytes32,(bytes32,bytes,bytes)[],bytes,bool,bytes),bytes4)":"ac1d92a1","getAvailableTokens()":"e35568cb","getCodeHash(address)":"81ea4408","getInvestmentSummary(address)":"0434c8c2","getInvestorRecord(address,uint256)":"78044042","getInvestorRecordCount(address)":"3545b6dc","getNonce(address)":"2d0335ab","getOwnershipPercentage(address)":"a2931fe8","getPropertyInfo()":"5de5f3be","getTotalInvestmentCount()":"56914d5b","hasInvested(address)":"edb9a5c0","investorRecords(address,uint256)":"650e71e3","isAuthorizationUsed(bytes32)":"14335b8d","isDelegatedAccount(address)":"b80a852c","isDelegatedAccountSet()":"3dacd33c","isInvestmentAvailable()":"2fcb61ff","masterKey()":"8afe35b9","name()":"06fdde03","nonces(address)":"7ecebe00","owner()":"8da5cb5b","pauseInvestments()":"ea3ad4a3","property()":"176fd3f0","purchaseTokens((uint256,uint256,bytes32,(bytes32,bytes,bytes)[],bytes,bool,bytes),uint256)":"6f84329f","recoveryKey()":"97905a88","renounceOwnership()":"715018a6","resumeInvestments()":"912c6769","setDelegatedAccountImplementation(address)":"ab17e337","submitPropertyAnalysis((uint256,uint256,bytes32,(bytes32,bytes,bytes)[],bytes,bool,bytes))":"832d7e69","symbol()":"95d89b41","totalInvestors()":"29b8caff","totalSupply()":"18160ddd","transfer(address,uint256)":"a9059cbb","transferFrom(address,address,uint256)":"23b872dd","transferOwnership(address)":"f2fde38b","updateMasterKey(address)":"c99c35d8","updateRecoveryKey(address)":"2eb40090","usdc()":"3e413bee","usedAuthorizations(bytes32)":"d5a1780b","withdrawUSDC(uint256)":"db81f99b"},"id":72}