{"abi":[{"type":"constructor","inputs":[{"name":"_entryPoint","type":"address","internalType":"contract IEntryPoint"}],"stateMutability":"nonpayable"},{"type":"fallback","stateMutability":"payable"},{"type":"receive","stateMutability":"payable"},{"type":"function","name":"VaultAddress","inputs":[],"outputs":[{"name":"","type":"address","internalType":"address"}],"stateMutability":"view"},{"type":"function","name":"delegate","inputs":[],"outputs":[{"name":"","type":"address","internalType":"address"}],"stateMutability":"view"},{"type":"function","name":"entryPoint","inputs":[],"outputs":[{"name":"","type":"address","internalType":"contract IEntryPoint"}],"stateMutability":"view"},{"type":"function","name":"execute","inputs":[{"name":"intent","type":"tuple","internalType":"struct Delegated7702AccountV2.TransactionIntent","components":[{"name":"target","type":"address","internalType":"address"},{"name":"value","type":"uint256","internalType":"uint256"},{"name":"id","type":"bytes32","internalType":"bytes32"},{"name":"nodeAddress","type":"address","internalType":"address"},{"name":"nonce","type":"uint256","internalType":"uint256"},{"name":"deadline","type":"uint256","internalType":"uint256"}]},{"name":"func","type":"bytes","internalType":"bytes"},{"name":"signature","type":"bytes","internalType":"bytes"}],"outputs":[],"stateMutability":"nonpayable"},{"type":"function","name":"execute","inputs":[{"name":"dest","type":"address","internalType":"address"},{"name":"value","type":"uint256","internalType":"uint256"},{"name":"func","type":"bytes","internalType":"bytes"}],"outputs":[],"stateMutability":"nonpayable"},{"type":"function","name":"executeBatch","inputs":[{"name":"dest","type":"address[]","internalType":"address[]"},{"name":"func","type":"bytes[]","internalType":"bytes[]"}],"outputs":[],"stateMutability":"nonpayable"},{"type":"function","name":"executeBatch","inputs":[{"name":"dest","type":"address[]","internalType":"address[]"},{"name":"value","type":"uint256[]","internalType":"uint256[]"},{"name":"func","type":"bytes[]","internalType":"bytes[]"}],"outputs":[],"stateMutability":"nonpayable"},{"type":"function","name":"getNonce","inputs":[],"outputs":[{"name":"","type":"uint256","internalType":"uint256"}],"stateMutability":"view"},{"type":"function","name":"initialize","inputs":[{"name":"anOwner","type":"address","internalType":"address"}],"outputs":[],"stateMutability":"nonpayable"},{"type":"function","name":"isInitialized","inputs":[],"outputs":[{"name":"","type":"bool","internalType":"bool"}],"stateMutability":"view"},{"type":"function","name":"isValidSignature","inputs":[{"name":"hash","type":"bytes32","internalType":"bytes32"},{"name":"signature","type":"bytes","internalType":"bytes"}],"outputs":[{"name":"magicValue","type":"bytes4","internalType":"bytes4"}],"stateMutability":"view"},{"type":"function","name":"onERC1155BatchReceived","inputs":[{"name":"","type":"address","internalType":"address"},{"name":"","type":"address","internalType":"address"},{"name":"","type":"uint256[]","internalType":"uint256[]"},{"name":"","type":"uint256[]","internalType":"uint256[]"},{"name":"","type":"bytes","internalType":"bytes"}],"outputs":[{"name":"","type":"bytes4","internalType":"bytes4"}],"stateMutability":"nonpayable"},{"type":"function","name":"onERC1155Received","inputs":[{"name":"","type":"address","internalType":"address"},{"name":"","type":"address","internalType":"address"},{"name":"","type":"uint256","internalType":"uint256"},{"name":"","type":"uint256","internalType":"uint256"},{"name":"","type":"bytes","internalType":"bytes"}],"outputs":[{"name":"","type":"bytes4","internalType":"bytes4"}],"stateMutability":"nonpayable"},{"type":"function","name":"onERC721Received","inputs":[{"name":"","type":"address","internalType":"address"},{"name":"","type":"address","internalType":"address"},{"name":"","type":"uint256","internalType":"uint256"},{"name":"","type":"bytes","internalType":"bytes"}],"outputs":[{"name":"","type":"bytes4","internalType":"bytes4"}],"stateMutability":"nonpayable"},{"type":"function","name":"owner","inputs":[],"outputs":[{"name":"","type":"address","internalType":"address"}],"stateMutability":"view"},{"type":"function","name":"revokeDelegate","inputs":[],"outputs":[],"stateMutability":"nonpayable"},{"type":"function","name":"supportsInterface","inputs":[{"name":"interfaceId","type":"bytes4","internalType":"bytes4"}],"outputs":[{"name":"","type":"bool","internalType":"bool"}],"stateMutability":"pure"},{"type":"function","name":"updateDelegate","inputs":[{"name":"_newDelegate","type":"address","internalType":"address"}],"outputs":[],"stateMutability":"nonpayable"},{"type":"function","name":"validateIntentSignature","inputs":[{"name":"intent","type":"tuple","internalType":"struct Delegated7702AccountV2.TransactionIntent","components":[{"name":"target","type":"address","internalType":"address"},{"name":"value","type":"uint256","internalType":"uint256"},{"name":"id","type":"bytes32","internalType":"bytes32"},{"name":"nodeAddress","type":"address","internalType":"address"},{"name":"nonce","type":"uint256","internalType":"uint256"},{"name":"deadline","type":"uint256","internalType":"uint256"}]},{"name":"signature","type":"bytes","internalType":"bytes"}],"outputs":[{"name":"isValid","type":"bool","internalType":"bool"},{"name":"signer","type":"address","internalType":"address"}],"stateMutability":"view"},{"type":"function","name":"validateUserOp","inputs":[{"name":"userOp","type":"tuple","internalType":"struct PackedUserOperation","components":[{"name":"sender","type":"address","internalType":"address"},{"name":"nonce","type":"uint256","internalType":"uint256"},{"name":"initCode","type":"bytes","internalType":"bytes"},{"name":"callData","type":"bytes","internalType":"bytes"},{"name":"accountGasLimits","type":"bytes32","internalType":"bytes32"},{"name":"preVerificationGas","type":"uint256","internalType":"uint256"},{"name":"gasFees","type":"bytes32","internalType":"bytes32"},{"name":"paymasterAndData","type":"bytes","internalType":"bytes"},{"name":"signature","type":"bytes","internalType":"bytes"}]},{"name":"userOpHash","type":"bytes32","internalType":"bytes32"},{"name":"missingAccountFunds","type":"uint256","internalType":"uint256"}],"outputs":[{"name":"validationData","type":"uint256","internalType":"uint256"}],"stateMutability":"nonpayable"},{"type":"event","name":"DelegateUpdated","inputs":[{"name":"oldDelegate","type":"address","indexed":true,"internalType":"address"},{"name":"newDelegate","type":"address","indexed":true,"internalType":"address"}],"anonymous":false},{"type":"event","name":"DelegateUsed","inputs":[{"name":"delegate","type":"address","indexed":true,"internalType":"address"},{"name":"userOpHash","type":"bytes32","indexed":false,"internalType":"bytes32"}],"anonymous":false},{"type":"event","name":"FeeTransferred","inputs":[{"name":"recipient","type":"address","indexed":true,"internalType":"address"},{"name":"amount","type":"uint256","indexed":false,"internalType":"uint256"}],"anonymous":false},{"type":"event","name":"Initialized","inputs":[{"name":"version","type":"uint64","indexed":false,"internalType":"uint64"}],"anonymous":false},{"type":"event","name":"Simple7702AccountV07Initialized","inputs":[{"name":"entryPoint","type":"address","indexed":true,"internalType":"contract IEntryPoint"},{"name":"owner","type":"address","indexed":true,"internalType":"address"}],"anonymous":false},{"type":"event","name":"TransactionIntentExecuted","inputs":[{"name":"intentId","type":"bytes32","indexed":true,"internalType":"bytes32"},{"name":"executor","type":"address","indexed":true,"internalType":"address"}],"anonymous":false},{"type":"error","name":"ECDSAInvalidSignature","inputs":[]},{"type":"error","name":"ECDSAInvalidSignatureLength","inputs":[{"name":"length","type":"uint256","internalType":"uint256"}]},{"type":"error","name":"ECDSAInvalidSignatureS","inputs":[{"name":"s","type":"bytes32","internalType":"bytes32"}]},{"type":"error","name":"IntentExpired","inputs":[{"name":"deadline","type":"uint256","internalType":"uint256"}]},{"type":"error","name":"InvalidInitialization","inputs":[]},{"type":"error","name":"InvalidNonce","inputs":[]},{"type":"error","name":"InvalidSignature","inputs":[]},{"type":"error","name":"NotInitializing","inputs":[]},{"type":"error","name":"OnlyEntryPointAllowed","inputs":[]},{"type":"error","name":"OnlyOwnerFunction","inputs":[]}],"bytecode":{"object":"0x60a06040523480156200001157600080fd5b5060405162001ed738038062001ed7833981016040819052620000349162000108565b6001600160a01b038116608052806200004c62000054565b50506200013a565b7ff0c57e16840df040f15088dc2f81fe391c3923bec73e23a9662efc9c229c6a00805468010000000000000000900460ff1615620000a55760405163f92ee8a960e01b815260040160405180910390fd5b80546001600160401b0390811614620001055780546001600160401b0319166001600160401b0390811782556040519081527fc7f505b2f371ae2175ee4913f4499e1f2633a7b5936321eed1cdaeb6115181d29060200160405180910390a15b50565b6000602082840312156200011b57600080fd5b81516001600160a01b03811681146200013357600080fd5b9392505050565b608051611d5e620001796000396000818161032a015281816106c001528181610a9e01528181610b3701528181610cc90152610dc80152611d5e6000f3fe6080604052600436106101175760003560e01c80638da5cb5b1161009a578063c4d66de811610061578063c4d66de81461039a578063c89e4361146103ba578063d087d288146103da578063f23a6e61146103ef578063fe3f9b0e1461041b57005b80638da5cb5b146102bb578063a2a4a788146102f3578063b0d691fe1461031b578063b61d27f61461034e578063bc197c811461036e57005b80632d12c06b116100de5780632d12c06b14610207578063392e53cd1461024657806347e1da2a14610266578063528f9cc01461028657806355d1ef38146102a657005b806301ffc9a714610120578063150b7a02146101555780631626ba7e1461019957806318dfb3c7146101b957806319822f7c146101d957005b3661011e57005b005b34801561012c57600080fd5b5061014061013b3660046115b9565b61043b565b60405190151581526020015b60405180910390f35b34801561016157600080fd5b506101806101703660046116af565b630a85bd0160e11b949350505050565b6040516001600160e01b0319909116815260200161014c565b3480156101a557600080fd5b506101806101b4366004611716565b6104c3565b3480156101c557600080fd5b5061011e6101d43660046117a7565b6104f1565b3480156101e557600080fd5b506101f96101f4366004611812565b6105c5565b60405190815260200161014c565b34801561021357600080fd5b506102276102223660046118be565b6105e4565b6040805192151583526001600160a01b0390911660208301520161014c565b34801561025257600080fd5b506000546001600160a01b03161515610140565b34801561027257600080fd5b5061011e610281366004611911565b6105fe565b34801561029257600080fd5b5061011e6102a13660046119aa565b6106b5565b3480156102b257600080fd5b5061011e610919565b3480156102c757600080fd5b506000546102db906001600160a01b031681565b6040516001600160a01b03909116815260200161014c565b3480156102ff57600080fd5b506102db73f0b40c2277344f13e0de29327998ae2588eacf7c81565b34801561032757600080fd5b507f00000000000000000000000000000000000000000000000000000000000000006102db565b34801561035a57600080fd5b5061011e610369366004611a2c565b610987565b34801561037a57600080fd5b50610180610389366004611af8565b63bc197c8160e01b95945050505050565b3480156103a657600080fd5b5061011e6103b5366004611ba1565b6109d6565b3480156103c657600080fd5b506001546102db906001600160a01b031681565b3480156103e657600080fd5b506101f9610b33565b3480156103fb57600080fd5b5061018061040a366004611bbc565b63f23a6e6160e01b95945050505050565b34801561042757600080fd5b5061011e610436366004611ba1565b610bcc565b60006001600160e01b031982166301ffc9a760e01b148061046c57506001600160e01b031982166306608bdf60e21b145b8061048757506001600160e01b03198216630b135d3f60e11b145b806104a257506001600160e01b03198216630271189760e51b145b806104bd57506001600160e01b03198216630a85bd0160e11b145b92915050565b60006104cf8383610c8d565b6104e1576001600160e01b03196104ea565b630b135d3f60e11b5b9392505050565b6104f9610cbe565b8281146105215760405162461bcd60e51b815260040161051890611c20565b60405180910390fd5b60005b838110156105be576105b685858381811061054157610541611c4d565b90506020020160208101906105569190611ba1565b600085858581811061056a5761056a611c4d565b905060200281019061057c9190611c63565b8080601f016020809104026020016040519081016040528093929190818152602001838380828437600092019190915250610d4d92505050565b600101610524565b5050505050565b60006105cf610dbd565b6105d98484610e35565b90506104ea82610f8b565b6000806105f2858585610fd8565b91509150935093915050565b610606610cbe565b8481146106255760405162461bcd60e51b815260040161051890611c20565b8483146106445760405162461bcd60e51b815260040161051890611c20565b60005b858110156106ac576106a487878381811061066457610664611c4d565b90506020020160208101906106799190611ba1565b86868481811061068b5761068b611c4d565b9050602002013585858581811061056a5761056a611c4d565b600101610647565b50505050505050565b336001600160a01b037f000000000000000000000000000000000000000000000000000000000000000016146106fe5760405163e01ff8c160e01b815260040160405180910390fd5b8460a0013542111561072957604051631f4dca1560e21b815260a08601356004820152602401610518565b61073e6107396020870187611ba1565b6110d0565b156107dc576107506020860186611ba1565b604051623f675f60e91b81523060048201526001600160a01b039190911690637ecebe0090602401602060405180830381865afa9250505080156107b1575060408051601f3d908101601f191682019092526107ae91810190611ca9565b60015b156107dc57808660800135146107da57604051633ab3447f60e11b815260040160405180910390fd5b505b60006107e9868484610fd8565b5090508061080a57604051638baa579f60e01b815260040160405180910390fd5b600061081461114d565b9050610824816020890135611cc2565b47101561086a5760405162461bcd60e51b8152602060048201526014602482015273496e73756666696369656e742062616c616e636560601b6044820152606401610518565b6108bb61087a6020890189611ba1565b886020013588888080601f016020809104026020016040519081016040528093929190818152602001838380828437600092019190915250610d4d92505050565b6108e06108ce6080890160608a01611ba1565b6108db60208a018a611ba1565b61123b565b604080513391890135907f72738370a9f931ea41ea65184dac586185f4dc074e1d6d335d3c91867a302b9590600090a350505050505050565b3330146109395760405163a8a483ad60e01b815260040160405180910390fd5b600180546001600160a01b031981169091556040516001600160a01b039091169060009082907f305bf06329ff886b42ab3ed2979092b17d3a7fc67e7de42ee393a24c8e39fee7908390a350565b61098f610cbe565b6109d0848484848080601f016020809104026020016040519081016040528093929190818152602001838380828437600092019190915250610d4d92505050565b50505050565b60006109e061135a565b805490915060ff600160401b82041615906001600160401b0316600081158015610a075750825b90506000826001600160401b03166001148015610a235750303b155b905081158015610a31575080155b15610a4f5760405163f92ee8a960e01b815260040160405180910390fd5b845467ffffffffffffffff191660011785558315610a7957845460ff60401b1916600160401b1785555b600080546001600160a01b0319166001600160a01b03888116918217835560405191927f0000000000000000000000000000000000000000000000000000000000000000909116917fba01fcbdc5087aded62607d8957ca1979b4fbeff61ac99fa09dad141e5965d7f9190a38315610b2b57845460ff60401b19168555604051600181527fc7f505b2f371ae2175ee4913f4499e1f2633a7b5936321eed1cdaeb6115181d29060200160405180910390a15b505050505050565b60007f0000000000000000000000000000000000000000000000000000000000000000604051631aab3f0d60e11b8152306004820152600060248201526001600160a01b0391909116906335567e1a90604401602060405180830381865afa158015610ba3573d6000803e3d6000fd5b505050506040513d601f19601f82011682018060405250810190610bc79190611ca9565b905090565b333014610bec5760405163a8a483ad60e01b815260040160405180910390fd5b6001546001600160a01b03908116908216819003610c3c5760405162461bcd60e51b815260206004820152600d60248201526c53616d652064656c656761746560981b6044820152606401610518565b600180546001600160a01b0319166001600160a01b0384811691821790925560405190918316907f305bf06329ff886b42ab3ed2979092b17d3a7fc67e7de42ee393a24c8e39fee790600090a35050565b600080610c9984611383565b9050610ca581846113b6565b6000546001600160a01b03918216911614949350505050565b336001600160a01b037f0000000000000000000000000000000000000000000000000000000000000000161480610cff57506000546001600160a01b031633145b610d4b5760405162461bcd60e51b815260206004820181905260248201527f6163636f756e743a206e6f74204f776e6572206f7220456e747279506f696e746044820152606401610518565b565b600080846001600160a01b03168484604051610d699190611ce3565b60006040518083038185875af1925050503d8060008114610da6576040519150601f19603f3d011682016040523d82523d6000602084013e610dab565b606091505b5091509150816105be57805160208201fd5b336001600160a01b037f00000000000000000000000000000000000000000000000000000000000000001614610d4b5760405162461bcd60e51b815260206004820152601c60248201527f6163636f756e743a206e6f742066726f6d20456e747279506f696e74000000006044820152606401610518565b600080610e4183611383565b90506000610e93610e56610100870187611c63565b8080601f01602080910402602001604051908101604052809392919081815260200183838082843760009201919091525086939250506113b69050565b6001549091506001600160a01b031615610f15576001546001600160a01b0390811690821603610f0a576001546040518581526001600160a01b03909116907f2d27bd1200042fa25303e24cacd6892d9c8dacf3780736d24f22b1a9daccc6a79060200160405180910390a26000925050506104bd565b6001925050506104bd565b6000546001600160a01b031615801590610f3c57506000546001600160a01b038281169116145b15610f4c576000925050506104bd565b6000546001600160a01b0316158015610f6d57506001600160a01b03811630145b15610f7d576000925050506104bd565b506001949350505050565b50565b8015610f8857604051600090339060001990849084818181858888f193505050503d80600081146105be576040519150601f19603f3d011682016040523d82523d6000602084013e6105be565b60008080610fe96020870187611ba1565b6020870135604088013561100360808a0160608b01611ba1565b6040516bffffffffffffffffffffffff19606095861b811660208301526034820194909452605481019290925290921b1660748201526080870135608882015260a087013560a882015260c801604051602081830303815290604052805190602001209050600061107382611383565b90506110b786868080601f01602080910402602001604051908101604052809392919081815260200183838082843760009201919091525085939250506113b69050565b306001600160a01b038216149890975095505050505050565b604051623f675f60e91b8152600060048201819052906001600160a01b03831690637ecebe0090602401602060405180830381865afa925050508015611133575060408051601f3d908101601f1916820190925261113091810190611ca9565b60015b61113f57506000919050565b50600192915050565b919050565b60008073f0b40c2277344f13e0de29327998ae2588eacf7c9050806001600160a01b0316630b4501fd6040518163ffffffff1660e01b8152600401602060405180830381865afa1580156111a5573d6000803e3d6000fd5b505050506040513d601f19601f820116820180604052508101906111c99190611ca9565b816001600160a01b031663a753130c6040518163ffffffff1660e01b8152600401602060405180830381865afa158015611207573d6000803e3d6000fd5b505050506040513d601f19601f8201168201806040525081019061122b9190611ca9565b6112359190611cc2565b91505090565b600061124561114d565b90508047101561128b5760405162461bcd60e51b8152602060048201526011602482015270496e73756666696369656e74206665657360781b6044820152606401610518565b604051631cd5c1d960e01b81526001600160a01b0380851660048301528316602482015230604482015273f0b40c2277344f13e0de29327998ae2588eacf7c908190631cd5c1d99084906064016000604051808303818588803b1580156112f157600080fd5b505af1158015611305573d6000803e3d6000fd5b505060405185815273f0b40c2277344f13e0de29327998ae2588eacf7c93507f34e8a84e537ed93d93ddf39a78816dcbc74df8397c635838b8cc973d4fa943f89250602001905060405180910390a250505050565b6000807ff0c57e16840df040f15088dc2f81fe391c3923bec73e23a9662efc9c229c6a006104bd565b7f19457468657265756d205369676e6564204d6573736167653a0a3332000000006000908152601c91909152603c902090565b6000806000806113c686866113e0565b9250925092506113d6828261142d565b5090949350505050565b6000806000835160410361141a5760208401516040850151606086015160001a61140c888285856114ea565b955095509550505050611426565b50508151600091506002905b9250925092565b600082600381111561144157611441611d12565b0361144a575050565b600182600381111561145e5761145e611d12565b0361147c5760405163f645eedf60e01b815260040160405180910390fd5b600282600381111561149057611490611d12565b036114b15760405163fce698f760e01b815260048101829052602401610518565b60038260038111156114c5576114c5611d12565b036114e6576040516335e2f38360e21b815260048101829052602401610518565b5050565b600080807f7fffffffffffffffffffffffffffffff5d576e7357a4501ddfe92f46681b20a084111561152557506000915060039050826115af565b604080516000808252602082018084528a905260ff891692820192909252606081018790526080810186905260019060a0016020604051602081039080840390855afa158015611579573d6000803e3d6000fd5b5050604051601f1901519150506001600160a01b0381166115a5575060009250600191508290506115af565b9250600091508190505b9450945094915050565b6000602082840312156115cb57600080fd5b81356001600160e01b0319811681146104ea57600080fd5b80356001600160a01b038116811461114857600080fd5b634e487b7160e01b600052604160045260246000fd5b604051601f8201601f191681016001600160401b0381118282101715611638576116386115fa565b604052919050565b600082601f83011261165157600080fd5b81356001600160401b0381111561166a5761166a6115fa565b61167d601f8201601f1916602001611610565b81815284602083860101111561169257600080fd5b816020850160208301376000918101602001919091529392505050565b600080600080608085870312156116c557600080fd5b6116ce856115e3565b93506116dc602086016115e3565b92506040850135915060608501356001600160401b038111156116fe57600080fd5b61170a87828801611640565b91505092959194509250565b6000806040838503121561172957600080fd5b8235915060208301356001600160401b0381111561174657600080fd5b61175285828601611640565b9150509250929050565b60008083601f84011261176e57600080fd5b5081356001600160401b0381111561178557600080fd5b6020830191508360208260051b85010111156117a057600080fd5b9250929050565b600080600080604085870312156117bd57600080fd5b84356001600160401b03808211156117d457600080fd5b6117e08883890161175c565b909650945060208701359150808211156117f957600080fd5b506118068782880161175c565b95989497509550505050565b60008060006060848603121561182757600080fd5b83356001600160401b0381111561183d57600080fd5b8401610120818703121561185057600080fd5b95602085013595506040909401359392505050565b600060c0828403121561187757600080fd5b50919050565b60008083601f84011261188f57600080fd5b5081356001600160401b038111156118a657600080fd5b6020830191508360208285010111156117a057600080fd5b600080600060e084860312156118d357600080fd5b6118dd8585611865565b925060c08401356001600160401b038111156118f857600080fd5b6119048682870161187d565b9497909650939450505050565b6000806000806000806060878903121561192a57600080fd5b86356001600160401b038082111561194157600080fd5b61194d8a838b0161175c565b9098509650602089013591508082111561196657600080fd5b6119728a838b0161175c565b9096509450604089013591508082111561198b57600080fd5b5061199889828a0161175c565b979a9699509497509295939492505050565b600080600080600061010086880312156119c357600080fd5b6119cd8787611865565b945060c08601356001600160401b03808211156119e957600080fd5b6119f589838a0161187d565b909650945060e0880135915080821115611a0e57600080fd5b50611a1b8882890161187d565b969995985093965092949392505050565b60008060008060608587031215611a4257600080fd5b611a4b856115e3565b93506020850135925060408501356001600160401b03811115611a6d57600080fd5b6118068782880161187d565b600082601f830112611a8a57600080fd5b813560206001600160401b03821115611aa557611aa56115fa565b8160051b611ab4828201611610565b9283528481018201928281019087851115611ace57600080fd5b83870192505b84831015611aed57823582529183019190830190611ad4565b979650505050505050565b600080600080600060a08688031215611b1057600080fd5b611b19866115e3565b9450611b27602087016115e3565b935060408601356001600160401b0380821115611b4357600080fd5b611b4f89838a01611a79565b94506060880135915080821115611b6557600080fd5b611b7189838a01611a79565b93506080880135915080821115611b8757600080fd5b50611b9488828901611640565b9150509295509295909350565b600060208284031215611bb357600080fd5b6104ea826115e3565b600080600080600060a08688031215611bd457600080fd5b611bdd866115e3565b9450611beb602087016115e3565b9350604086013592506060860135915060808601356001600160401b03811115611c1457600080fd5b611b9488828901611640565b60208082526013908201527277726f6e67206172726179206c656e6774687360681b604082015260600190565b634e487b7160e01b600052603260045260246000fd5b6000808335601e19843603018112611c7a57600080fd5b8301803591506001600160401b03821115611c9457600080fd5b6020019150368190038213156117a057600080fd5b600060208284031215611cbb57600080fd5b5051919050565b808201808211156104bd57634e487b7160e01b600052601160045260246000fd5b6000825160005b81811015611d045760208186018101518583015201611cea565b506000920191825250919050565b634e487b7160e01b600052602160045260246000fdfea26469706673582212201f2abdc9b33a7831783612340d18849c4721fa7ca9c2ed6d1beb92cf61131df564736f6c63430008170033","linkReferences":{}},"methodIdentifiers":{"VaultAddress()":"a2a4a788","delegate()":"c89e4361","entryPoint()":"b0d691fe","execute((address,uint256,bytes32,address,uint256,uint256),bytes,bytes)":"528f9cc0","execute(address,uint256,bytes)":"b61d27f6","executeBatch(address[],bytes[])":"18dfb3c7","executeBatch(address[],uint256[],bytes[])":"47e1da2a","getNonce()":"d087d288","initialize(address)":"c4d66de8","isInitialized()":"392e53cd","isValidSignature(bytes32,bytes)":"1626ba7e","onERC1155BatchReceived(address,address,uint256[],uint256[],bytes)":"bc197c81","onERC1155Received(address,address,uint256,uint256,bytes)":"f23a6e61","onERC721Received(address,address,uint256,bytes)":"150b7a02","owner()":"8da5cb5b","revokeDelegate()":"55d1ef38","supportsInterface(bytes4)":"01ffc9a7","updateDelegate(address)":"fe3f9b0e","validateIntentSignature((address,uint256,bytes32,address,uint256,uint256),bytes)":"2d12c06b","validateUserOp((address,uint256,bytes,bytes,bytes32,uint256,bytes32,bytes,bytes),bytes32,uint256)":"19822f7c"},"id":40}