{"abi":[{"type":"constructor","inputs":[{"name":"_entryPoint","type":"address","internalType":"contract IEntryPoint"}],"stateMutability":"nonpayable"},{"type":"receive","stateMutability":"payable"},{"type":"function","name":"UPGRADE_INTERFACE_VERSION","inputs":[],"outputs":[{"name":"","type":"string","internalType":"string"}],"stateMutability":"view"},{"type":"function","name":"_decodePurchaseTokens","inputs":[{"name":"data","type":"bytes","internalType":"bytes"}],"outputs":[{"name":"sponsorship","type":"bool","internalType":"bool"}],"stateMutability":"pure"},{"type":"function","name":"_decodeSubmitPropertyAnalysis","inputs":[{"name":"data","type":"bytes","internalType":"bytes"}],"outputs":[{"name":"sponsorship","type":"bool","internalType":"bool"}],"stateMutability":"pure"},{"type":"function","name":"addDeposit","inputs":[],"outputs":[],"stateMutability":"payable"},{"type":"function","name":"batchUpdateDestinationWhitelist","inputs":[{"name":"destinations","type":"address[]","internalType":"address[]"},{"name":"whitelisted","type":"bool[]","internalType":"bool[]"}],"outputs":[],"stateMutability":"nonpayable"},{"type":"function","name":"delegate","inputs":[],"outputs":[{"name":"","type":"address","internalType":"address"}],"stateMutability":"view"},{"type":"function","name":"entryPoint","inputs":[],"outputs":[{"name":"","type":"address","internalType":"contract IEntryPoint"}],"stateMutability":"view"},{"type":"function","name":"execute","inputs":[{"name":"dest","type":"address","internalType":"address"},{"name":"value","type":"uint256","internalType":"uint256"},{"name":"func","type":"bytes","internalType":"bytes"}],"outputs":[],"stateMutability":"nonpayable"},{"type":"function","name":"execute","inputs":[{"name":"dest","type":"address","internalType":"address"},{"name":"value","type":"uint256","internalType":"uint256"},{"name":"func","type":"bytes","internalType":"bytes"},{"name":"feeUsdcAmount","type":"uint256","internalType":"uint256"},{"name":"usdcPerEth","type":"uint256","internalType":"uint256"}],"outputs":[],"stateMutability":"nonpayable"},{"type":"function","name":"executeBatch","inputs":[{"name":"dest","type":"address[]","internalType":"address[]"},{"name":"value","type":"uint256[]","internalType":"uint256[]"},{"name":"func","type":"bytes[]","internalType":"bytes[]"}],"outputs":[],"stateMutability":"nonpayable"},{"type":"function","name":"executeBatch","inputs":[{"name":"dest","type":"address[]","internalType":"address[]"},{"name":"func","type":"bytes[]","internalType":"bytes[]"},{"name":"feeUsdcAmount","type":"uint256","internalType":"uint256"},{"name":"usdcPerEth","type":"uint256","internalType":"uint256"}],"outputs":[],"stateMutability":"nonpayable"},{"type":"function","name":"feeRecipient","inputs":[],"outputs":[{"name":"","type":"address","internalType":"address"}],"stateMutability":"view"},{"type":"function","name":"getDeposit","inputs":[],"outputs":[{"name":"","type":"uint256","internalType":"uint256"}],"stateMutability":"view"},{"type":"function","name":"getFeeParameters","inputs":[],"outputs":[{"name":"minFee","type":"uint256","internalType":"uint256"},{"name":"maxFee","type":"uint256","internalType":"uint256"},{"name":"hardCap","type":"uint256","internalType":"uint256"}],"stateMutability":"view"},{"type":"function","name":"getNonce","inputs":[],"outputs":[{"name":"","type":"uint256","internalType":"uint256"}],"stateMutability":"view"},{"type":"function","name":"hardFeeCap","inputs":[],"outputs":[{"name":"","type":"uint256","internalType":"uint256"}],"stateMutability":"view"},{"type":"function","name":"initialize","inputs":[{"name":"_owner","type":"address","internalType":"address"},{"name":"_delegate","type":"address","internalType":"address"},{"name":"_feeRecipient","type":"address","internalType":"address"},{"name":"_minExchangeRate","type":"uint256","internalType":"uint256"},{"name":"_maxExchangeRate","type":"uint256","internalType":"uint256"},{"name":"_minRequiredFee","type":"uint256","internalType":"uint256"},{"name":"_maxFeePerTransaction","type":"uint256","internalType":"uint256"}],"outputs":[],"stateMutability":"nonpayable"},{"type":"function","name":"initialize","inputs":[{"name":"anOwner","type":"address","internalType":"address"}],"outputs":[],"stateMutability":"nonpayable"},{"type":"function","name":"initializeWithConfig","inputs":[{"name":"config","type":"tuple","internalType":"struct DelegatedProxyAccount.AccountConfig","components":[{"name":"owner","type":"address","internalType":"address"},{"name":"delegate","type":"address","internalType":"address"},{"name":"feeRecipient","type":"address","internalType":"address"},{"name":"minExchangeRate","type":"uint256","internalType":"uint256"},{"name":"maxExchangeRate","type":"uint256","internalType":"uint256"},{"name":"minRequiredFee","type":"uint256","internalType":"uint256"},{"name":"maxFeePerTransaction","type":"uint256","internalType":"uint256"},{"name":"initialDestinations","type":"address[]","internalType":"address[]"},{"name":"destinationStatuses","type":"bool[]","internalType":"bool[]"}]}],"outputs":[],"stateMutability":"nonpayable"},{"type":"function","name":"isDestinationWhitelisted","inputs":[{"name":"destination","type":"address","internalType":"address"}],"outputs":[{"name":"whitelisted","type":"bool","internalType":"bool"}],"stateMutability":"view"},{"type":"function","name":"isWhitelistedDestination","inputs":[{"name":"","type":"address","internalType":"address"}],"outputs":[{"name":"","type":"bool","internalType":"bool"}],"stateMutability":"view"},{"type":"function","name":"maxExchangeRate","inputs":[],"outputs":[{"name":"","type":"uint256","internalType":"uint256"}],"stateMutability":"view"},{"type":"function","name":"maxFeePerTransaction","inputs":[],"outputs":[{"name":"","type":"uint256","internalType":"uint256"}],"stateMutability":"view"},{"type":"function","name":"minExchangeRate","inputs":[],"outputs":[{"name":"","type":"uint256","internalType":"uint256"}],"stateMutability":"view"},{"type":"function","name":"minRequiredFee","inputs":[],"outputs":[{"name":"","type":"uint256","internalType":"uint256"}],"stateMutability":"view"},{"type":"function","name":"onERC1155BatchReceived","inputs":[{"name":"","type":"address","internalType":"address"},{"name":"","type":"address","internalType":"address"},{"name":"","type":"uint256[]","internalType":"uint256[]"},{"name":"","type":"uint256[]","internalType":"uint256[]"},{"name":"","type":"bytes","internalType":"bytes"}],"outputs":[{"name":"","type":"bytes4","internalType":"bytes4"}],"stateMutability":"pure"},{"type":"function","name":"onERC1155Received","inputs":[{"name":"","type":"address","internalType":"address"},{"name":"","type":"address","internalType":"address"},{"name":"","type":"uint256","internalType":"uint256"},{"name":"","type":"uint256","internalType":"uint256"},{"name":"","type":"bytes","internalType":"bytes"}],"outputs":[{"name":"","type":"bytes4","internalType":"bytes4"}],"stateMutability":"pure"},{"type":"function","name":"onERC721Received","inputs":[{"name":"","type":"address","internalType":"address"},{"name":"","type":"address","internalType":"address"},{"name":"","type":"uint256","internalType":"uint256"},{"name":"","type":"bytes","internalType":"bytes"}],"outputs":[{"name":"","type":"bytes4","internalType":"bytes4"}],"stateMutability":"pure"},{"type":"function","name":"owner","inputs":[],"outputs":[{"name":"","type":"address","internalType":"address"}],"stateMutability":"view"},{"type":"function","name":"proxiableUUID","inputs":[],"outputs":[{"name":"","type":"bytes32","internalType":"bytes32"}],"stateMutability":"view"},{"type":"function","name":"supportsInterface","inputs":[{"name":"interfaceId","type":"bytes4","internalType":"bytes4"}],"outputs":[{"name":"","type":"bool","internalType":"bool"}],"stateMutability":"view"},{"type":"function","name":"updateDestinationWhitelist","inputs":[{"name":"destination","type":"address","internalType":"address"},{"name":"whitelisted","type":"bool","internalType":"bool"}],"outputs":[],"stateMutability":"nonpayable"},{"type":"function","name":"updateHardFeeCap","inputs":[{"name":"_hardCap","type":"uint256","internalType":"uint256"}],"outputs":[],"stateMutability":"nonpayable"},{"type":"function","name":"updateMaxExchangeRate","inputs":[{"name":"_maxRate","type":"uint256","internalType":"uint256"}],"outputs":[],"stateMutability":"nonpayable"},{"type":"function","name":"updateMaxFee","inputs":[{"name":"_maxFee","type":"uint256","internalType":"uint256"}],"outputs":[],"stateMutability":"nonpayable"},{"type":"function","name":"updateMinExchangeRate","inputs":[{"name":"_minRate","type":"uint256","internalType":"uint256"}],"outputs":[],"stateMutability":"nonpayable"},{"type":"function","name":"updateMinFee","inputs":[{"name":"_minFee","type":"uint256","internalType":"uint256"}],"outputs":[],"stateMutability":"nonpayable"},{"type":"function","name":"upgradeToAndCall","inputs":[{"name":"newImplementation","type":"address","internalType":"address"},{"name":"data","type":"bytes","internalType":"bytes"}],"outputs":[],"stateMutability":"payable"},{"type":"function","name":"validateUserOp","inputs":[{"name":"userOp","type":"tuple","internalType":"struct PackedUserOperation","components":[{"name":"sender","type":"address","internalType":"address"},{"name":"nonce","type":"uint256","internalType":"uint256"},{"name":"initCode","type":"bytes","internalType":"bytes"},{"name":"callData","type":"bytes","internalType":"bytes"},{"name":"accountGasLimits","type":"bytes32","internalType":"bytes32"},{"name":"preVerificationGas","type":"uint256","internalType":"uint256"},{"name":"gasFees","type":"bytes32","internalType":"bytes32"},{"name":"paymasterAndData","type":"bytes","internalType":"bytes"},{"name":"signature","type":"bytes","internalType":"bytes"}]},{"name":"userOpHash","type":"bytes32","internalType":"bytes32"},{"name":"missingAccountFunds","type":"uint256","internalType":"uint256"}],"outputs":[{"name":"validationData","type":"uint256","internalType":"uint256"}],"stateMutability":"nonpayable"},{"type":"function","name":"withdrawDepositTo","inputs":[{"name":"withdrawAddress","type":"address","internalType":"address payable"},{"name":"amount","type":"uint256","internalType":"uint256"}],"outputs":[],"stateMutability":"nonpayable"},{"type":"event","name":"DelegateUsed","inputs":[{"name":"delegate","type":"address","indexed":true,"internalType":"address"},{"name":"userOpHash","type":"bytes32","indexed":false,"internalType":"bytes32"}],"anonymous":false},{"type":"event","name":"DestinationWhitelistUpdated","inputs":[{"name":"destination","type":"address","indexed":true,"internalType":"address"},{"name":"whitelisted","type":"bool","indexed":false,"internalType":"bool"}],"anonymous":false},{"type":"event","name":"FeeCalculated","inputs":[{"name":"sender","type":"address","indexed":true,"internalType":"address"},{"name":"destination","type":"address","indexed":true,"internalType":"address"},{"name":"feeBreakdown","type":"tuple","indexed":false,"internalType":"struct DelegatedProxyAccount.FeeBreakdown","components":[{"name":"protocolFee","type":"uint256","internalType":"uint256"},{"name":"executionFees","type":"tuple[]","internalType":"struct DelegatedProxyAccount.ExecutionFee[]","components":[{"name":"id","type":"bytes32","internalType":"bytes32"},{"name":"fee","type":"uint256","internalType":"uint256"}]},{"name":"platformFee","type":"uint256","internalType":"uint256"},{"name":"reserved1","type":"uint256","internalType":"uint256"},{"name":"reserved2","type":"uint256","internalType":"uint256"},{"name":"reserved3","type":"uint256","internalType":"uint256"},{"name":"totalFee","type":"uint256","internalType":"uint256"}]}],"anonymous":false},{"type":"event","name":"FeeSponsored","inputs":[{"name":"sender","type":"address","indexed":true,"internalType":"address"},{"name":"destination","type":"address","indexed":true,"internalType":"address"},{"name":"sponsoredFees","type":"tuple","indexed":false,"internalType":"struct DelegatedProxyAccount.FeeBreakdown","components":[{"name":"protocolFee","type":"uint256","internalType":"uint256"},{"name":"executionFees","type":"tuple[]","internalType":"struct DelegatedProxyAccount.ExecutionFee[]","components":[{"name":"id","type":"bytes32","internalType":"bytes32"},{"name":"fee","type":"uint256","internalType":"uint256"}]},{"name":"platformFee","type":"uint256","internalType":"uint256"},{"name":"reserved1","type":"uint256","internalType":"uint256"},{"name":"reserved2","type":"uint256","internalType":"uint256"},{"name":"reserved3","type":"uint256","internalType":"uint256"},{"name":"totalFee","type":"uint256","internalType":"uint256"}]}],"anonymous":false},{"type":"event","name":"FeeSponsoredByMasterKey","inputs":[{"name":"feeRecipient","type":"address","indexed":true,"internalType":"address"},{"name":"feeAmount","type":"uint256","indexed":false,"internalType":"uint256"}],"anonymous":false},{"type":"event","name":"FeeTransferred","inputs":[{"name":"recipient","type":"address","indexed":true,"internalType":"address"},{"name":"amount","type":"uint256","indexed":false,"internalType":"uint256"}],"anonymous":false},{"type":"event","name":"Initialized","inputs":[{"name":"version","type":"uint64","indexed":false,"internalType":"uint64"}],"anonymous":false},{"type":"event","name":"MaxFeeUpdated","inputs":[{"name":"maxFee","type":"uint256","indexed":false,"internalType":"uint256"},{"name":"updatedBy","type":"address","indexed":true,"internalType":"address"}],"anonymous":false},{"type":"event","name":"MinFeeUpdated","inputs":[{"name":"minFee","type":"uint256","indexed":false,"internalType":"uint256"},{"name":"updatedBy","type":"address","indexed":true,"internalType":"address"}],"anonymous":false},{"type":"event","name":"SimpleAccountInitialized","inputs":[{"name":"entryPoint","type":"address","indexed":true,"internalType":"contract IEntryPoint"},{"name":"owner","type":"address","indexed":true,"internalType":"address"}],"anonymous":false},{"type":"event","name":"Upgraded","inputs":[{"name":"implementation","type":"address","indexed":true,"internalType":"address"}],"anonymous":false},{"type":"error","name":"AddressEmptyCode","inputs":[{"name":"target","type":"address","internalType":"address"}]},{"type":"error","name":"DestinationNotWhitelisted","inputs":[{"name":"destination","type":"address","internalType":"address"}]},{"type":"error","name":"ECDSAInvalidSignature","inputs":[]},{"type":"error","name":"ECDSAInvalidSignatureLength","inputs":[{"name":"length","type":"uint256","internalType":"uint256"}]},{"type":"error","name":"ECDSAInvalidSignatureS","inputs":[{"name":"s","type":"bytes32","internalType":"bytes32"}]},{"type":"error","name":"ERC1967InvalidImplementation","inputs":[{"name":"implementation","type":"address","internalType":"address"}]},{"type":"error","name":"ERC1967NonPayable","inputs":[]},{"type":"error","name":"FailedCall","inputs":[]},{"type":"error","name":"FeeTooHigh","inputs":[{"name":"provided","type":"uint256","internalType":"uint256"},{"name":"maximum","type":"uint256","internalType":"uint256"}]},{"type":"error","name":"FeeTooLow","inputs":[{"name":"provided","type":"uint256","internalType":"uint256"},{"name":"required","type":"uint256","internalType":"uint256"}]},{"type":"error","name":"HardCapTooLow","inputs":[{"name":"hardCap","type":"uint256","internalType":"uint256"}]},{"type":"error","name":"InvalidExchangeRate","inputs":[{"name":"rate","type":"uint256","internalType":"uint256"}]},{"type":"error","name":"InvalidInitialization","inputs":[]},{"type":"error","name":"MaxFeeBelowMinFee","inputs":[{"name":"maxFee","type":"uint256","internalType":"uint256"},{"name":"minFee","type":"uint256","internalType":"uint256"}]},{"type":"error","name":"MaxFeeExceedsHardCap","inputs":[{"name":"maxFee","type":"uint256","internalType":"uint256"},{"name":"hardCap","type":"uint256","internalType":"uint256"}]},{"type":"error","name":"MinFeeExceedsMaxFee","inputs":[{"name":"minFee","type":"uint256","internalType":"uint256"},{"name":"maxFee","type":"uint256","internalType":"uint256"}]},{"type":"error","name":"NotInitializing","inputs":[]},{"type":"error","name":"OnlyDelegateFunction","inputs":[]},{"type":"error","name":"OnlyEntryPointAllowed","inputs":[]},{"type":"error","name":"OnlyOwnerFunction","inputs":[]},{"type":"error","name":"UUPSUnauthorizedCallContext","inputs":[]},{"type":"error","name":"UUPSUnsupportedProxiableUUID","inputs":[{"name":"slot","type":"bytes32","internalType":"bytes32"}]}],"bytecode":{"object":"0x60c0604052306080523480156200001557600080fd5b50604051620041903803806200419083398101604081905262000038916200010c565b6001600160a01b03811660a052806200005062000058565b50506200013e565b7ff0c57e16840df040f15088dc2f81fe391c3923bec73e23a9662efc9c229c6a00805468010000000000000000900460ff1615620000a95760405163f92ee8a960e01b815260040160405180910390fd5b80546001600160401b0390811614620001095780546001600160401b0319166001600160401b0390811782556040519081527fc7f505b2f371ae2175ee4913f4499e1f2633a7b5936321eed1cdaeb6115181d29060200160405180910390a15b50565b6000602082840312156200011f57600080fd5b81516001600160a01b03811681146200013757600080fd5b9392505050565b60805160a051613fdf620001b16000396000818161059301528181610c3801528181610cc001528181610f61015281816116a10152818161188401528181611e21015281816122870152818161246401526128420152600081816125b2015281816125db01526127210152613fdf6000f3fe60806040526004361061023f5760003560e01c80638da5cb5b1161012e578063c89e4361116100ab578063e39fbbc91161006f578063e39fbbc9146106e6578063e90c874314610716578063ef7b1f6214610736578063f0299dd814610756578063f23a6e611461078f57600080fd5b8063c89e43611461065b578063d05144fc1461067b578063d087d2881461069b578063d091ed47146106b0578063d16f3a20146106c657600080fd5b8063b61d27f6116100f2578063b61d27f6146105b7578063bc197c81146105d7578063bdaf043414610606578063c399ec8814610626578063c4d66de81461063b57600080fd5b80638da5cb5b146104e6578063962354ee14610506578063ad3cb1cc14610526578063ad5c29f014610564578063b0d691fe1461058457600080fd5b806347e1da2a116101bc5780634f1ef286116101805780634f1ef2861461046857806352d1902d1461047b578063550dddeb146104905780635cc3b645146104b057806383728d2b146104d057600080fd5b806347e1da2a146103ea5780634867ef4f1461040a5780634a58db191461042a5780634d44560d146104325780634dcdfba51461045257600080fd5b80632b4656c8116102035780632b4656c81461032957806330eb237f1461034b5780633f1b112a1461036b57806346904840146103815780634722b4a5146103b957600080fd5b806301ffc9a71461024b5780630c36b26f14610280578063150b7a02146102a457806319822f7c146102e957806319eee9131461030957600080fd5b3661024657005b600080fd5b34801561025757600080fd5b5061026b61026636600461316e565b6107bc565b60405190151581526020015b60405180910390f35b34801561028c57600080fd5b5061029660035481565b604051908152602001610277565b3480156102b057600080fd5b506102d06102bf3660046131f5565b630a85bd0160e11b95945050505050565b6040516001600160e01b03199091168152602001610277565b3480156102f557600080fd5b50610296610304366004613280565b61080e565b34801561031557600080fd5b5061026b6103243660046132cd565b610834565b34801561033557600080fd5b5061034961034436600461330e565b610850565b005b34801561035757600080fd5b5061026b6103663660046132cd565b610a06565b34801561037757600080fd5b5061029660045481565b34801561038d57600080fd5b506002546103a1906001600160a01b031681565b6040516001600160a01b039091168152602001610277565b3480156103c557600080fd5b5060035460045460055460408051938452602084019290925290820152606001610277565b3480156103f657600080fd5b506103496104053660046133c0565b610a21565b34801561041657600080fd5b50610349610425366004613459565b610b9f565b610349610c36565b34801561043e57600080fd5b5061034961044d366004613472565b610cb6565b34801561045e57600080fd5b5061029660055481565b61034961047636600461359d565b610d3f565b34801561048757600080fd5b50610296610d5e565b34801561049c57600080fd5b506103496104ab366004613459565b610d7b565b3480156104bc57600080fd5b506103496104cb36600461360a565b610e3f565b3480156104dc57600080fd5b5061029660075481565b3480156104f257600080fd5b506000546103a1906001600160a01b031681565b34801561051257600080fd5b50610349610521366004613459565b610ec9565b34801561053257600080fd5b50610557604051806040016040528060058152602001640352e302e360dc1b81525081565b6040516102779190613667565b34801561057057600080fd5b5061034961057f36600461369a565b610f56565b34801561059057600080fd5b507f00000000000000000000000000000000000000000000000000000000000000006103a1565b3480156105c357600080fd5b506103496105d2366004613717565b61151f565b3480156105e357600080fd5b506102d06105f2366004613772565b63bc197c8160e01b98975050505050505050565b34801561061257600080fd5b50610349610621366004613459565b61156e565b34801561063257600080fd5b50610296611681565b34801561064757600080fd5b50610349610656366004613830565b611712565b34801561066757600080fd5b506001546103a1906001600160a01b031681565b34801561068757600080fd5b50610349610696366004613459565b61180c565b3480156106a757600080fd5b5061029661185d565b3480156106bc57600080fd5b5061029660065481565b3480156106d257600080fd5b506103496106e136600461384d565b6118b3565b3480156106f257600080fd5b5061026b610701366004613830565b60086020526000908152604090205460ff1681565b34801561072257600080fd5b506103496107313660046138ac565b611a3d565b34801561074257600080fd5b506103496107513660046138e8565b611e16565b34801561076257600080fd5b5061026b610771366004613830565b6001600160a01b031660009081526008602052604090205460ff1690565b34801561079b57600080fd5b506102d06107aa366004613955565b63f23a6e6160e01b9695505050505050565b60006001600160e01b03198216630a85bd0160e11b14806107ed57506001600160e01b03198216630271189760e51b145b8061080857506001600160e01b031982166301ffc9a760e01b145b92915050565b600061081861227c565b61082284846122f6565b905061082d826123e3565b9392505050565b60008061084383850185613b83565b5060a00151949350505050565b600061085a612430565b805490915060ff600160401b82041615906001600160401b03166000811580156108815750825b90506000826001600160401b0316600114801561089d5750303b155b9050811580156108ab575080155b156108c95760405163f92ee8a960e01b815260040160405180910390fd5b845467ffffffffffffffff1916600117855583156108f357845460ff60401b1916600160401b1785555b88881161091b5760405162461bcd60e51b815260040161091290613bc7565b60405180910390fd5b6298968086111561093e5760405162461bcd60e51b815260040161091290613c0d565b8587111561095e5760405162461bcd60e51b815260040161091290613c53565b6109678c611712565b600180546001600160a01b03808e166001600160a01b03199283161790925560028054928d169290911691909117905560038790556004869055600689905560078890556298968060055583156109f857845460ff60401b19168555604051600181527fc7f505b2f371ae2175ee4913f4499e1f2633a7b5936321eed1cdaeb6115181d29060200160405180910390a15b505050505050505050505050565b600080610a1583850185613ca0565b60a00151949350505050565b610a29612459565b8481148015610a3f5750821580610a3f57508281145b610a815760405162461bcd60e51b815260206004820152601360248201527277726f6e67206172726179206c656e6774687360681b6044820152606401610912565b6000839003610b2d5760005b85811015610b2757610b1f878783818110610aaa57610aaa613cd4565b9050602002016020810190610abf9190613830565b6000858585818110610ad357610ad3613cd4565b9050602002810190610ae59190613cea565b8080601f0160208091040260200160405190810160405280939291908181526020018383808284376000920191909152506124e692505050565b600101610a8d565b50610b97565b60005b85811015610b9557610b8d878783818110610b4d57610b4d613cd4565b9050602002016020810190610b629190613830565b868684818110610b7457610b74613cd4565b90506020020135858585818110610ad357610ad3613cd4565b600101610b30565b505b505050505050565b6001546001600160a01b03163314610bca5760405163e70f27d560e01b815260040160405180910390fd5b600454811115610bf85760048054604051637340932b60e01b81529182018390526024820152604401610912565b600381905560405181815233907f8629ef333da3b54add5d604342ba8ff48e707e2bd11a757011a025187538048b906020015b60405180910390a250565b7f000000000000000000000000000000000000000000000000000000000000000060405163b760faf960e01b81523060048201526001600160a01b03919091169063b760faf99034906024016000604051808303818588803b158015610c9b57600080fd5b505af1158015610caf573d6000803e3d6000fd5b5050505050565b610cbe612556565b7f000000000000000000000000000000000000000000000000000000000000000060405163040b850f60e31b81526001600160a01b03848116600483015260248201849052919091169063205c287890604401600060405180830381600087803b158015610d2b57600080fd5b505af1158015610b97573d6000803e3d6000fd5b610d476125a7565b610d508261264c565b610d5a8282612654565b5050565b6000610d68612716565b50600080516020613f8a83398151915290565b6001546001600160a01b03163314610da65760405163e70f27d560e01b815260040160405180910390fd5b600554811115610dd75760055460405163e131fedf60e01b8152610912918391600401918252602082015260400190565b600354811015610e0857600354604051636b029b6f60e11b8152610912918391600401918252602082015260400190565b600481905560405181815233907f99e8f61f567d2cee8755540b893931e3ade09dfb0a8f9be1a90ad44fad710e8290602001610c2b565b6001546001600160a01b03163314610e6a5760405163e70f27d560e01b815260040160405180910390fd5b6001600160a01b038216600081815260086020908152604091829020805460ff191685151590811790915591519182527ff12936333d9bd80e8fa690cb7cab64b6a55cd75a267918d8668fb15c807aadb9910160405180910390a25050565b6000546001600160a01b03163314610ef45760405163a8a483ad60e01b815260040160405180910390fd5b6007548110610f515760405162461bcd60e51b815260206004820152602360248201527f4d696e2072617465206d757374206265206c657373207468616e206d6178207260448201526261746560e81b6064820152608401610912565b600655565b336001600160a01b037f00000000000000000000000000000000000000000000000000000000000000001614610f9f5760405163e01ff8c160e01b815260040160405180910390fd5b848314610fe45760405162461bcd60e51b815260206004820152601360248201527277726f6e67206172726179206c656e6774687360681b6044820152606401610912565b600354821015611015576003546040516378279ed960e11b8152610912918491600401918252602082015260400190565b60045482111561104357600480546040516373ab893560e11b81529182018490526024820152604401610912565b600654811080611054575060075481115b156110755760405163d8d9aee760e01b815260048101829052602401610912565b600554829081111561108657506005545b60008261109b83670de0b6b3a7640000613d46565b6110a59190613d5d565b905060005b8781101561115257600860008a8a848181106110c8576110c8613cd4565b90506020020160208101906110dd9190613830565b6001600160a01b0316815260208101919091526040016000205460ff1661114a5788888281811061111057611110613cd4565b90506020020160208101906111259190613830565b60405163016241a960e31b81526001600160a01b039091166004820152602401610912565b6001016110aa565b50804710156111a35760405162461bcd60e51b815260206004820181905260248201527f496e73756666696369656e74204554482062616c616e636520666f72206665656044820152606401610912565b84156112535760006111d9878760008181106111c1576111c1613cd4565b90506020028101906111d39190613cea565b8461275f565b9050888860008181106111ee576111ee613cd4565b90506020020160208101906112039190613830565b6001600160a01b0316336001600160a01b03167fe43ea144cbbf6de550ac149ab576cfebdbfab1507ca6fd97bd2c5dcd156283a7836040516112459190613d7f565b60405180910390a3506113c3565b6112936040518060e00160405280600081526020016060815260200160008152602001600081526020016000815260200160008152602001600081525090565b60646112a083601e613d46565b6112aa9190613d5d565b815260646112b9836014613d46565b6112c39190613d5d565b6040828101919091528051600180825281830190925290816020015b60408051808201909152600080825260208201528152602001906001900390816112df57905050816020018190525060405180604001604052807f344cb0f1327234954b4cc85254786a28089870ca788cad991ea9dddaa7c23a418152602001606484603261134e9190613d46565b6113589190613d5d565b815250816020015160008151811061137257611372613cd4565b602090810291909101015260c0810182905260405160009033907fe43ea144cbbf6de550ac149ab576cfebdbfab1507ca6fd97bd2c5dcd156283a7906113b9908590613d7f565b60405180910390a3505b6000811180156113dd57506002546001600160a01b031615155b156114c3576002546040516000916001600160a01b03169083908381818185875af1925050503d806000811461142f576040519150601f19603f3d011682016040523d82523d6000602084013e611434565b606091505b505090508061147f5760405162461bcd60e51b815260206004820152601760248201527611551208199959481d1c985b9cd9995c8819985a5b1959604a1b6044820152606401610912565b6002546040518381526001600160a01b03909116907f34e8a84e537ed93d93ddf39a78816dcbc74df8397c635838b8cc973d4fa943f89060200160405180910390a2505b60005b878110156115145761150c8989838181106114e3576114e3613cd4565b90506020020160208101906114f89190613830565b6000898985818110610ad357610ad3613cd4565b6001016114c6565b505050505050505050565b611527612459565b611568848484848080601f0160208091040260200160405190810160405280939291908181526020018383808284376000920191909152506124e692505050565b50505050565b6000546001600160a01b031633146115995760405163a8a483ad60e01b815260040160405180910390fd5b600081116115f45760405162461bcd60e51b815260206004820152602260248201527f4861726420636170206d7573742062652067726561746572207468616e207a65604482015261726f60f01b6064820152608401610912565b600581905560045481101561167e57600481905560405181815233907f99e8f61f567d2cee8755540b893931e3ade09dfb0a8f9be1a90ad44fad710e829060200160405180910390a280600354111561167e57600381905560405181815233907f8629ef333da3b54add5d604342ba8ff48e707e2bd11a757011a025187538048b90602001610c2b565b50565b6040516370a0823160e01b81523060048201526000906001600160a01b037f000000000000000000000000000000000000000000000000000000000000000016906370a08231906024015b602060405180830381865afa1580156116e9573d6000803e3d6000fd5b505050506040513d601f19601f8201168201806040525081019061170d9190613e1f565b905090565b600061171c612430565b805490915060ff600160401b82041615906001600160401b03166000811580156117435750825b90506000826001600160401b0316600114801561175f5750303b155b90508115801561176d575080155b1561178b5760405163f92ee8a960e01b815260040160405180910390fd5b845467ffffffffffffffff1916600117855583156117b557845460ff60401b1916600160401b1785555b6117be8661281d565b8315610b9757845460ff60401b19168555604051600181527fc7f505b2f371ae2175ee4913f4499e1f2633a7b5936321eed1cdaeb6115181d2906020015b60405180910390a1505050505050565b6000546001600160a01b031633146118375760405163a8a483ad60e01b815260040160405180910390fd5b60065481116118585760405162461bcd60e51b815260040161091290613bc7565b600755565b604051631aab3f0d60e11b8152306004820152600060248201819052906001600160a01b037f000000000000000000000000000000000000000000000000000000000000000016906335567e1a906044016116cc565b6001546001600160a01b031633146118de5760405163e70f27d560e01b815260040160405180910390fd5b8281146119255760405162461bcd60e51b8152602060048201526015602482015274082e4e4c2f240d8cadccee8d040dad2e6dac2e8c6d605b1b6044820152606401610912565b60005b83811015610caf5782828281811061194257611942613cd4565b90506020020160208101906119579190613e38565b6008600087878581811061196d5761196d613cd4565b90506020020160208101906119829190613830565b6001600160a01b031681526020810191909152604001600020805460ff19169115159190911790558484828181106119bc576119bc613cd4565b90506020020160208101906119d19190613830565b6001600160a01b03167ff12936333d9bd80e8fa690cb7cab64b6a55cd75a267918d8668fb15c807aadb9848484818110611a0d57611a0d613cd4565b9050602002016020810190611a229190613e38565b604051901515815260200160405180910390a2600101611928565b6000611a47612430565b805490915060ff600160401b82041615906001600160401b0316600081158015611a6e5750825b90506000826001600160401b03166001148015611a8a5750303b155b905081158015611a98575080155b15611ab65760405163f92ee8a960e01b815260040160405180910390fd5b845467ffffffffffffffff191660011785558315611ae057845460ff60401b1916600160401b1785555b8560600135866080013511611b075760405162461bcd60e51b815260040161091290613bc7565b629896808660c001351115611b2e5760405162461bcd60e51b815260040161091290613c0d565b8560c001358660a001351115611b565760405162461bcd60e51b815260040161091290613c53565b611b64610100870187613e55565b9050611b7360e0880188613e55565b905014611be85760405162461bcd60e51b815260206004820152603760248201527f44657374696e6174696f6e7320616e642073746174757365732061727261797360448201527f206d757374206861766520657175616c206c656e6774680000000000000000006064820152608401610912565b611bf86106566020880188613830565b611c086040870160208801613830565b600180546001600160a01b0319166001600160a01b0392909216919091179055611c386060870160408801613830565b600280546001600160a01b0319166001600160a01b039290921691909117905560a086013560035560c0860135600455606086013560065560808601356007556298968060055560005b611c8f60e0880188613e55565b9050811015611dd357611ca6610100880188613e55565b82818110611cb657611cb6613cd4565b9050602002016020810190611ccb9190613e38565b60086000611cdc60e08b018b613e55565b85818110611cec57611cec613cd4565b9050602002016020810190611d019190613830565b6001600160a01b031681526020810191909152604001600020805460ff1916911515919091179055611d3660e0880188613e55565b82818110611d4657611d46613cd4565b9050602002016020810190611d5b9190613830565b6001600160a01b03167ff12936333d9bd80e8fa690cb7cab64b6a55cd75a267918d8668fb15c807aadb9611d936101008a018a613e55565b84818110611da357611da3613cd4565b9050602002016020810190611db89190613e38565b604051901515815260200160405180910390a2600101611c82565b508315610b9757845460ff60401b19168555604051600181527fc7f505b2f371ae2175ee4913f4499e1f2633a7b5936321eed1cdaeb6115181d2906020016117fc565b336001600160a01b037f00000000000000000000000000000000000000000000000000000000000000001614611e5f5760405163e01ff8c160e01b815260040160405180910390fd5b600354821015611e90576003546040516378279ed960e11b8152610912918491600401918252602082015260400190565b600454821115611ebe57600480546040516373ab893560e11b81529182018490526024820152604401610912565b600654811080611ecf575060075481115b15611ef05760405163d8d9aee760e01b815260048101829052602401610912565b6005548290811115611f0157506005545b600082611f1683670de0b6b3a7640000613d46565b611f209190613d5d565b6001600160a01b03891660009081526008602052604090205490915060ff16611f675760405163016241a960e31b81526001600160a01b0389166004820152602401610912565b6000611f7487878461275f565b9050886001600160a01b0316336001600160a01b03167fe43ea144cbbf6de550ac149ab576cfebdbfab1507ca6fd97bd2c5dcd156283a783604051611fb99190613d7f565b60405180910390a36000611fce8a898961288c565b905080156120c357884710156120315760405162461bcd60e51b815260206004820152602260248201527f496e73756666696369656e74204554482062616c616e636520666f722076616c604482015261756560f01b6064820152608401610912565b896001600160a01b0316336001600160a01b03167fa864987eaebf6d66b036151c6b7a20e43e7cd92b9e648691c091638426e368b0846040516120749190613d7f565b60405180910390a36002546040518481526001600160a01b03909116907f2bd783d5edab7e192dbb4c8b86f4e6fa9078424092f1000d9b545275cf98d5079060200160405180910390a261222f565b6120cd838a613e9e565b47101561212f5760405162461bcd60e51b815260206004820152602a60248201527f496e73756666696369656e74204554482062616c616e636520666f722076616c604482015269756520616e642066656560b01b6064820152608401610912565b60008311801561214957506002546001600160a01b031615155b1561222f576002546040516000916001600160a01b03169085908381818185875af1925050503d806000811461219b576040519150601f19603f3d011682016040523d82523d6000602084013e6121a0565b606091505b50509050806121eb5760405162461bcd60e51b815260206004820152601760248201527611551208199959481d1c985b9cd9995c8819985a5b1959604a1b6044820152606401610912565b6002546040518581526001600160a01b03909116907f34e8a84e537ed93d93ddf39a78816dcbc74df8397c635838b8cc973d4fa943f89060200160405180910390a2505b6122708a8a8a8a8080601f0160208091040260200160405190810160405280939291908181526020018383808284376000920191909152506124e692505050565b50505050505050505050565b336001600160a01b037f000000000000000000000000000000000000000000000000000000000000000016146122f45760405162461bcd60e51b815260206004820152601c60248201527f6163636f756e743a206e6f742066726f6d20456e747279506f696e74000000006044820152606401610912565b565b7f19457468657265756d205369676e6564204d6573736167653a0a3332000000006000908152601c829052603c81206001546001600160a01b031661237f612342610100870187613cea565b8080601f01602080910402602001604051908101604052809392919081815260200183838082843760009201919091525086939250506129879050565b6001600160a01b0316036123d9576001546040518481526001600160a01b03909116907f2d27bd1200042fa25303e24cacd6892d9c8dacf3780736d24f22b1a9daccc6a79060200160405180910390a26000915050610808565b5060019392505050565b801561167e57604051600090339060001990849084818181858888f193505050503d8060008114610caf576040519150601f19603f3d011682016040523d82523d6000602084013e610caf565b6000807ff0c57e16840df040f15088dc2f81fe391c3923bec73e23a9662efc9c229c6a00610808565b336001600160a01b037f000000000000000000000000000000000000000000000000000000000000000016148061249a57506000546001600160a01b031633145b6122f45760405162461bcd60e51b815260206004820181905260248201527f6163636f756e743a206e6f74204f776e6572206f7220456e747279506f696e746044820152606401610912565b600080846001600160a01b031684846040516125029190613eb1565b60006040518083038185875af1925050503d806000811461253f576040519150601f19603f3d011682016040523d82523d6000602084013e612544565b606091505b509150915081610caf57805160208201fd5b6000546001600160a01b031633148061256e57503330145b6122f45760405162461bcd60e51b815260206004820152600a60248201526937b7363c9037bbb732b960b11b6044820152606401610912565b306001600160a01b037f000000000000000000000000000000000000000000000000000000000000000016148061262e57507f00000000000000000000000000000000000000000000000000000000000000006001600160a01b0316612622600080516020613f8a833981519152546001600160a01b031690565b6001600160a01b031614155b156122f45760405163703e46dd60e11b815260040160405180910390fd5b61167e612556565b816001600160a01b03166352d1902d6040518163ffffffff1660e01b8152600401602060405180830381865afa9250505080156126ae575060408051601f3d908101601f191682019092526126ab91810190613e1f565b60015b6126d657604051634c9c8ce360e01b81526001600160a01b0383166004820152602401610912565b600080516020613f8a833981519152811461270757604051632a87526960e21b815260048101829052602401610912565b61271183836129b1565b505050565b306001600160a01b037f000000000000000000000000000000000000000000000000000000000000000016146122f45760405163703e46dd60e11b815260040160405180910390fd5b61279f6040518060e00160405280600081526020016060815260200160008152602001600081526020016000815260200160008152602001600081525090565b60646127ac83601e613d46565b6127b69190613d5d565b815260646127c5836014613d46565b6127cf9190613d5d565b60408201526127f5848460646127e6866032613d46565b6127f09190613d5d565b612a07565b60208201526000606082018190526080820181905260a082015260c081018290529392505050565b600080546001600160a01b0319166001600160a01b03838116918217835560405191927f0000000000000000000000000000000000000000000000000000000000000000909116917f47e55c76e7a6f1fd8996a1da8008c1ea29699cca35e7bcd057f2dec313b6e5de9190a350565b6000600482101561289f5750600061082d565b60006128ae6004828587613ecd565b6128b791613ef7565b90506001600160e01b0319811663832d7e6960e01b0361295157306330eb237f6128e48560048189613ecd565b6040518363ffffffff1660e01b8152600401612901929190613f27565b602060405180830381865afa92505050801561293a575060408051601f3d908101601f1916820190925261293791810190613f56565b60015b61294857600091505061082d565b915061082d9050565b6001600160e01b03198116636f84329f60e01b0361297c57306319eee9136128e48560048189613ecd565b506000949350505050565b6000806000806129978686612e1b565b9250925092506129a78282612e68565b5090949350505050565b6129ba82612f21565b6040516001600160a01b038316907fbc7cd75a20ee27fd9adebab32041f755214dbc6bffa90cc0225b39da2e5c2d3b90600090a28051156129ff576127118282612f86565b610d5a612ffc565b60606004831015612aa85760408051600180825281830190925290816020015b6040805180820190915260008082526020820152815260200190600190039081612a2757905050905060405180604001604052807f8364c3767e797e2abe1e2eb32a8d79faef034dc82b4f0af3e5c798cb163f5f8181526020018381525081600081518110612a9857612a98613cd4565b602002602001018190525061082d565b6000612ab76004828688613ecd565b612ac091613ef7565b90506001600160e01b0319811663832d7e6960e01b03612bf5576040805160028082526060820190925290816020015b6040805180820190915260008082526020820152815260200190600190039081612af057905050915060405180604001604052807fd584ea033b2617ddc60ab2be1cb201cd76bdfe3af35c63817367d117e0cd0a9481526020016064856046612b599190613d46565b612b639190613d5d565b81525082600081518110612b7957612b79613cd4565b602002602001018190525060405180604001604052807fd5ea97cb3076fa1fb047fbe5918ed05c676ad54b0613e243f993ef1a1d591a2d8152602001606485601e612bc49190613d46565b612bce9190613d5d565b81525082600181518110612be457612be4613cd4565b60200260200101819052505061082d565b6001600160e01b03198116636f84329f60e01b03612d82576040805160038082526080820190925290816020015b6040805180820190915260008082526020820152815260200190600190039081612c2357905050915060405180604001604052807f5fa46f5b6db5d7d083de3a3d58bba0a32bd04425fadb111761739e6594fc7b1081526020016064856032612c8c9190613d46565b612c969190613d5d565b81525082600081518110612cac57612cac613cd4565b602002602001018190525060405180604001604052807fd5ea97cb3076fa1fb047fbe5918ed05c676ad54b0613e243f993ef1a1d591a2d8152602001606485601e612cf79190613d46565b612d019190613d5d565b81525082600181518110612d1757612d17613cd4565b602002602001018190525060405180604001604052807f85f15e1b7cd56792dde24eb24a8d705ce45aaae89a91f00b953d03371b6bc0ab81526020016064856014612d629190613d46565b612d6c9190613d5d565b81525082600281518110612be457612be4613cd4565b60408051600180825281830190925290816020015b6040805180820190915260008082526020820152815260200190600190039081612d9757905050915060405180604001604052807fff5ddd34c2af1295505d2cec18fab64eff67ccc5aa0614e3e9454a405d0c434d81526020018481525082600081518110612e0857612e08613cd4565b6020026020010181905250509392505050565b60008060008351604103612e555760208401516040850151606086015160001a612e478882858561301b565b955095509550505050612e61565b50508151600091506002905b9250925092565b6000826003811115612e7c57612e7c613f73565b03612e85575050565b6001826003811115612e9957612e99613f73565b03612eb75760405163f645eedf60e01b815260040160405180910390fd5b6002826003811115612ecb57612ecb613f73565b03612eec5760405163fce698f760e01b815260048101829052602401610912565b6003826003811115612f0057612f00613f73565b03610d5a576040516335e2f38360e21b815260048101829052602401610912565b806001600160a01b03163b600003612f5757604051634c9c8ce360e01b81526001600160a01b0382166004820152602401610912565b600080516020613f8a83398151915280546001600160a01b0319166001600160a01b0392909216919091179055565b6060600080846001600160a01b031684604051612fa39190613eb1565b600060405180830381855af49150503d8060008114612fde576040519150601f19603f3d011682016040523d82523d6000602084013e612fe3565b606091505b5091509150612ff38583836130ea565b95945050505050565b34156122f45760405163b398979f60e01b815260040160405180910390fd5b600080807f7fffffffffffffffffffffffffffffff5d576e7357a4501ddfe92f46681b20a084111561305657506000915060039050826130e0565b604080516000808252602082018084528a905260ff891692820192909252606081018790526080810186905260019060a0016020604051602081039080840390855afa1580156130aa573d6000803e3d6000fd5b5050604051601f1901519150506001600160a01b0381166130d6575060009250600191508290506130e0565b9250600091508190505b9450945094915050565b6060826130ff576130fa82613146565b61082d565b815115801561311657506001600160a01b0384163b155b1561313f57604051639996b31560e01b81526001600160a01b0385166004820152602401610912565b508061082d565b80511561315557805160208201fd5b60405163d6bda27560e01b815260040160405180910390fd5b60006020828403121561318057600080fd5b81356001600160e01b03198116811461082d57600080fd5b6001600160a01b038116811461167e57600080fd5b60008083601f8401126131bf57600080fd5b5081356001600160401b038111156131d657600080fd5b6020830191508360208285010111156131ee57600080fd5b9250929050565b60008060008060006080868803121561320d57600080fd5b853561321881613198565b9450602086013561322881613198565b93506040860135925060608601356001600160401b0381111561324a57600080fd5b613256888289016131ad565b969995985093965092949392505050565b6000610120828403121561327a57600080fd5b50919050565b60008060006060848603121561329557600080fd5b83356001600160401b038111156132ab57600080fd5b6132b786828701613267565b9660208601359650604090950135949350505050565b600080602083850312156132e057600080fd5b82356001600160401b038111156132f657600080fd5b613302858286016131ad565b90969095509350505050565b600080600080600080600060e0888a03121561332957600080fd5b873561333481613198565b9650602088013561334481613198565b9550604088013561335481613198565b969995985095966060810135965060808101359560a0820135955060c0909101359350915050565b60008083601f84011261338e57600080fd5b5081356001600160401b038111156133a557600080fd5b6020830191508360208260051b85010111156131ee57600080fd5b600080600080600080606087890312156133d957600080fd5b86356001600160401b03808211156133f057600080fd5b6133fc8a838b0161337c565b9098509650602089013591508082111561341557600080fd5b6134218a838b0161337c565b9096509450604089013591508082111561343a57600080fd5b5061344789828a0161337c565b979a9699509497509295939492505050565b60006020828403121561346b57600080fd5b5035919050565b6000806040838503121561348557600080fd5b823561349081613198565b946020939093013593505050565b634e487b7160e01b600052604160045260246000fd5b604051606081016001600160401b03811182821017156134d6576134d661349e565b60405290565b60405160e081016001600160401b03811182821017156134d6576134d661349e565b604051601f8201601f191681016001600160401b03811182821017156135265761352661349e565b604052919050565b600082601f83011261353f57600080fd5b81356001600160401b038111156135585761355861349e565b61356b601f8201601f19166020016134fe565b81815284602083860101111561358057600080fd5b816020850160208301376000918101602001919091529392505050565b600080604083850312156135b057600080fd5b82356135bb81613198565b915060208301356001600160401b038111156135d657600080fd5b6135e28582860161352e565b9150509250929050565b801515811461167e57600080fd5b8035613605816135ec565b919050565b6000806040838503121561361d57600080fd5b823561362881613198565b91506020830135613638816135ec565b809150509250929050565b60005b8381101561365e578181015183820152602001613646565b50506000910152565b6020815260008251806020840152613686816040850160208701613643565b601f01601f19169190910160400192915050565b600080600080600080608087890312156136b357600080fd5b86356001600160401b03808211156136ca57600080fd5b6136d68a838b0161337c565b909850965060208901359150808211156136ef57600080fd5b506136fc89828a0161337c565b979a9699509760408101359660609091013595509350505050565b6000806000806060858703121561372d57600080fd5b843561373881613198565b93506020850135925060408501356001600160401b0381111561375a57600080fd5b613766878288016131ad565b95989497509550505050565b60008060008060008060008060a0898b03121561378e57600080fd5b883561379981613198565b975060208901356137a981613198565b965060408901356001600160401b03808211156137c557600080fd5b6137d18c838d0161337c565b909850965060608b01359150808211156137ea57600080fd5b6137f68c838d0161337c565b909650945060808b013591508082111561380f57600080fd5b5061381c8b828c016131ad565b999c989b5096995094979396929594505050565b60006020828403121561384257600080fd5b813561082d81613198565b6000806000806040858703121561386357600080fd5b84356001600160401b038082111561387a57600080fd5b6138868883890161337c565b9096509450602087013591508082111561389f57600080fd5b506137668782880161337c565b6000602082840312156138be57600080fd5b81356001600160401b038111156138d457600080fd5b6138e084828501613267565b949350505050565b60008060008060008060a0878903121561390157600080fd5b863561390c81613198565b95506020870135945060408701356001600160401b0381111561392e57600080fd5b61393a89828a016131ad565b979a9699509760608101359660809091013595509350505050565b60008060008060008060a0878903121561396e57600080fd5b863561397981613198565b9550602087013561398981613198565b9450604087013593506060870135925060808701356001600160401b038111156139b257600080fd5b61344789828a016131ad565b600082601f8301126139cf57600080fd5b813560206001600160401b03808311156139eb576139eb61349e565b8260051b6139fa8382016134fe565b9384528581018301938381019088861115613a1457600080fd5b84880192505b85831015613ab557823584811115613a325760008081fd5b88016060818b03601f1901811315613a4a5760008081fd5b613a526134b4565b87830135815260408084013588811115613a6c5760008081fd5b613a7a8e8b8388010161352e565b838b015250918301359187831115613a925760008081fd5b613aa08d8a8587010161352e565b90820152845250509184019190840190613a1a565b98975050505050505050565b600060e08284031215613ad357600080fd5b613adb6134dc565b905081358152602082013560208201526040820135604082015260608201356001600160401b0380821115613b0f57600080fd5b613b1b858386016139be565b60608401526080840135915080821115613b3457600080fd5b613b408583860161352e565b6080840152613b5160a085016135fa565b60a084015260c0840135915080821115613b6a57600080fd5b50613b778482850161352e565b60c08301525092915050565b60008060408385031215613b9657600080fd5b82356001600160401b03811115613bac57600080fd5b613bb885828601613ac1565b95602094909401359450505050565b60208082526026908201527f4d61782072617465206d7573742062652067726561746572207468616e206d696040820152656e207261746560d01b606082015260800190565b60208082526026908201527f4d6178206665652063616e6e6f7420657863656564203130205553444320686160408201526507264206361760d41b606082015260800190565b6020808252602d908201527f4d696e20666565206d757374206265206c657373207468616e206f722065717560408201526c616c20746f206d61782066656560981b606082015260800190565b600060208284031215613cb257600080fd5b81356001600160401b03811115613cc857600080fd5b6138e084828501613ac1565b634e487b7160e01b600052603260045260246000fd5b6000808335601e19843603018112613d0157600080fd5b8301803591506001600160401b03821115613d1b57600080fd5b6020019150368190038213156131ee57600080fd5b634e487b7160e01b600052601160045260246000fd5b808202811582820484141761080857610808613d30565b600082613d7a57634e487b7160e01b600052601260045260246000fd5b500490565b60006020808352610100830184518285015281850151604060e06040870152828251808552610120880191508584019450600093505b80841015613dde5784518051835286015186830152938501936001939093019290820190613db5565b506040880151606088015260608801516080880152608088015160a088015260a088015160c088015260c088015160e0880152809550505050505092915050565b600060208284031215613e3157600080fd5b5051919050565b600060208284031215613e4a57600080fd5b813561082d816135ec565b6000808335601e19843603018112613e6c57600080fd5b8301803591506001600160401b03821115613e8657600080fd5b6020019150600581901b36038213156131ee57600080fd5b8082018082111561080857610808613d30565b60008251613ec3818460208701613643565b9190910192915050565b60008085851115613edd57600080fd5b83861115613eea57600080fd5b5050820193919092039150565b6001600160e01b03198135818116916004851015613f1f5780818660040360031b1b83161692505b505092915050565b60208152816020820152818360408301376000818301604090810191909152601f909201601f19160101919050565b600060208284031215613f6857600080fd5b815161082d816135ec565b634e487b7160e01b600052602160045260246000fdfe360894a13ba1a3210667c828492db98dca3e2076cc3735a920a3ca505d382bbca264697066735822122049d2773be5364e8a838be3f345b931a73291a54b7fcdbac93e5db12afd46456064736f6c63430008170033","linkReferences":{}},"methodIdentifiers":{"UPGRADE_INTERFACE_VERSION()":"ad3cb1cc","_decodePurchaseTokens(bytes)":"19eee913","_decodeSubmitPropertyAnalysis(bytes)":"30eb237f","addDeposit()":"4a58db19","batchUpdateDestinationWhitelist(address[],bool[])":"d16f3a20","delegate()":"c89e4361","entryPoint()":"b0d691fe","execute(address,uint256,bytes)":"b61d27f6","execute(address,uint256,bytes,uint256,uint256)":"ef7b1f62","executeBatch(address[],bytes[],uint256,uint256)":"ad5c29f0","executeBatch(address[],uint256[],bytes[])":"47e1da2a","feeRecipient()":"46904840","getDeposit()":"c399ec88","getFeeParameters()":"4722b4a5","getNonce()":"d087d288","hardFeeCap()":"4dcdfba5","initialize(address)":"c4d66de8","initialize(address,address,address,uint256,uint256,uint256,uint256)":"2b4656c8","initializeWithConfig((address,address,address,uint256,uint256,uint256,uint256,address[],bool[]))":"e90c8743","isDestinationWhitelisted(address)":"f0299dd8","isWhitelistedDestination(address)":"e39fbbc9","maxExchangeRate()":"83728d2b","maxFeePerTransaction()":"3f1b112a","minExchangeRate()":"d091ed47","minRequiredFee()":"0c36b26f","onERC1155BatchReceived(address,address,uint256[],uint256[],bytes)":"bc197c81","onERC1155Received(address,address,uint256,uint256,bytes)":"f23a6e61","onERC721Received(address,address,uint256,bytes)":"150b7a02","owner()":"8da5cb5b","proxiableUUID()":"52d1902d","supportsInterface(bytes4)":"01ffc9a7","updateDestinationWhitelist(address,bool)":"5cc3b645","updateHardFeeCap(uint256)":"bdaf0434","updateMaxExchangeRate(uint256)":"d05144fc","updateMaxFee(uint256)":"550dddeb","updateMinExchangeRate(uint256)":"962354ee","updateMinFee(uint256)":"4867ef4f","upgradeToAndCall(address,bytes)":"4f1ef286","validateUserOp((address,uint256,bytes,bytes,bytes32,uint256,bytes32,bytes,bytes),bytes32,uint256)":"19822f7c","withdrawDepositTo(address,uint256)":"4d44560d"},"id":69}