{"abi":[{"type":"constructor","inputs":[{"name":"_masterKey","type":"address","internalType":"address"},{"name":"_recoveryKey","type":"address","internalType":"address"},{"name":"_owner","type":"address","internalType":"address"},{"name":"_delegatedAccountImpl","type":"address","internalType":"address"}],"stateMutability":"nonpayable"},{"type":"function","name":"delegatedAccountCodeHash","inputs":[],"outputs":[{"name":"","type":"bytes32","internalType":"bytes32"}],"stateMutability":"view"},{"type":"function","name":"emergencyResetNonce","inputs":[{"name":"user","type":"address","internalType":"address"},{"name":"newNonce","type":"uint256","internalType":"uint256"}],"outputs":[],"stateMutability":"nonpayable"},{"type":"function","name":"getAuthorizationHash","inputs":[{"name":"user","type":"address","internalType":"address"},{"name":"authData","type":"tuple","internalType":"struct TargetBase.AuthData","components":[{"name":"nonce","type":"uint256","internalType":"uint256"},{"name":"expiry","type":"uint256","internalType":"uint256"},{"name":"id","type":"bytes32","internalType":"bytes32"},{"name":"executions","type":"tuple[]","internalType":"struct TargetBase.Execution[]","components":[{"name":"id","type":"bytes32","internalType":"bytes32"},{"name":"request","type":"bytes","internalType":"bytes"},{"name":"response","type":"bytes","internalType":"bytes"}]},{"name":"result","type":"bytes","internalType":"bytes"},{"name":"sponsorExecutionFee","type":"bool","internalType":"bool"},{"name":"signature","type":"bytes","internalType":"bytes"}]},{"name":"selector","type":"bytes4","internalType":"bytes4"}],"outputs":[{"name":"","type":"bytes32","internalType":"bytes32"}],"stateMutability":"pure"},{"type":"function","name":"getCodeHash","inputs":[{"name":"account","type":"address","internalType":"address"}],"outputs":[{"name":"","type":"bytes32","internalType":"bytes32"}],"stateMutability":"view"},{"type":"function","name":"getNonce","inputs":[{"name":"user","type":"address","internalType":"address"}],"outputs":[{"name":"","type":"uint256","internalType":"uint256"}],"stateMutability":"view"},{"type":"function","name":"isAuthorizationUsed","inputs":[{"name":"authHash","type":"bytes32","internalType":"bytes32"}],"outputs":[{"name":"","type":"bool","internalType":"bool"}],"stateMutability":"view"},{"type":"function","name":"isDelegatedAccount","inputs":[{"name":"account","type":"address","internalType":"address"}],"outputs":[{"name":"","type":"bool","internalType":"bool"}],"stateMutability":"view"},{"type":"function","name":"isDelegatedAccountSet","inputs":[],"outputs":[{"name":"","type":"bool","internalType":"bool"}],"stateMutability":"view"},{"type":"function","name":"masterKey","inputs":[],"outputs":[{"name":"","type":"address","internalType":"address"}],"stateMutability":"view"},{"type":"function","name":"nonces","inputs":[{"name":"","type":"address","internalType":"address"}],"outputs":[{"name":"","type":"uint256","internalType":"uint256"}],"stateMutability":"view"},{"type":"function","name":"owner","inputs":[],"outputs":[{"name":"","type":"address","internalType":"address"}],"stateMutability":"view"},{"type":"function","name":"recoveryKey","inputs":[],"outputs":[{"name":"","type":"address","internalType":"address"}],"stateMutability":"view"},{"type":"function","name":"renounceOwnership","inputs":[],"outputs":[],"stateMutability":"nonpayable"},{"type":"function","name":"setDelegatedAccountImplementation","inputs":[{"name":"implementation","type":"address","internalType":"address"}],"outputs":[],"stateMutability":"nonpayable"},{"type":"function","name":"transferOwnership","inputs":[{"name":"newOwner","type":"address","internalType":"address"}],"outputs":[],"stateMutability":"nonpayable"},{"type":"function","name":"updateMasterKey","inputs":[{"name":"newMasterKey","type":"address","internalType":"address"}],"outputs":[],"stateMutability":"nonpayable"},{"type":"function","name":"updateRecoveryKey","inputs":[{"name":"newRecoveryKey","type":"address","internalType":"address"}],"outputs":[],"stateMutability":"nonpayable"},{"type":"function","name":"usedAuthorizations","inputs":[{"name":"","type":"bytes32","internalType":"bytes32"}],"outputs":[{"name":"","type":"bool","internalType":"bool"}],"stateMutability":"view"},{"type":"event","name":"AuthorizationVerified","inputs":[{"name":"authorizer","type":"address","indexed":true,"internalType":"address"},{"name":"sender","type":"address","indexed":true,"internalType":"address"},{"name":"nonce","type":"uint256","indexed":false,"internalType":"uint256"},{"name":"dataHash","type":"bytes32","indexed":false,"internalType":"bytes32"}],"anonymous":false},{"type":"event","name":"DelegatedAccountSet","inputs":[{"name":"implementation","type":"address","indexed":true,"internalType":"address"},{"name":"codeHash","type":"bytes32","indexed":true,"internalType":"bytes32"}],"anonymous":false},{"type":"event","name":"MasterKeyUpdated","inputs":[{"name":"oldKey","type":"address","indexed":true,"internalType":"address"},{"name":"newKey","type":"address","indexed":true,"internalType":"address"},{"name":"updatedBy","type":"address","indexed":true,"internalType":"address"}],"anonymous":false},{"type":"event","name":"OwnershipTransferred","inputs":[{"name":"previousOwner","type":"address","indexed":true,"internalType":"address"},{"name":"newOwner","type":"address","indexed":true,"internalType":"address"}],"anonymous":false},{"type":"event","name":"RecoveryKeyUpdated","inputs":[{"name":"oldKey","type":"address","indexed":true,"internalType":"address"},{"name":"newKey","type":"address","indexed":true,"internalType":"address"}],"anonymous":false},{"type":"error","name":"AuthorizationAlreadyUsed","inputs":[]},{"type":"error","name":"AuthorizationExpired","inputs":[]},{"type":"error","name":"DelegatedAccountNotSet","inputs":[]},{"type":"error","name":"InvalidAddress","inputs":[]},{"type":"error","name":"InvalidImplementation","inputs":[]},{"type":"error","name":"InvalidNonce","inputs":[]},{"type":"error","name":"InvalidSignature","inputs":[]},{"type":"error","name":"NoCode","inputs":[]},{"type":"error","name":"OwnableInvalidOwner","inputs":[{"name":"owner","type":"address","internalType":"address"}]},{"type":"error","name":"OwnableUnauthorizedAccount","inputs":[{"name":"account","type":"address","internalType":"address"}]},{"type":"error","name":"ReentrancyGuardReentrantCall","inputs":[]},{"type":"error","name":"UnauthorizedCaller","inputs":[]}],"bytecode":{"object":"0x608060405234801561001057600080fd5b50604051610cc5380380610cc583398101604081905261002f9161025d565b6001600055816001600160a01b03811661006357604051631e4fbdf760e01b81526000600482015260240160405180910390fd5b61006c81610124565b506001600160a01b0384166100945760405163e6c4247b60e01b815260040160405180910390fd5b6001600160a01b0383166100bb5760405163e6c4247b60e01b815260040160405180910390fd5b6001600160a01b0381166100e25760405163e6c4247b60e01b815260040160405180910390fd5b600280546001600160a01b038087166001600160a01b031992831617909255600380549286169290911691909117905561011b81610176565b505050506102b1565b600180546001600160a01b038381166001600160a01b0319831681179093556040519116919082907f8be0079c531659141344cd1fd0a4f28419497f9722a3daafe3b4186f6b6457e090600090a35050565b803f8015806101a457507fc5d2460186f7233c927e7db2dcc703c0e500b653ca82273b7bfad8045d85a47081145b156101c257604051633c11a9c560e21b815260040160405180910390fd5b60405161ef0160f01b60208201526001600160601b0319606084901b16602382015260009060370160408051601f1981840301815290829052805160208201206006819055909250906001600160a01b038516907f5b1390f119226218b27296b195e4447b856827c4d713c7cb924a278080112e7c90600090a3505050565b80516001600160a01b038116811461025857600080fd5b919050565b6000806000806080858703121561027357600080fd5b61027c85610241565b935061028a60208601610241565b925061029860408601610241565b91506102a660608601610241565b905092959194509250565b610a05806102c06000396000f3fe608060405234801561001057600080fd5b50600436106101165760003560e01c80638da5cb5b116100a2578063b80a852c11610071578063b80a852c14610261578063c99c35d814610274578063d5a1780b14610287578063daafc3a2146102aa578063f2fde38b146102bd57600080fd5b80638da5cb5b1461021757806397905a8814610228578063ab17e3371461023b578063ac1d92a11461024e57600080fd5b806340110535116100e957806340110535146101a9578063715018a6146101b25780637ecebe00146101ba57806381ea4408146101da5780638afe35b9146101ec57600080fd5b806314335b8d1461011b5780632d0335ab146101535780632eb400901461018a5780633dacd33c1461019f575b600080fd5b61013e6101293660046106a3565b60009081526005602052604090205460ff1690565b60405190151581526020015b60405180910390f35b61017c6101613660046106d8565b6001600160a01b031660009081526004602052604090205490565b60405190815260200161014a565b61019d6101983660046106d8565b6102d0565b005b600654151561013e565b61017c60065481565b61019d610351565b61017c6101c83660046106d8565b60046020526000908152604090205481565b61017c6101e83660046106d8565b3f90565b6002546101ff906001600160a01b031681565b6040516001600160a01b03909116815260200161014a565b6001546001600160a01b03166101ff565b6003546101ff906001600160a01b031681565b61019d6102493660046106d8565b610365565b61017c61025c3660046106f3565b610379565b61013e61026f3660046106d8565b610413565b61019d6102823660046106d8565b610432565b61013e6102953660046106a3565b60056020526000908152604090205460ff1681565b61019d6102b8366004610767565b6104f0565b61019d6102cb3660046106d8565b610514565b6102d8610554565b6001600160a01b0381166102ff5760405163e6c4247b60e01b815260040160405180910390fd5b600380546001600160a01b038381166001600160a01b0319831681179093556040519116919082907fc1ded5e7b2e884aee7a9307c075cf7a3c01d6fde38a5dcc91e833fe602c7019990600090a35050565b610359610554565b6103636000610581565b565b61036d610554565b610376816105d3565b50565b6000838335602085013560408601356103956060880188610791565b6040516020016103a6929190610851565b60408051601f1981840301815291905280516020909101206103cb6080890189610904565b6103db60c08b0160a08c0161094b565b896040516020016103f49998979695949392919061096d565b6040516020818303038152906040528051906020012090509392505050565b600654600090823f908114801561042b575060065415155b9392505050565b6001546001600160a01b0316331480159061045857506003546001600160a01b03163314155b1561047657604051635c427cd960e01b815260040160405180910390fd5b6001600160a01b03811661049d5760405163e6c4247b60e01b815260040160405180910390fd5b600280546001600160a01b038381166001600160a01b031983168117909355604051911691339183907fb659f04626597961e33b3345b88799f112d62f49db80f9dfced83f1db86059b590600090a45050565b6104f8610554565b6001600160a01b03909116600090815260046020526040902055565b61051c610554565b6001600160a01b03811661054b57604051631e4fbdf760e01b8152600060048201526024015b60405180910390fd5b61037681610581565b6001546001600160a01b031633146103635760405163118cdaa760e01b8152336004820152602401610542565b600180546001600160a01b038381166001600160a01b0319831681179093556040519116919082907f8be0079c531659141344cd1fd0a4f28419497f9722a3daafe3b4186f6b6457e090600090a35050565b803f80158061060157507fc5d2460186f7233c927e7db2dcc703c0e500b653ca82273b7bfad8045d85a47081145b1561061f57604051633c11a9c560e21b815260040160405180910390fd5b60405161ef0160f01b60208201526bffffffffffffffffffffffff19606084901b16602382015260009060370160408051601f1981840301815290829052805160208201206006819055909250906001600160a01b038516907f5b1390f119226218b27296b195e4447b856827c4d713c7cb924a278080112e7c90600090a3505050565b6000602082840312156106b557600080fd5b5035919050565b80356001600160a01b03811681146106d357600080fd5b919050565b6000602082840312156106ea57600080fd5b61042b826106bc565b60008060006060848603121561070857600080fd5b610711846106bc565b9250602084013567ffffffffffffffff81111561072d57600080fd5b840160e0818703121561073f57600080fd5b915060408401356001600160e01b03198116811461075c57600080fd5b809150509250925092565b6000806040838503121561077a57600080fd5b610783836106bc565b946020939093013593505050565b6000808335601e198436030181126107a857600080fd5b83018035915067ffffffffffffffff8211156107c357600080fd5b6020019150600581901b36038213156107db57600080fd5b9250929050565b6000808335601e198436030181126107f957600080fd5b830160208101925035905067ffffffffffffffff81111561081957600080fd5b8036038213156107db57600080fd5b81835281816020850137506000828201602090810191909152601f909101601f19169091010190565b60208082528181018390526000906040808401600586901b850182018785805b898110156108f557888403603f190185528235368c9003605e19018112610896578283fd5b8b018035855260606108aa898301836107e2565b828b8901526108bc8389018284610828565b925050506108cc888301836107e2565b9250868203898801526108e0828483610828565b978a0197965050509287019250600101610871565b50919998505050505050505050565b6000808335601e1984360301811261091b57600080fd5b83018035915067ffffffffffffffff82111561093657600080fd5b6020019150368190038213156107db57600080fd5b60006020828403121561095d57600080fd5b8135801515811461042b57600080fd5b6bffffffffffffffffffffffff198a60601b1681528860148201528760348201528660548201528560748201528385609483013791151560f81b9290910160948101929092526001600160e01b0319166095820152609901969550505050505056fea26469706673582212208ffe212db68c7ebdf70a1b3d7e2a14ce111771b9f1d04ca9feb14399dffd499964736f6c63430008170033","linkReferences":{}},"methodIdentifiers":{"delegatedAccountCodeHash()":"40110535","emergencyResetNonce(address,uint256)":"daafc3a2","getAuthorizationHash(address,(uint256,uint256,bytes32,(bytes32,bytes,bytes)[],bytes,bool,bytes),bytes4)":"ac1d92a1","getCodeHash(address)":"81ea4408","getNonce(address)":"2d0335ab","isAuthorizationUsed(bytes32)":"14335b8d","isDelegatedAccount(address)":"b80a852c","isDelegatedAccountSet()":"3dacd33c","masterKey()":"8afe35b9","nonces(address)":"7ecebe00","owner()":"8da5cb5b","recoveryKey()":"97905a88","renounceOwnership()":"715018a6","setDelegatedAccountImplementation(address)":"ab17e337","transferOwnership(address)":"f2fde38b","updateMasterKey(address)":"c99c35d8","updateRecoveryKey(address)":"2eb40090","usedAuthorizations(bytes32)":"d5a1780b"},"id":74}