{"abi":[{"type":"constructor","inputs":[{"name":"anEntryPoint","type":"address","internalType":"contract IEntryPoint"}],"stateMutability":"nonpayable"},{"type":"receive","stateMutability":"payable"},{"type":"function","name":"UPGRADE_INTERFACE_VERSION","inputs":[],"outputs":[{"name":"","type":"string","internalType":"string"}],"stateMutability":"view"},{"type":"function","name":"addDeposit","inputs":[],"outputs":[],"stateMutability":"payable"},{"type":"function","name":"entryPoint","inputs":[],"outputs":[{"name":"","type":"address","internalType":"contract IEntryPoint"}],"stateMutability":"view"},{"type":"function","name":"execute","inputs":[{"name":"dest","type":"address","internalType":"address"},{"name":"value","type":"uint256","internalType":"uint256"},{"name":"func","type":"bytes","internalType":"bytes"}],"outputs":[],"stateMutability":"nonpayable"},{"type":"function","name":"executeBatch","inputs":[{"name":"dest","type":"address[]","internalType":"address[]"},{"name":"value","type":"uint256[]","internalType":"uint256[]"},{"name":"func","type":"bytes[]","internalType":"bytes[]"}],"outputs":[],"stateMutability":"nonpayable"},{"type":"function","name":"getDeposit","inputs":[],"outputs":[{"name":"","type":"uint256","internalType":"uint256"}],"stateMutability":"view"},{"type":"function","name":"getNonce","inputs":[],"outputs":[{"name":"","type":"uint256","internalType":"uint256"}],"stateMutability":"view"},{"type":"function","name":"initialize","inputs":[{"name":"anOwner","type":"address","internalType":"address"}],"outputs":[],"stateMutability":"nonpayable"},{"type":"function","name":"onERC1155BatchReceived","inputs":[{"name":"","type":"address","internalType":"address"},{"name":"","type":"address","internalType":"address"},{"name":"","type":"uint256[]","internalType":"uint256[]"},{"name":"","type":"uint256[]","internalType":"uint256[]"},{"name":"","type":"bytes","internalType":"bytes"}],"outputs":[{"name":"","type":"bytes4","internalType":"bytes4"}],"stateMutability":"pure"},{"type":"function","name":"onERC1155Received","inputs":[{"name":"","type":"address","internalType":"address"},{"name":"","type":"address","internalType":"address"},{"name":"","type":"uint256","internalType":"uint256"},{"name":"","type":"uint256","internalType":"uint256"},{"name":"","type":"bytes","internalType":"bytes"}],"outputs":[{"name":"","type":"bytes4","internalType":"bytes4"}],"stateMutability":"pure"},{"type":"function","name":"onERC721Received","inputs":[{"name":"","type":"address","internalType":"address"},{"name":"","type":"address","internalType":"address"},{"name":"","type":"uint256","internalType":"uint256"},{"name":"","type":"bytes","internalType":"bytes"}],"outputs":[{"name":"","type":"bytes4","internalType":"bytes4"}],"stateMutability":"pure"},{"type":"function","name":"owner","inputs":[],"outputs":[{"name":"","type":"address","internalType":"address"}],"stateMutability":"view"},{"type":"function","name":"proxiableUUID","inputs":[],"outputs":[{"name":"","type":"bytes32","internalType":"bytes32"}],"stateMutability":"view"},{"type":"function","name":"supportsInterface","inputs":[{"name":"interfaceId","type":"bytes4","internalType":"bytes4"}],"outputs":[{"name":"","type":"bool","internalType":"bool"}],"stateMutability":"view"},{"type":"function","name":"upgradeToAndCall","inputs":[{"name":"newImplementation","type":"address","internalType":"address"},{"name":"data","type":"bytes","internalType":"bytes"}],"outputs":[],"stateMutability":"payable"},{"type":"function","name":"validateUserOp","inputs":[{"name":"userOp","type":"tuple","internalType":"struct PackedUserOperation","components":[{"name":"sender","type":"address","internalType":"address"},{"name":"nonce","type":"uint256","internalType":"uint256"},{"name":"initCode","type":"bytes","internalType":"bytes"},{"name":"callData","type":"bytes","internalType":"bytes"},{"name":"accountGasLimits","type":"bytes32","internalType":"bytes32"},{"name":"preVerificationGas","type":"uint256","internalType":"uint256"},{"name":"gasFees","type":"bytes32","internalType":"bytes32"},{"name":"paymasterAndData","type":"bytes","internalType":"bytes"},{"name":"signature","type":"bytes","internalType":"bytes"}]},{"name":"userOpHash","type":"bytes32","internalType":"bytes32"},{"name":"missingAccountFunds","type":"uint256","internalType":"uint256"}],"outputs":[{"name":"validationData","type":"uint256","internalType":"uint256"}],"stateMutability":"nonpayable"},{"type":"function","name":"withdrawDepositTo","inputs":[{"name":"withdrawAddress","type":"address","internalType":"address payable"},{"name":"amount","type":"uint256","internalType":"uint256"}],"outputs":[],"stateMutability":"nonpayable"},{"type":"event","name":"Initialized","inputs":[{"name":"version","type":"uint64","indexed":false,"internalType":"uint64"}],"anonymous":false},{"type":"event","name":"SimpleAccountInitialized","inputs":[{"name":"entryPoint","type":"address","indexed":true,"internalType":"contract IEntryPoint"},{"name":"owner","type":"address","indexed":true,"internalType":"address"}],"anonymous":false},{"type":"event","name":"Upgraded","inputs":[{"name":"implementation","type":"address","indexed":true,"internalType":"address"}],"anonymous":false},{"type":"error","name":"AddressEmptyCode","inputs":[{"name":"target","type":"address","internalType":"address"}]},{"type":"error","name":"ECDSAInvalidSignature","inputs":[]},{"type":"error","name":"ECDSAInvalidSignatureLength","inputs":[{"name":"length","type":"uint256","internalType":"uint256"}]},{"type":"error","name":"ECDSAInvalidSignatureS","inputs":[{"name":"s","type":"bytes32","internalType":"bytes32"}]},{"type":"error","name":"ERC1967InvalidImplementation","inputs":[{"name":"implementation","type":"address","internalType":"address"}]},{"type":"error","name":"ERC1967NonPayable","inputs":[]},{"type":"error","name":"FailedCall","inputs":[]},{"type":"error","name":"InvalidInitialization","inputs":[]},{"type":"error","name":"NotInitializing","inputs":[]},{"type":"error","name":"UUPSUnauthorizedCallContext","inputs":[]},{"type":"error","name":"UUPSUnsupportedProxiableUUID","inputs":[{"name":"slot","type":"bytes32","internalType":"bytes32"}]}],"bytecode":{"object":"0x60c0604052306080523480156200001557600080fd5b50604051620019b3380380620019b383398101604081905262000038916200010a565b6001600160a01b03811660a0526200004f62000056565b506200013c565b7ff0c57e16840df040f15088dc2f81fe391c3923bec73e23a9662efc9c229c6a00805468010000000000000000900460ff1615620000a75760405163f92ee8a960e01b815260040160405180910390fd5b80546001600160401b0390811614620001075780546001600160401b0319166001600160401b0390811782556040519081527fc7f505b2f371ae2175ee4913f4499e1f2633a7b5936321eed1cdaeb6115181d29060200160405180910390a15b50565b6000602082840312156200011d57600080fd5b81516001600160a01b03811681146200013557600080fd5b9392505050565b60805160a051611812620001a1600039600081816102ad015281816105940152818161061c01528181610746015281816108d90152818161091301528181610a810152610dca015260008181610bcf01528181610bf80152610d3e01526118126000f3fe6080604052600436106101025760003560e01c80638da5cb5b11610095578063bc197c8111610064578063bc197c81146102f1578063c399ec8814610320578063c4d66de814610335578063d087d28814610355578063f23a6e611461036a57600080fd5b80638da5cb5b14610228578063ad3cb1cc14610260578063b0d691fe1461029e578063b61d27f6146102d157600080fd5b80634a58db19116100d15780634a58db19146101d85780634d44560d146101e05780634f1ef2861461020057806352d1902d1461021357600080fd5b806301ffc9a71461010e578063150b7a021461014357806319822f7c1461018857806347e1da2a146101b657600080fd5b3661010957005b600080fd5b34801561011a57600080fd5b5061012e6101293660046111e7565b610397565b60405190151581526020015b60405180910390f35b34801561014f57600080fd5b5061016f61015e36600461126f565b630a85bd0160e11b95945050505050565b6040516001600160e01b0319909116815260200161013a565b34801561019457600080fd5b506101a86101a33660046112e2565b6103e9565b60405190815260200161013a565b3480156101c257600080fd5b506101d66101d136600461137b565b61040f565b005b6101d6610592565b3480156101ec57600080fd5b506101d66101fb366004611415565b610612565b6101d661020e366004611457565b61069b565b34801561021f57600080fd5b506101a86106ba565b34801561023457600080fd5b50600054610248906001600160a01b031681565b6040516001600160a01b03909116815260200161013a565b34801561026c57600080fd5b50610291604051806040016040528060058152602001640352e302e360dc1b81525081565b60405161013a919061153f565b3480156102aa57600080fd5b507f0000000000000000000000000000000000000000000000000000000000000000610248565b3480156102dd57600080fd5b506101d66102ec366004611572565b6106d7565b3480156102fd57600080fd5b5061016f61030c3660046115ce565b63bc197c8160e01b98975050505050505050565b34801561032c57600080fd5b506101a8610726565b34801561034157600080fd5b506101d661035036600461168d565b6107b7565b34801561036157600080fd5b506101a86108b2565b34801561037657600080fd5b5061016f6103853660046116aa565b63f23a6e6160e01b9695505050505050565b60006001600160e01b03198216630a85bd0160e11b14806103c857506001600160e01b03198216630271189760e51b145b806103e357506001600160e01b031982166301ffc9a760e01b145b92915050565b60006103f3610908565b6103fd8484610982565b905061040882610a29565b9392505050565b610417610a76565b848114801561042d575082158061042d57508281145b6104745760405162461bcd60e51b815260206004820152601360248201527277726f6e67206172726179206c656e6774687360681b60448201526064015b60405180910390fd5b60008390036105205760005b8581101561051a5761051287878381811061049d5761049d611714565b90506020020160208101906104b2919061168d565b60008585858181106104c6576104c6611714565b90506020028101906104d8919061172a565b8080601f016020809104026020016040519081016040528093929190818152602001838380828437600092019190915250610b0392505050565b600101610480565b5061058a565b60005b858110156105885761058087878381811061054057610540611714565b9050602002016020810190610555919061168d565b86868481811061056757610567611714565b905060200201358585858181106104c6576104c6611714565b600101610523565b505b505050505050565b7f000000000000000000000000000000000000000000000000000000000000000060405163b760faf960e01b81523060048201526001600160a01b03919091169063b760faf99034906024016000604051808303818588803b1580156105f757600080fd5b505af115801561060b573d6000803e3d6000fd5b5050505050565b61061a610b73565b7f000000000000000000000000000000000000000000000000000000000000000060405163040b850f60e31b81526001600160a01b03848116600483015260248201849052919091169063205c287890604401600060405180830381600087803b15801561068757600080fd5b505af115801561058a573d6000803e3d6000fd5b6106a3610bc4565b6106ac82610c69565b6106b68282610c71565b5050565b60006106c4610d33565b506000805160206117bd83398151915290565b6106df610a76565b610720848484848080601f016020809104026020016040519081016040528093929190818152602001838380828437600092019190915250610b0392505050565b50505050565b6040516370a0823160e01b81523060048201526000906001600160a01b037f000000000000000000000000000000000000000000000000000000000000000016906370a08231906024015b602060405180830381865afa15801561078e573d6000803e3d6000fd5b505050506040513d601f19601f820116820180604052508101906107b29190611771565b905090565b60006107c1610d7c565b805490915060ff600160401b820416159067ffffffffffffffff166000811580156107e95750825b905060008267ffffffffffffffff1660011480156108065750303b155b905081158015610814575080155b156108325760405163f92ee8a960e01b815260040160405180910390fd5b845467ffffffffffffffff19166001178555831561085c57845460ff60401b1916600160401b1785555b61086586610da5565b831561058a57845460ff60401b19168555604051600181527fc7f505b2f371ae2175ee4913f4499e1f2633a7b5936321eed1cdaeb6115181d29060200160405180910390a1505050505050565b604051631aab3f0d60e11b8152306004820152600060248201819052906001600160a01b037f000000000000000000000000000000000000000000000000000000000000000016906335567e1a90604401610771565b336001600160a01b037f000000000000000000000000000000000000000000000000000000000000000016146109805760405162461bcd60e51b815260206004820152601c60248201527f6163636f756e743a206e6f742066726f6d20456e747279506f696e7400000000604482015260640161046b565b565b7f19457468657265756d205369676e6564204d6573736167653a0a3332000000006000908152601c829052603c81206109fd816109c361010087018761172a565b8080601f016020809104026020016040519081016040528093929190818152602001838380828437600092019190915250610e1492505050565b6000546001600160a01b03908116911614610a1c5760019150506103e3565b5060009392505050565b50565b8015610a2657604051600090339060001990849084818181858888f193505050503d806000811461060b576040519150601f19603f3d011682016040523d82523d6000602084013e61060b565b336001600160a01b037f0000000000000000000000000000000000000000000000000000000000000000161480610ab757506000546001600160a01b031633145b6109805760405162461bcd60e51b815260206004820181905260248201527f6163636f756e743a206e6f74204f776e6572206f7220456e747279506f696e74604482015260640161046b565b600080846001600160a01b03168484604051610b1f919061178a565b60006040518083038185875af1925050503d8060008114610b5c576040519150601f19603f3d011682016040523d82523d6000602084013e610b61565b606091505b50915091508161060b57805160208201fd5b6000546001600160a01b0316331480610b8b57503330145b6109805760405162461bcd60e51b815260206004820152600a60248201526937b7363c9037bbb732b960b11b604482015260640161046b565b306001600160a01b037f0000000000000000000000000000000000000000000000000000000000000000161480610c4b57507f00000000000000000000000000000000000000000000000000000000000000006001600160a01b0316610c3f6000805160206117bd833981519152546001600160a01b031690565b6001600160a01b031614155b156109805760405163703e46dd60e11b815260040160405180910390fd5b610a26610b73565b816001600160a01b03166352d1902d6040518163ffffffff1660e01b8152600401602060405180830381865afa925050508015610ccb575060408051601f3d908101601f19168201909252610cc891810190611771565b60015b610cf357604051634c9c8ce360e01b81526001600160a01b038316600482015260240161046b565b6000805160206117bd8339815191528114610d2457604051632a87526960e21b81526004810182905260240161046b565b610d2e8383610e3e565b505050565b306001600160a01b037f000000000000000000000000000000000000000000000000000000000000000016146109805760405163703e46dd60e11b815260040160405180910390fd5b6000807ff0c57e16840df040f15088dc2f81fe391c3923bec73e23a9662efc9c229c6a006103e3565b600080546001600160a01b0319166001600160a01b03838116918217835560405191927f0000000000000000000000000000000000000000000000000000000000000000909116917f47e55c76e7a6f1fd8996a1da8008c1ea29699cca35e7bcd057f2dec313b6e5de9190a350565b600080600080610e248686610e94565b925092509250610e348282610ee1565b5090949350505050565b610e4782610f9a565b6040516001600160a01b038316907fbc7cd75a20ee27fd9adebab32041f755214dbc6bffa90cc0225b39da2e5c2d3b90600090a2805115610e8c57610d2e8282610fff565b6106b6611075565b60008060008351604103610ece5760208401516040850151606086015160001a610ec088828585611094565b955095509550505050610eda565b50508151600091506002905b9250925092565b6000826003811115610ef557610ef56117a6565b03610efe575050565b6001826003811115610f1257610f126117a6565b03610f305760405163f645eedf60e01b815260040160405180910390fd5b6002826003811115610f4457610f446117a6565b03610f655760405163fce698f760e01b81526004810182905260240161046b565b6003826003811115610f7957610f796117a6565b036106b6576040516335e2f38360e21b81526004810182905260240161046b565b806001600160a01b03163b600003610fd057604051634c9c8ce360e01b81526001600160a01b038216600482015260240161046b565b6000805160206117bd83398151915280546001600160a01b0319166001600160a01b0392909216919091179055565b6060600080846001600160a01b03168460405161101c919061178a565b600060405180830381855af49150503d8060008114611057576040519150601f19603f3d011682016040523d82523d6000602084013e61105c565b606091505b509150915061106c858383611163565b95945050505050565b34156109805760405163b398979f60e01b815260040160405180910390fd5b600080807f7fffffffffffffffffffffffffffffff5d576e7357a4501ddfe92f46681b20a08411156110cf5750600091506003905082611159565b604080516000808252602082018084528a905260ff891692820192909252606081018790526080810186905260019060a0016020604051602081039080840390855afa158015611123573d6000803e3d6000fd5b5050604051601f1901519150506001600160a01b03811661114f57506000925060019150829050611159565b9250600091508190505b9450945094915050565b60608261117857611173826111bf565b610408565b815115801561118f57506001600160a01b0384163b155b156111b857604051639996b31560e01b81526001600160a01b038516600482015260240161046b565b5080610408565b8051156111ce57805160208201fd5b60405163d6bda27560e01b815260040160405180910390fd5b6000602082840312156111f957600080fd5b81356001600160e01b03198116811461040857600080fd5b6001600160a01b0381168114610a2657600080fd5b60008083601f84011261123857600080fd5b50813567ffffffffffffffff81111561125057600080fd5b60208301915083602082850101111561126857600080fd5b9250929050565b60008060008060006080868803121561128757600080fd5b853561129281611211565b945060208601356112a281611211565b935060408601359250606086013567ffffffffffffffff8111156112c557600080fd5b6112d188828901611226565b969995985093965092949392505050565b6000806000606084860312156112f757600080fd5b833567ffffffffffffffff81111561130e57600080fd5b8401610120818703121561132157600080fd5b95602085013595506040909401359392505050565b60008083601f84011261134857600080fd5b50813567ffffffffffffffff81111561136057600080fd5b6020830191508360208260051b850101111561126857600080fd5b6000806000806000806060878903121561139457600080fd5b863567ffffffffffffffff808211156113ac57600080fd5b6113b88a838b01611336565b909850965060208901359150808211156113d157600080fd5b6113dd8a838b01611336565b909650945060408901359150808211156113f657600080fd5b5061140389828a01611336565b979a9699509497509295939492505050565b6000806040838503121561142857600080fd5b823561143381611211565b946020939093013593505050565b634e487b7160e01b600052604160045260246000fd5b6000806040838503121561146a57600080fd5b823561147581611211565b9150602083013567ffffffffffffffff8082111561149257600080fd5b818501915085601f8301126114a657600080fd5b8135818111156114b8576114b8611441565b604051601f8201601f19908116603f011681019083821181831017156114e0576114e0611441565b816040528281528860208487010111156114f957600080fd5b8260208601602083013760006020848301015280955050505050509250929050565b60005b8381101561153657818101518382015260200161151e565b50506000910152565b602081526000825180602084015261155e81604085016020870161151b565b601f01601f19169190910160400192915050565b6000806000806060858703121561158857600080fd5b843561159381611211565b935060208501359250604085013567ffffffffffffffff8111156115b657600080fd5b6115c287828801611226565b95989497509550505050565b60008060008060008060008060a0898b0312156115ea57600080fd5b88356115f581611211565b9750602089013561160581611211565b9650604089013567ffffffffffffffff8082111561162257600080fd5b61162e8c838d01611336565b909850965060608b013591508082111561164757600080fd5b6116538c838d01611336565b909650945060808b013591508082111561166c57600080fd5b506116798b828c01611226565b999c989b5096995094979396929594505050565b60006020828403121561169f57600080fd5b813561040881611211565b60008060008060008060a087890312156116c357600080fd5b86356116ce81611211565b955060208701356116de81611211565b94506040870135935060608701359250608087013567ffffffffffffffff81111561170857600080fd5b61140389828a01611226565b634e487b7160e01b600052603260045260246000fd5b6000808335601e1984360301811261174157600080fd5b83018035915067ffffffffffffffff82111561175c57600080fd5b60200191503681900382131561126857600080fd5b60006020828403121561178357600080fd5b5051919050565b6000825161179c81846020870161151b565b9190910192915050565b634e487b7160e01b600052602160045260246000fdfe360894a13ba1a3210667c828492db98dca3e2076cc3735a920a3ca505d382bbca26469706673582212209067672bfb6dd2ab09369c2007219bfca1ed4b8ce01b1a2f3644d1e35a375c7e64736f6c63430008170033","linkReferences":{}},"methodIdentifiers":{"UPGRADE_INTERFACE_VERSION()":"ad3cb1cc","addDeposit()":"4a58db19","entryPoint()":"b0d691fe","execute(address,uint256,bytes)":"b61d27f6","executeBatch(address[],uint256[],bytes[])":"47e1da2a","getDeposit()":"c399ec88","getNonce()":"d087d288","initialize(address)":"c4d66de8","onERC1155BatchReceived(address,address,uint256[],uint256[],bytes)":"bc197c81","onERC1155Received(address,address,uint256,uint256,bytes)":"f23a6e61","onERC721Received(address,address,uint256,bytes)":"150b7a02","owner()":"8da5cb5b","proxiableUUID()":"52d1902d","supportsInterface(bytes4)":"01ffc9a7","upgradeToAndCall(address,bytes)":"4f1ef286","validateUserOp((address,uint256,bytes,bytes,bytes32,uint256,bytes32,bytes,bytes),bytes32,uint256)":"19822f7c","withdrawDepositTo(address,uint256)":"4d44560d"},"id":9}