{"abi":[{"type":"constructor","inputs":[{"name":"anEntryPoint","type":"address","internalType":"contract IEntryPoint"}],"stateMutability":"nonpayable"},{"type":"fallback","stateMutability":"payable"},{"type":"receive","stateMutability":"payable"},{"type":"function","name":"entryPoint","inputs":[],"outputs":[{"name":"","type":"address","internalType":"contract IEntryPoint"}],"stateMutability":"view"},{"type":"function","name":"execute","inputs":[{"name":"dest","type":"address","internalType":"address"},{"name":"value","type":"uint256","internalType":"uint256"},{"name":"func","type":"bytes","internalType":"bytes"}],"outputs":[],"stateMutability":"nonpayable"},{"type":"function","name":"executeBatch","inputs":[{"name":"dest","type":"address[]","internalType":"address[]"},{"name":"func","type":"bytes[]","internalType":"bytes[]"}],"outputs":[],"stateMutability":"nonpayable"},{"type":"function","name":"executeBatch","inputs":[{"name":"dest","type":"address[]","internalType":"address[]"},{"name":"value","type":"uint256[]","internalType":"uint256[]"},{"name":"func","type":"bytes[]","internalType":"bytes[]"}],"outputs":[],"stateMutability":"nonpayable"},{"type":"function","name":"getNonce","inputs":[],"outputs":[{"name":"","type":"uint256","internalType":"uint256"}],"stateMutability":"view"},{"type":"function","name":"initialize","inputs":[{"name":"anOwner","type":"address","internalType":"address"}],"outputs":[],"stateMutability":"nonpayable"},{"type":"function","name":"isInitialized","inputs":[],"outputs":[{"name":"","type":"bool","internalType":"bool"}],"stateMutability":"view"},{"type":"function","name":"isValidSignature","inputs":[{"name":"hash","type":"bytes32","internalType":"bytes32"},{"name":"signature","type":"bytes","internalType":"bytes"}],"outputs":[{"name":"magicValue","type":"bytes4","internalType":"bytes4"}],"stateMutability":"view"},{"type":"function","name":"onERC1155BatchReceived","inputs":[{"name":"","type":"address","internalType":"address"},{"name":"","type":"address","internalType":"address"},{"name":"","type":"uint256[]","internalType":"uint256[]"},{"name":"","type":"uint256[]","internalType":"uint256[]"},{"name":"","type":"bytes","internalType":"bytes"}],"outputs":[{"name":"","type":"bytes4","internalType":"bytes4"}],"stateMutability":"nonpayable"},{"type":"function","name":"onERC1155Received","inputs":[{"name":"","type":"address","internalType":"address"},{"name":"","type":"address","internalType":"address"},{"name":"","type":"uint256","internalType":"uint256"},{"name":"","type":"uint256","internalType":"uint256"},{"name":"","type":"bytes","internalType":"bytes"}],"outputs":[{"name":"","type":"bytes4","internalType":"bytes4"}],"stateMutability":"nonpayable"},{"type":"function","name":"onERC721Received","inputs":[{"name":"","type":"address","internalType":"address"},{"name":"","type":"address","internalType":"address"},{"name":"","type":"uint256","internalType":"uint256"},{"name":"","type":"bytes","internalType":"bytes"}],"outputs":[{"name":"","type":"bytes4","internalType":"bytes4"}],"stateMutability":"nonpayable"},{"type":"function","name":"owner","inputs":[],"outputs":[{"name":"","type":"address","internalType":"address"}],"stateMutability":"view"},{"type":"function","name":"supportsInterface","inputs":[{"name":"interfaceId","type":"bytes4","internalType":"bytes4"}],"outputs":[{"name":"","type":"bool","internalType":"bool"}],"stateMutability":"pure"},{"type":"function","name":"validateUserOp","inputs":[{"name":"userOp","type":"tuple","internalType":"struct PackedUserOperation","components":[{"name":"sender","type":"address","internalType":"address"},{"name":"nonce","type":"uint256","internalType":"uint256"},{"name":"initCode","type":"bytes","internalType":"bytes"},{"name":"callData","type":"bytes","internalType":"bytes"},{"name":"accountGasLimits","type":"bytes32","internalType":"bytes32"},{"name":"preVerificationGas","type":"uint256","internalType":"uint256"},{"name":"gasFees","type":"bytes32","internalType":"bytes32"},{"name":"paymasterAndData","type":"bytes","internalType":"bytes"},{"name":"signature","type":"bytes","internalType":"bytes"}]},{"name":"userOpHash","type":"bytes32","internalType":"bytes32"},{"name":"missingAccountFunds","type":"uint256","internalType":"uint256"}],"outputs":[{"name":"validationData","type":"uint256","internalType":"uint256"}],"stateMutability":"nonpayable"},{"type":"event","name":"Initialized","inputs":[{"name":"version","type":"uint64","indexed":false,"internalType":"uint64"}],"anonymous":false},{"type":"event","name":"Simple7702AccountV07Initialized","inputs":[{"name":"entryPoint","type":"address","indexed":true,"internalType":"contract IEntryPoint"},{"name":"owner","type":"address","indexed":true,"internalType":"address"}],"anonymous":false},{"type":"error","name":"ECDSAInvalidSignature","inputs":[]},{"type":"error","name":"ECDSAInvalidSignatureLength","inputs":[{"name":"length","type":"uint256","internalType":"uint256"}]},{"type":"error","name":"ECDSAInvalidSignatureS","inputs":[{"name":"s","type":"bytes32","internalType":"bytes32"}]},{"type":"error","name":"InvalidInitialization","inputs":[]},{"type":"error","name":"NotInitializing","inputs":[]}],"bytecode":{"object":"0x60a060405234801561001057600080fd5b506040516114a43803806114a483398101604081905261002f916100fc565b6001600160a01b03811660805261004461004a565b5061012c565b7ff0c57e16840df040f15088dc2f81fe391c3923bec73e23a9662efc9c229c6a00805468010000000000000000900460ff161561009a5760405163f92ee8a960e01b815260040160405180910390fd5b80546001600160401b03908116146100f95780546001600160401b0319166001600160401b0390811782556040519081527fc7f505b2f371ae2175ee4913f4499e1f2633a7b5936321eed1cdaeb6115181d29060200160405180910390a15b50565b60006020828403121561010e57600080fd5b81516001600160a01b038116811461012557600080fd5b9392505050565b6080516113416101636000396000818161024c015281816106940152818161072d0152818161081f015261091e01526113416000f3fe6080604052600436106100d55760003560e01c80638da5cb5b11610079578063bc197c8111610056578063bc197c8114610290578063c4d66de8146102bc578063d087d288146102dc578063f23a6e61146102f157005b80638da5cb5b14610205578063b0d691fe1461023d578063b61d27f61461027057005b806318dfb3c7116100b257806318dfb3c71461017757806319822f7c14610197578063392e53cd146101c557806347e1da2a146101e557005b806301ffc9a7146100de578063150b7a02146101135780631626ba7e1461015757005b366100dc57005b005b3480156100ea57600080fd5b506100fe6100f9366004610cad565b61031d565b60405190151581526020015b60405180910390f35b34801561011f57600080fd5b5061013e61012e366004610da8565b630a85bd0160e11b949350505050565b6040516001600160e01b0319909116815260200161010a565b34801561016357600080fd5b5061013e610172366004610e0f565b6103a5565b34801561018357600080fd5b506100dc610192366004610ea0565b6103d3565b3480156101a357600080fd5b506101b76101b2366004610f0b565b6104a7565b60405190815260200161010a565b3480156101d157600080fd5b506000546001600160a01b031615156100fe565b3480156101f157600080fd5b506100dc610200366004610f5e565b6104c6565b34801561021157600080fd5b50600054610225906001600160a01b031681565b6040516001600160a01b03909116815260200161010a565b34801561024957600080fd5b507f0000000000000000000000000000000000000000000000000000000000000000610225565b34801561027c57600080fd5b506100dc61028b366004610ff7565b61057d565b34801561029c57600080fd5b5061013e6102ab3660046110fc565b63bc197c8160e01b95945050505050565b3480156102c857600080fd5b506100dc6102d73660046111a5565b6105cc565b3480156102e857600080fd5b506101b7610729565b3480156102fd57600080fd5b5061013e61030c3660046111c0565b63f23a6e6160e01b95945050505050565b60006001600160e01b031982166301ffc9a760e01b148061034e57506001600160e01b031982166306608bdf60e21b145b8061036957506001600160e01b03198216630b135d3f60e11b145b8061038457506001600160e01b03198216630271189760e51b145b8061039f57506001600160e01b03198216630a85bd0160e11b145b92915050565b60006103b183836107c2565b6103c3576001600160e01b03196103cc565b630b135d3f60e11b5b9392505050565b6103db610814565b8281146104035760405162461bcd60e51b81526004016103fa90611224565b60405180910390fd5b60005b838110156104a05761049885858381811061042357610423611251565b905060200201602081019061043891906111a5565b600085858581811061044c5761044c611251565b905060200281019061045e9190611267565b8080601f0160208091040260200160405190810160405280939291908181526020018383808284376000920191909152506108a392505050565b600101610406565b5050505050565b60006104b1610913565b6104bb848461098b565b90506103cc82610a34565b6104ce610814565b8481146104ed5760405162461bcd60e51b81526004016103fa90611224565b84831461050c5760405162461bcd60e51b81526004016103fa90611224565b60005b858110156105745761056c87878381811061052c5761052c611251565b905060200201602081019061054191906111a5565b86868481811061055357610553611251565b9050602002013585858581811061044c5761044c611251565b60010161050f565b50505050505050565b610585610814565b6105c6848484848080601f0160208091040260200160405190810160405280939291908181526020018383808284376000920191909152506108a392505050565b50505050565b60006105d6610a81565b805490915060ff600160401b82041615906001600160401b03166000811580156105fd5750825b90506000826001600160401b031660011480156106195750303b155b905081158015610627575080155b156106455760405163f92ee8a960e01b815260040160405180910390fd5b845467ffffffffffffffff19166001178555831561066f57845460ff60401b1916600160401b1785555b600080546001600160a01b0319166001600160a01b03888116918217835560405191927f0000000000000000000000000000000000000000000000000000000000000000909116917fba01fcbdc5087aded62607d8957ca1979b4fbeff61ac99fa09dad141e5965d7f9190a3831561072157845460ff60401b19168555604051600181527fc7f505b2f371ae2175ee4913f4499e1f2633a7b5936321eed1cdaeb6115181d29060200160405180910390a15b505050505050565b60007f0000000000000000000000000000000000000000000000000000000000000000604051631aab3f0d60e11b8152306004820152600060248201526001600160a01b0391909116906335567e1a90604401602060405180830381865afa158015610799573d6000803e3d6000fd5b505050506040513d601f19601f820116820180604052508101906107bd91906112ad565b905090565b7f19457468657265756d205369676e6564204d6573736167653a0a3332000000006000908152601c839052603c81206107fb8184610aaa565b6000546001600160a01b03918216911614949350505050565b336001600160a01b037f000000000000000000000000000000000000000000000000000000000000000016148061085557506000546001600160a01b031633145b6108a15760405162461bcd60e51b815260206004820181905260248201527f6163636f756e743a206e6f74204f776e6572206f7220456e747279506f696e7460448201526064016103fa565b565b600080846001600160a01b031684846040516108bf91906112c6565b60006040518083038185875af1925050503d80600081146108fc576040519150601f19603f3d011682016040523d82523d6000602084013e610901565b606091505b5091509150816104a057805160208201fd5b336001600160a01b037f000000000000000000000000000000000000000000000000000000000000000016146108a15760405162461bcd60e51b815260206004820152601c60248201527f6163636f756e743a206e6f742066726f6d20456e747279506f696e740000000060448201526064016103fa565b7f19457468657265756d205369676e6564204d6573736167653a0a3332000000006000908152601c829052603c8120610a086109cb610100860186611267565b8080601f0160208091040260200160405190810160405280939291908181526020018383808284376000920191909152508593925050610aaa9050565b6000546001600160a01b03908116911614610a2757600191505061039f565b5060009392505050565b50565b8015610a3157604051600090339060001990849084818181858888f193505050503d80600081146104a0576040519150601f19603f3d011682016040523d82523d6000602084013e6104a0565b6000807ff0c57e16840df040f15088dc2f81fe391c3923bec73e23a9662efc9c229c6a0061039f565b600080600080610aba8686610ad4565b925092509250610aca8282610b21565b5090949350505050565b60008060008351604103610b0e5760208401516040850151606086015160001a610b0088828585610bde565b955095509550505050610b1a565b50508151600091506002905b9250925092565b6000826003811115610b3557610b356112f5565b03610b3e575050565b6001826003811115610b5257610b526112f5565b03610b705760405163f645eedf60e01b815260040160405180910390fd5b6002826003811115610b8457610b846112f5565b03610ba55760405163fce698f760e01b8152600481018290526024016103fa565b6003826003811115610bb957610bb96112f5565b03610bda576040516335e2f38360e21b8152600481018290526024016103fa565b5050565b600080807f7fffffffffffffffffffffffffffffff5d576e7357a4501ddfe92f46681b20a0841115610c195750600091506003905082610ca3565b604080516000808252602082018084528a905260ff891692820192909252606081018790526080810186905260019060a0016020604051602081039080840390855afa158015610c6d573d6000803e3d6000fd5b5050604051601f1901519150506001600160a01b038116610c9957506000925060019150829050610ca3565b9250600091508190505b9450945094915050565b600060208284031215610cbf57600080fd5b81356001600160e01b0319811681146103cc57600080fd5b80356001600160a01b0381168114610cee57600080fd5b919050565b634e487b7160e01b600052604160045260246000fd5b604051601f8201601f191681016001600160401b0381118282101715610d3157610d31610cf3565b604052919050565b600082601f830112610d4a57600080fd5b81356001600160401b03811115610d6357610d63610cf3565b610d76601f8201601f1916602001610d09565b818152846020838601011115610d8b57600080fd5b816020850160208301376000918101602001919091529392505050565b60008060008060808587031215610dbe57600080fd5b610dc785610cd7565b9350610dd560208601610cd7565b92506040850135915060608501356001600160401b03811115610df757600080fd5b610e0387828801610d39565b91505092959194509250565b60008060408385031215610e2257600080fd5b8235915060208301356001600160401b03811115610e3f57600080fd5b610e4b85828601610d39565b9150509250929050565b60008083601f840112610e6757600080fd5b5081356001600160401b03811115610e7e57600080fd5b6020830191508360208260051b8501011115610e9957600080fd5b9250929050565b60008060008060408587031215610eb657600080fd5b84356001600160401b0380821115610ecd57600080fd5b610ed988838901610e55565b90965094506020870135915080821115610ef257600080fd5b50610eff87828801610e55565b95989497509550505050565b600080600060608486031215610f2057600080fd5b83356001600160401b03811115610f3657600080fd5b84016101208187031215610f4957600080fd5b95602085013595506040909401359392505050565b60008060008060008060608789031215610f7757600080fd5b86356001600160401b0380821115610f8e57600080fd5b610f9a8a838b01610e55565b90985096506020890135915080821115610fb357600080fd5b610fbf8a838b01610e55565b90965094506040890135915080821115610fd857600080fd5b50610fe589828a01610e55565b979a9699509497509295939492505050565b6000806000806060858703121561100d57600080fd5b61101685610cd7565b93506020850135925060408501356001600160401b038082111561103957600080fd5b818701915087601f83011261104d57600080fd5b81358181111561105c57600080fd5b88602082850101111561106e57600080fd5b95989497505060200194505050565b600082601f83011261108e57600080fd5b813560206001600160401b038211156110a9576110a9610cf3565b8160051b6110b8828201610d09565b92835284810182019282810190878511156110d257600080fd5b83870192505b848310156110f1578235825291830191908301906110d8565b979650505050505050565b600080600080600060a0868803121561111457600080fd5b61111d86610cd7565b945061112b60208701610cd7565b935060408601356001600160401b038082111561114757600080fd5b61115389838a0161107d565b9450606088013591508082111561116957600080fd5b61117589838a0161107d565b9350608088013591508082111561118b57600080fd5b5061119888828901610d39565b9150509295509295909350565b6000602082840312156111b757600080fd5b6103cc82610cd7565b600080600080600060a086880312156111d857600080fd5b6111e186610cd7565b94506111ef60208701610cd7565b9350604086013592506060860135915060808601356001600160401b0381111561121857600080fd5b61119888828901610d39565b60208082526013908201527277726f6e67206172726179206c656e6774687360681b604082015260600190565b634e487b7160e01b600052603260045260246000fd5b6000808335601e1984360301811261127e57600080fd5b8301803591506001600160401b0382111561129857600080fd5b602001915036819003821315610e9957600080fd5b6000602082840312156112bf57600080fd5b5051919050565b6000825160005b818110156112e757602081860181015185830152016112cd565b506000920191825250919050565b634e487b7160e01b600052602160045260246000fdfea26469706673582212207f918611799a1e89eaad4f9fb2ecd0ff10d317e41cae368a14387d68bc2891eb64736f6c63430008170033","linkReferences":{}},"methodIdentifiers":{"entryPoint()":"b0d691fe","execute(address,uint256,bytes)":"b61d27f6","executeBatch(address[],bytes[])":"18dfb3c7","executeBatch(address[],uint256[],bytes[])":"47e1da2a","getNonce()":"d087d288","initialize(address)":"c4d66de8","isInitialized()":"392e53cd","isValidSignature(bytes32,bytes)":"1626ba7e","onERC1155BatchReceived(address,address,uint256[],uint256[],bytes)":"bc197c81","onERC1155Received(address,address,uint256,uint256,bytes)":"f23a6e61","onERC721Received(address,address,uint256,bytes)":"150b7a02","owner()":"8da5cb5b","supportsInterface(bytes4)":"01ffc9a7","validateUserOp((address,uint256,bytes,bytes,bytes32,uint256,bytes32,bytes,bytes),bytes32,uint256)":"19822f7c"},"id":73}