{"abi":[{"type":"constructor","inputs":[{"name":"_entryPoint","type":"address","internalType":"contract IEntryPoint"},{"name":"_feeRecipient","type":"address","internalType":"address"}],"stateMutability":"nonpayable"},{"type":"fallback","stateMutability":"payable"},{"type":"receive","stateMutability":"payable"},{"type":"function","name":"FEE_RECIPIENT","inputs":[],"outputs":[{"name":"","type":"address","internalType":"address"}],"stateMutability":"view"},{"type":"function","name":"_decodePurchaseTokens","inputs":[{"name":"data","type":"bytes","internalType":"bytes"}],"outputs":[{"name":"sponsorship","type":"bool","internalType":"bool"}],"stateMutability":"pure"},{"type":"function","name":"_decodeSubmitPropertyAnalysis","inputs":[{"name":"data","type":"bytes","internalType":"bytes"}],"outputs":[{"name":"sponsorship","type":"bool","internalType":"bool"}],"stateMutability":"pure"},{"type":"function","name":"batchUpdateDestinationWhitelist","inputs":[{"name":"destinations","type":"address[]","internalType":"address[]"},{"name":"whitelisted","type":"bool[]","internalType":"bool[]"}],"outputs":[],"stateMutability":"nonpayable"},{"type":"function","name":"delegate","inputs":[],"outputs":[{"name":"","type":"address","internalType":"address"}],"stateMutability":"view"},{"type":"function","name":"entryPoint","inputs":[],"outputs":[{"name":"","type":"address","internalType":"contract IEntryPoint"}],"stateMutability":"view"},{"type":"function","name":"execute","inputs":[{"name":"dest","type":"address","internalType":"address"},{"name":"value","type":"uint256","internalType":"uint256"},{"name":"func","type":"bytes","internalType":"bytes"}],"outputs":[],"stateMutability":"nonpayable"},{"type":"function","name":"execute","inputs":[{"name":"dest","type":"address","internalType":"address"},{"name":"value","type":"uint256","internalType":"uint256"},{"name":"func","type":"bytes","internalType":"bytes"},{"name":"feeUsdcAmount","type":"uint256","internalType":"uint256"},{"name":"usdcPerEth","type":"uint256","internalType":"uint256"}],"outputs":[],"stateMutability":"nonpayable"},{"type":"function","name":"executeBatch","inputs":[{"name":"dest","type":"address[]","internalType":"address[]"},{"name":"func","type":"bytes[]","internalType":"bytes[]"}],"outputs":[],"stateMutability":"nonpayable"},{"type":"function","name":"executeBatch","inputs":[{"name":"dest","type":"address[]","internalType":"address[]"},{"name":"value","type":"uint256[]","internalType":"uint256[]"},{"name":"func","type":"bytes[]","internalType":"bytes[]"}],"outputs":[],"stateMutability":"nonpayable"},{"type":"function","name":"executeBatch","inputs":[{"name":"dest","type":"address[]","internalType":"address[]"},{"name":"func","type":"bytes[]","internalType":"bytes[]"},{"name":"feeUsdcAmount","type":"uint256","internalType":"uint256"},{"name":"usdcPerEth","type":"uint256","internalType":"uint256"}],"outputs":[],"stateMutability":"nonpayable"},{"type":"function","name":"getFeeParameters","inputs":[],"outputs":[{"name":"minFee","type":"uint256","internalType":"uint256"},{"name":"maxFee","type":"uint256","internalType":"uint256"},{"name":"hardCap","type":"uint256","internalType":"uint256"}],"stateMutability":"view"},{"type":"function","name":"getNonce","inputs":[],"outputs":[{"name":"","type":"uint256","internalType":"uint256"}],"stateMutability":"view"},{"type":"function","name":"hardFeeCap","inputs":[],"outputs":[{"name":"","type":"uint256","internalType":"uint256"}],"stateMutability":"view"},{"type":"function","name":"initialize","inputs":[{"name":"_owner","type":"address","internalType":"address"},{"name":"_delegate","type":"address","internalType":"address"},{"name":"_minExchangeRate","type":"uint256","internalType":"uint256"},{"name":"_maxExchangeRate","type":"uint256","internalType":"uint256"},{"name":"_minRequiredFee","type":"uint256","internalType":"uint256"},{"name":"_maxFeePerTransaction","type":"uint256","internalType":"uint256"}],"outputs":[],"stateMutability":"nonpayable"},{"type":"function","name":"initialize","inputs":[{"name":"anOwner","type":"address","internalType":"address"}],"outputs":[],"stateMutability":"nonpayable"},{"type":"function","name":"initializeWithConfig","inputs":[{"name":"config","type":"tuple","internalType":"struct Delegated7702Account.AccountConfig","components":[{"name":"owner","type":"address","internalType":"address"},{"name":"delegate","type":"address","internalType":"address"},{"name":"minExchangeRate","type":"uint256","internalType":"uint256"},{"name":"maxExchangeRate","type":"uint256","internalType":"uint256"},{"name":"minRequiredFee","type":"uint256","internalType":"uint256"},{"name":"maxFeePerTransaction","type":"uint256","internalType":"uint256"},{"name":"initialDestinations","type":"address[]","internalType":"address[]"},{"name":"destinationStatuses","type":"bool[]","internalType":"bool[]"}]}],"outputs":[],"stateMutability":"nonpayable"},{"type":"function","name":"isDestinationWhitelisted","inputs":[{"name":"destination","type":"address","internalType":"address"}],"outputs":[{"name":"whitelisted","type":"bool","internalType":"bool"}],"stateMutability":"view"},{"type":"function","name":"isInitialized","inputs":[],"outputs":[{"name":"","type":"bool","internalType":"bool"}],"stateMutability":"view"},{"type":"function","name":"isValidSignature","inputs":[{"name":"hash","type":"bytes32","internalType":"bytes32"},{"name":"signature","type":"bytes","internalType":"bytes"}],"outputs":[{"name":"magicValue","type":"bytes4","internalType":"bytes4"}],"stateMutability":"view"},{"type":"function","name":"isWhitelistedDestination","inputs":[{"name":"","type":"address","internalType":"address"}],"outputs":[{"name":"","type":"bool","internalType":"bool"}],"stateMutability":"view"},{"type":"function","name":"maxExchangeRate","inputs":[],"outputs":[{"name":"","type":"uint256","internalType":"uint256"}],"stateMutability":"view"},{"type":"function","name":"maxFeePerTransaction","inputs":[],"outputs":[{"name":"","type":"uint256","internalType":"uint256"}],"stateMutability":"view"},{"type":"function","name":"minExchangeRate","inputs":[],"outputs":[{"name":"","type":"uint256","internalType":"uint256"}],"stateMutability":"view"},{"type":"function","name":"minRequiredFee","inputs":[],"outputs":[{"name":"","type":"uint256","internalType":"uint256"}],"stateMutability":"view"},{"type":"function","name":"onERC1155BatchReceived","inputs":[{"name":"","type":"address","internalType":"address"},{"name":"","type":"address","internalType":"address"},{"name":"","type":"uint256[]","internalType":"uint256[]"},{"name":"","type":"uint256[]","internalType":"uint256[]"},{"name":"","type":"bytes","internalType":"bytes"}],"outputs":[{"name":"","type":"bytes4","internalType":"bytes4"}],"stateMutability":"nonpayable"},{"type":"function","name":"onERC1155Received","inputs":[{"name":"","type":"address","internalType":"address"},{"name":"","type":"address","internalType":"address"},{"name":"","type":"uint256","internalType":"uint256"},{"name":"","type":"uint256","internalType":"uint256"},{"name":"","type":"bytes","internalType":"bytes"}],"outputs":[{"name":"","type":"bytes4","internalType":"bytes4"}],"stateMutability":"nonpayable"},{"type":"function","name":"onERC721Received","inputs":[{"name":"","type":"address","internalType":"address"},{"name":"","type":"address","internalType":"address"},{"name":"","type":"uint256","internalType":"uint256"},{"name":"","type":"bytes","internalType":"bytes"}],"outputs":[{"name":"","type":"bytes4","internalType":"bytes4"}],"stateMutability":"nonpayable"},{"type":"function","name":"owner","inputs":[],"outputs":[{"name":"","type":"address","internalType":"address"}],"stateMutability":"view"},{"type":"function","name":"supportsInterface","inputs":[{"name":"interfaceId","type":"bytes4","internalType":"bytes4"}],"outputs":[{"name":"","type":"bool","internalType":"bool"}],"stateMutability":"pure"},{"type":"function","name":"updateDestinationWhitelist","inputs":[{"name":"destination","type":"address","internalType":"address"},{"name":"whitelisted","type":"bool","internalType":"bool"}],"outputs":[],"stateMutability":"nonpayable"},{"type":"function","name":"updateHardFeeCap","inputs":[{"name":"_hardCap","type":"uint256","internalType":"uint256"}],"outputs":[],"stateMutability":"nonpayable"},{"type":"function","name":"updateMaxExchangeRate","inputs":[{"name":"_maxRate","type":"uint256","internalType":"uint256"}],"outputs":[],"stateMutability":"nonpayable"},{"type":"function","name":"updateMaxFee","inputs":[{"name":"_maxFee","type":"uint256","internalType":"uint256"}],"outputs":[],"stateMutability":"nonpayable"},{"type":"function","name":"updateMinExchangeRate","inputs":[{"name":"_minRate","type":"uint256","internalType":"uint256"}],"outputs":[],"stateMutability":"nonpayable"},{"type":"function","name":"updateMinFee","inputs":[{"name":"_minFee","type":"uint256","internalType":"uint256"}],"outputs":[],"stateMutability":"nonpayable"},{"type":"function","name":"validateUserOp","inputs":[{"name":"userOp","type":"tuple","internalType":"struct PackedUserOperation","components":[{"name":"sender","type":"address","internalType":"address"},{"name":"nonce","type":"uint256","internalType":"uint256"},{"name":"initCode","type":"bytes","internalType":"bytes"},{"name":"callData","type":"bytes","internalType":"bytes"},{"name":"accountGasLimits","type":"bytes32","internalType":"bytes32"},{"name":"preVerificationGas","type":"uint256","internalType":"uint256"},{"name":"gasFees","type":"bytes32","internalType":"bytes32"},{"name":"paymasterAndData","type":"bytes","internalType":"bytes"},{"name":"signature","type":"bytes","internalType":"bytes"}]},{"name":"userOpHash","type":"bytes32","internalType":"bytes32"},{"name":"missingAccountFunds","type":"uint256","internalType":"uint256"}],"outputs":[{"name":"validationData","type":"uint256","internalType":"uint256"}],"stateMutability":"nonpayable"},{"type":"event","name":"DelegateUsed","inputs":[{"name":"delegate","type":"address","indexed":true,"internalType":"address"},{"name":"userOpHash","type":"bytes32","indexed":false,"internalType":"bytes32"}],"anonymous":false},{"type":"event","name":"DestinationWhitelistUpdated","inputs":[{"name":"destination","type":"address","indexed":true,"internalType":"address"},{"name":"whitelisted","type":"bool","indexed":false,"internalType":"bool"}],"anonymous":false},{"type":"event","name":"FeeCalculated","inputs":[{"name":"sender","type":"address","indexed":true,"internalType":"address"},{"name":"destination","type":"address","indexed":true,"internalType":"address"},{"name":"feeBreakdown","type":"tuple","indexed":false,"internalType":"struct Delegated7702Account.FeeBreakdown","components":[{"name":"protocolFee","type":"uint256","internalType":"uint256"},{"name":"executionFees","type":"tuple[]","internalType":"struct Delegated7702Account.ExecutionFee[]","components":[{"name":"id","type":"bytes32","internalType":"bytes32"},{"name":"fee","type":"uint256","internalType":"uint256"}]},{"name":"platformFee","type":"uint256","internalType":"uint256"},{"name":"reserved1","type":"uint256","internalType":"uint256"},{"name":"reserved2","type":"uint256","internalType":"uint256"},{"name":"reserved3","type":"uint256","internalType":"uint256"},{"name":"totalFee","type":"uint256","internalType":"uint256"}]}],"anonymous":false},{"type":"event","name":"FeeSponsored","inputs":[{"name":"sender","type":"address","indexed":true,"internalType":"address"},{"name":"destination","type":"address","indexed":true,"internalType":"address"},{"name":"sponsoredFees","type":"tuple","indexed":false,"internalType":"struct Delegated7702Account.FeeBreakdown","components":[{"name":"protocolFee","type":"uint256","internalType":"uint256"},{"name":"executionFees","type":"tuple[]","internalType":"struct Delegated7702Account.ExecutionFee[]","components":[{"name":"id","type":"bytes32","internalType":"bytes32"},{"name":"fee","type":"uint256","internalType":"uint256"}]},{"name":"platformFee","type":"uint256","internalType":"uint256"},{"name":"reserved1","type":"uint256","internalType":"uint256"},{"name":"reserved2","type":"uint256","internalType":"uint256"},{"name":"reserved3","type":"uint256","internalType":"uint256"},{"name":"totalFee","type":"uint256","internalType":"uint256"}]}],"anonymous":false},{"type":"event","name":"FeeSponsoredByMasterKey","inputs":[{"name":"feeRecipient","type":"address","indexed":true,"internalType":"address"},{"name":"feeAmount","type":"uint256","indexed":false,"internalType":"uint256"}],"anonymous":false},{"type":"event","name":"FeeTransferred","inputs":[{"name":"recipient","type":"address","indexed":true,"internalType":"address"},{"name":"amount","type":"uint256","indexed":false,"internalType":"uint256"}],"anonymous":false},{"type":"event","name":"Initialized","inputs":[{"name":"version","type":"uint64","indexed":false,"internalType":"uint64"}],"anonymous":false},{"type":"event","name":"MaxFeeUpdated","inputs":[{"name":"maxFee","type":"uint256","indexed":false,"internalType":"uint256"},{"name":"updatedBy","type":"address","indexed":true,"internalType":"address"}],"anonymous":false},{"type":"event","name":"MinFeeUpdated","inputs":[{"name":"minFee","type":"uint256","indexed":false,"internalType":"uint256"},{"name":"updatedBy","type":"address","indexed":true,"internalType":"address"}],"anonymous":false},{"type":"event","name":"Simple7702AccountV07Initialized","inputs":[{"name":"entryPoint","type":"address","indexed":true,"internalType":"contract IEntryPoint"},{"name":"owner","type":"address","indexed":true,"internalType":"address"}],"anonymous":false},{"type":"error","name":"DestinationNotWhitelisted","inputs":[{"name":"destination","type":"address","internalType":"address"}]},{"type":"error","name":"ECDSAInvalidSignature","inputs":[]},{"type":"error","name":"ECDSAInvalidSignatureLength","inputs":[{"name":"length","type":"uint256","internalType":"uint256"}]},{"type":"error","name":"ECDSAInvalidSignatureS","inputs":[{"name":"s","type":"bytes32","internalType":"bytes32"}]},{"type":"error","name":"FeeTooHigh","inputs":[{"name":"provided","type":"uint256","internalType":"uint256"},{"name":"maximum","type":"uint256","internalType":"uint256"}]},{"type":"error","name":"FeeTooLow","inputs":[{"name":"provided","type":"uint256","internalType":"uint256"},{"name":"required","type":"uint256","internalType":"uint256"}]},{"type":"error","name":"HardCapTooLow","inputs":[{"name":"hardCap","type":"uint256","internalType":"uint256"}]},{"type":"error","name":"InvalidExchangeRate","inputs":[{"name":"rate","type":"uint256","internalType":"uint256"}]},{"type":"error","name":"InvalidInitialization","inputs":[]},{"type":"error","name":"MaxFeeBelowMinFee","inputs":[{"name":"maxFee","type":"uint256","internalType":"uint256"},{"name":"minFee","type":"uint256","internalType":"uint256"}]},{"type":"error","name":"MaxFeeExceedsHardCap","inputs":[{"name":"maxFee","type":"uint256","internalType":"uint256"},{"name":"hardCap","type":"uint256","internalType":"uint256"}]},{"type":"error","name":"MinFeeExceedsMaxFee","inputs":[{"name":"minFee","type":"uint256","internalType":"uint256"},{"name":"maxFee","type":"uint256","internalType":"uint256"}]},{"type":"error","name":"NotInitializing","inputs":[]},{"type":"error","name":"OnlyDelegateFunction","inputs":[]},{"type":"error","name":"OnlyEntryPointAllowed","inputs":[]},{"type":"error","name":"OnlyOwnerFunction","inputs":[]}],"bytecode":{"object":"0x60c06040523480156200001157600080fd5b5060405162003bf338038062003bf3833981016040819052620000349162000191565b6001600160a01b038216608052816200004c620000c7565b506001600160a01b038116620000b45760405162461bcd60e51b8152602060048201526024808201527f46656520726563697069656e742063616e6e6f74206265207a65726f206164646044820152637265737360e01b606482015260840160405180910390fd5b6001600160a01b031660a05250620001d0565b7ff0c57e16840df040f15088dc2f81fe391c3923bec73e23a9662efc9c229c6a00805468010000000000000000900460ff1615620001185760405163f92ee8a960e01b815260040160405180910390fd5b80546001600160401b0390811614620001785780546001600160401b0319166001600160401b0390811782556040519081527fc7f505b2f371ae2175ee4913f4499e1f2633a7b5936321eed1cdaeb6115181d29060200160405180910390a15b50565b6001600160a01b03811681146200017857600080fd5b60008060408385031215620001a557600080fd5b8251620001b2816200017b565b6020840151909250620001c5816200017b565b809150509250929050565b60805160a0516139a262000251600039600081816106a30152818161142d015281816114610152818161151c01528181611d7901528181611e5801528181611e8c0152611f4701526000818161052601528181610fe101528181611805015281816118ef01528181611b1901528181612054015261215301526139a26000f3fe6080604052600436106102065760003560e01c806386489ba911610117578063c89e4361116100a5578063e39fbbc91161006c578063e39fbbc914610661578063ebd0905414610691578063ef7b1f62146106c5578063f0299dd8146106e5578063f23a6e611461071e57005b8063c89e4361146105d6578063d05144fc146105f6578063d087d28814610616578063d091ed471461062b578063d16f3a201461064157005b8063b0d691fe116100e9578063b0d691fe14610517578063b61d27f61461054a578063bc197c811461056a578063bdaf043414610596578063c4d66de8146105b657005b806386489ba91461047f5780638da5cb5b1461049f578063962354ee146104d7578063ad5c29f0146104f757005b8063392e53cd116101945780634867ef4f116101665780634867ef4f146103f35780634dcdfba514610413578063550dddeb146104295780635cc3b6451461044957806383728d2b1461046957005b8063392e53cd1461036c5780633f1b112a1461038c5780634722b4a5146103a257806347e1da2a146103d357005b806318dfb3c7116101d857806318dfb3c7146102cc57806319822f7c146102ec57806319eee9131461030c5780631b28ca531461032c57806330eb237f1461034c57005b806301ffc9a71461020f5780630c36b26f14610244578063150b7a02146102685780631626ba7e146102ac57005b3661020d57005b005b34801561021b57600080fd5b5061022f61022a366004612b76565b61074a565b60405190151581526020015b60405180910390f35b34801561025057600080fd5b5061025a60025481565b60405190815260200161023b565b34801561027457600080fd5b50610293610283366004612cbb565b630a85bd0160e11b949350505050565b6040516001600160e01b0319909116815260200161023b565b3480156102b857600080fd5b506102936102c7366004612d22565b6107d2565b3480156102d857600080fd5b5061020d6102e7366004612db3565b610800565b3480156102f857600080fd5b5061025a610307366004612e1e565b6108d4565b34801561031857600080fd5b5061022f610327366004612eb2565b6108f3565b34801561033857600080fd5b5061020d610347366004612ef3565b61090f565b34801561035857600080fd5b5061022f610367366004612eb2565b610bf0565b34801561037857600080fd5b506000546001600160a01b0316151561022f565b34801561039857600080fd5b5061025a60035481565b3480156103ae57600080fd5b506002546003546004546040805193845260208401929092529082015260600161023b565b3480156103df57600080fd5b5061020d6103ee366004612f2e565b610c0b565b3480156103ff57600080fd5b5061020d61040e366004612fc7565b610cc2565b34801561041f57600080fd5b5061025a60045481565b34801561043557600080fd5b5061020d610444366004612fc7565b610d5c565b34801561045557600080fd5b5061020d610464366004612ff9565b610e1d565b34801561047557600080fd5b5061025a60065481565b34801561048b57600080fd5b5061020d61049a366004613030565b610e9c565b3480156104ab57600080fd5b506000546104bf906001600160a01b031681565b6040516001600160a01b03909116815260200161023b565b3480156104e357600080fd5b5061020d6104f2366004612fc7565b610f49565b34801561050357600080fd5b5061020d610512366004613085565b610fd6565b34801561052357600080fd5b507f00000000000000000000000000000000000000000000000000000000000000006104bf565b34801561055657600080fd5b5061020d610565366004613102565b6115db565b34801561057657600080fd5b506102936105853660046131e1565b63bc197c8160e01b95945050505050565b3480156105a257600080fd5b5061020d6105b1366004612fc7565b61162a565b3480156105c257600080fd5b5061020d6105d136600461328a565b61173d565b3480156105e257600080fd5b506001546104bf906001600160a01b031681565b34801561060257600080fd5b5061020d610611366004612fc7565b61189a565b34801561062257600080fd5b5061025a6118eb565b34801561063757600080fd5b5061025a60055481565b34801561064d57600080fd5b5061020d61065c366004612db3565b611984565b34801561066d57600080fd5b5061022f61067c36600461328a565b60076020526000908152604090205460ff1681565b34801561069d57600080fd5b506104bf7f000000000000000000000000000000000000000000000000000000000000000081565b3480156106d157600080fd5b5061020d6106e03660046132a5565b611b0e565b3480156106f157600080fd5b5061022f61070036600461328a565b6001600160a01b031660009081526007602052604090205460ff1690565b34801561072a57600080fd5b50610293610739366004613310565b63f23a6e6160e01b95945050505050565b60006001600160e01b031982166301ffc9a760e01b148061077b57506001600160e01b031982166306608bdf60e21b145b8061079657506001600160e01b03198216630b135d3f60e11b145b806107b157506001600160e01b03198216630271189760e51b145b806107cc57506001600160e01b03198216630a85bd0160e11b145b92915050565b60006107de8383611ff7565b6107f0576001600160e01b03196107f9565b630b135d3f60e11b5b9392505050565b610808612049565b8281146108305760405162461bcd60e51b815260040161082790613374565b60405180910390fd5b60005b838110156108cd576108c5858583818110610850576108506133a1565b9050602002016020810190610865919061328a565b6000858585818110610879576108796133a1565b905060200281019061088b91906133b7565b8080601f0160208091040260200160405190810160405280939291908181526020018383808284376000920191909152506120d892505050565b600101610833565b5050505050565b60006108de612148565b6108e884846121c0565b90506107f982612334565b600080610902838501856135a7565b5060a00151949350505050565b80604001358160600135116109365760405162461bcd60e51b8152600401610827906135eb565b629896808160a00135111561095d5760405162461bcd60e51b815260040161082790613631565b8060a00135816080013511156109855760405162461bcd60e51b815260040161082790613677565b61099260e08201826136c4565b90506109a160c08301836136c4565b905014610a165760405162461bcd60e51b815260206004820152603760248201527f44657374696e6174696f6e7320616e642073746174757365732061727261797360448201527f206d757374206861766520657175616c206c656e6774680000000000000000006064820152608401610827565b610a23602082018261328a565b600080546001600160a01b0319166001600160a01b0392909216919091179055610a53604082016020830161328a565b600180546001600160a01b0319166001600160a01b0392909216919091179055608081013560025560a0810135600355604081013560055560608101356006556298968060045560005b610aaa60c08301836136c4565b9050811015610bec57610ac060e08301836136c4565b82818110610ad057610ad06133a1565b9050602002016020810190610ae5919061370d565b60076000610af660c08601866136c4565b85818110610b0657610b066133a1565b9050602002016020810190610b1b919061328a565b6001600160a01b031681526020810191909152604001600020805460ff1916911515919091179055610b5060c08301836136c4565b82818110610b6057610b606133a1565b9050602002016020810190610b75919061328a565b6001600160a01b03167ff12936333d9bd80e8fa690cb7cab64b6a55cd75a267918d8668fb15c807aadb9610bac60e08501856136c4565b84818110610bbc57610bbc6133a1565b9050602002016020810190610bd1919061370d565b604051901515815260200160405180910390a2600101610a9d565b5050565b600080610bff8385018561372a565b60a00151949350505050565b610c13612049565b848114610c325760405162461bcd60e51b815260040161082790613374565b848314610c515760405162461bcd60e51b815260040161082790613374565b60005b85811015610cb957610cb1878783818110610c7157610c716133a1565b9050602002016020810190610c86919061328a565b868684818110610c9857610c986133a1565b90506020020135858585818110610879576108796133a1565b600101610c54565b50505050505050565b6001546001600160a01b03163314610ced5760405163e70f27d560e01b815260040160405180910390fd5b600354811115610d1e57600354604051637340932b60e01b8152610827918391600401918252602082015260400190565b600281905560405181815233907f8629ef333da3b54add5d604342ba8ff48e707e2bd11a757011a025187538048b906020015b60405180910390a250565b6001546001600160a01b03163314610d875760405163e70f27d560e01b815260040160405180910390fd5b600454811115610db5576004805460405163e131fedf60e01b81529182018390526024820152604401610827565b600254811015610de657600254604051636b029b6f60e11b8152610827918391600401918252602082015260400190565b600381905560405181815233907f99e8f61f567d2cee8755540b893931e3ade09dfb0a8f9be1a90ad44fad710e8290602001610d51565b333014610e3d5760405163e70f27d560e01b815260040160405180910390fd5b6001600160a01b038216600081815260076020908152604091829020805460ff191685151590811790915591519182527ff12936333d9bd80e8fa690cb7cab64b6a55cd75a267918d8668fb15c807aadb9910160405180910390a25050565b838311610ebb5760405162461bcd60e51b8152600401610827906135eb565b62989680811115610ede5760405162461bcd60e51b815260040161082790613631565b80821115610efe5760405162461bcd60e51b815260040161082790613677565b600080546001600160a01b039788166001600160a01b031991821617909155600180549690971695169490941790945560029390935560039190915560055560065562989680600455565b6000546001600160a01b03163314610f745760405163a8a483ad60e01b815260040160405180910390fd5b6006548110610fd15760405162461bcd60e51b815260206004820152602360248201527f4d696e2072617465206d757374206265206c657373207468616e206d6178207260448201526261746560e81b6064820152608401610827565b600555565b336001600160a01b037f0000000000000000000000000000000000000000000000000000000000000000161461101f5760405163e01ff8c160e01b815260040160405180910390fd5b84831461103e5760405162461bcd60e51b815260040161082790613374565b60025482101561106f576002546040516378279ed960e11b8152610827918491600401918252602082015260400190565b6003548211156110a0576003546040516373ab893560e11b8152610827918491600401918252602082015260400190565b6005548110806110b1575060065481115b156110d25760405163d8d9aee760e01b815260048101829052602401610827565b60045482908111156110e357506004545b6000826110f883670de0b6b3a764000061377c565b6111029190613793565b905060005b878110156111af57600760008a8a84818110611125576111256133a1565b905060200201602081019061113a919061328a565b6001600160a01b0316815260208101919091526040016000205460ff166111a75788888281811061116d5761116d6133a1565b9050602002016020810190611182919061328a565b60405163016241a960e31b81526001600160a01b039091166004820152602401610827565b600101611107565b50804710156112005760405162461bcd60e51b815260206004820181905260248201527f496e73756666696369656e74204554482062616c616e636520666f72206665656044820152606401610827565b84156112b05760006112368787600081811061121e5761121e6133a1565b905060200281019061123091906133b7565b84612381565b90508888600081811061124b5761124b6133a1565b9050602002016020810190611260919061328a565b6001600160a01b0316336001600160a01b03167fe43ea144cbbf6de550ac149ab576cfebdbfab1507ca6fd97bd2c5dcd156283a7836040516112a291906137b5565b60405180910390a350611420565b6112f06040518060e00160405280600081526020016060815260200160008152602001600081526020016000815260200160008152602001600081525090565b60646112fd83601e61377c565b6113079190613793565b8152606461131683601461377c565b6113209190613793565b6040828101919091528051600180825281830190925290816020015b604080518082019091526000808252602082015281526020019060019003908161133c57905050816020018190525060405180604001604052807f344cb0f1327234954b4cc85254786a28089870ca788cad991ea9dddaa7c23a41815260200160648460326113ab919061377c565b6113b59190613793565b81525081602001516000815181106113cf576113cf6133a1565b602090810291909101015260c0810182905260405160009033907fe43ea144cbbf6de550ac149ab576cfebdbfab1507ca6fd97bd2c5dcd156283a7906114169085906137b5565b60405180910390a3505b60008111801561145857507f00000000000000000000000000000000000000000000000000000000000000006001600160a01b031615155b1561157f5760007f00000000000000000000000000000000000000000000000000000000000000006001600160a01b03168260405160006040518083038185875af1925050503d80600081146114ca576040519150601f19603f3d011682016040523d82523d6000602084013e6114cf565b606091505b505090508061151a5760405162461bcd60e51b815260206004820152601760248201527611551208199959481d1c985b9cd9995c8819985a5b1959604a1b6044820152606401610827565b7f00000000000000000000000000000000000000000000000000000000000000006001600160a01b03167f34e8a84e537ed93d93ddf39a78816dcbc74df8397c635838b8cc973d4fa943f88360405161157591815260200190565b60405180910390a2505b60005b878110156115d0576115c889898381811061159f5761159f6133a1565b90506020020160208101906115b4919061328a565b6000898985818110610879576108796133a1565b600101611582565b505050505050505050565b6115e3612049565b611624848484848080601f0160208091040260200160405190810160405280939291908181526020018383808284376000920191909152506120d892505050565b50505050565b6000546001600160a01b031633146116555760405163a8a483ad60e01b815260040160405180910390fd5b600081116116b05760405162461bcd60e51b815260206004820152602260248201527f4861726420636170206d7573742062652067726561746572207468616e207a65604482015261726f60f01b6064820152608401610827565b600481905560035481101561173a57600381905560405181815233907f99e8f61f567d2cee8755540b893931e3ade09dfb0a8f9be1a90ad44fad710e829060200160405180910390a280600254111561173a57600281905560405181815233907f8629ef333da3b54add5d604342ba8ff48e707e2bd11a757011a025187538048b90602001610d51565b50565b600061174761243f565b805490915060ff600160401b82041615906001600160401b031660008115801561176e5750825b90506000826001600160401b0316600114801561178a5750303b155b905081158015611798575080155b156117b65760405163f92ee8a960e01b815260040160405180910390fd5b845467ffffffffffffffff1916600117855583156117e057845460ff60401b1916600160401b1785555b600080546001600160a01b0319166001600160a01b03888116918217835560405191927f0000000000000000000000000000000000000000000000000000000000000000909116917fba01fcbdc5087aded62607d8957ca1979b4fbeff61ac99fa09dad141e5965d7f9190a3831561189257845460ff60401b19168555604051600181527fc7f505b2f371ae2175ee4913f4499e1f2633a7b5936321eed1cdaeb6115181d29060200160405180910390a15b505050505050565b6000546001600160a01b031633146118c55760405163a8a483ad60e01b815260040160405180910390fd5b60055481116118e65760405162461bcd60e51b8152600401610827906135eb565b600655565b60007f0000000000000000000000000000000000000000000000000000000000000000604051631aab3f0d60e11b8152306004820152600060248201526001600160a01b0391909116906335567e1a90604401602060405180830381865afa15801561195b573d6000803e3d6000fd5b505050506040513d601f19601f8201168201806040525081019061197f9190613855565b905090565b6001546001600160a01b031633146119af5760405163e70f27d560e01b815260040160405180910390fd5b8281146119f65760405162461bcd60e51b8152602060048201526015602482015274082e4e4c2f240d8cadccee8d040dad2e6dac2e8c6d605b1b6044820152606401610827565b60005b838110156108cd57828282818110611a1357611a136133a1565b9050602002016020810190611a28919061370d565b60076000878785818110611a3e57611a3e6133a1565b9050602002016020810190611a53919061328a565b6001600160a01b031681526020810191909152604001600020805460ff1916911515919091179055848482818110611a8d57611a8d6133a1565b9050602002016020810190611aa2919061328a565b6001600160a01b03167ff12936333d9bd80e8fa690cb7cab64b6a55cd75a267918d8668fb15c807aadb9848484818110611ade57611ade6133a1565b9050602002016020810190611af3919061370d565b604051901515815260200160405180910390a26001016119f9565b336001600160a01b037f00000000000000000000000000000000000000000000000000000000000000001614611b575760405163e01ff8c160e01b815260040160405180910390fd5b600254821015611b88576002546040516378279ed960e11b8152610827918491600401918252602082015260400190565b600354821115611bb9576003546040516373ab893560e11b8152610827918491600401918252602082015260400190565b600554811080611bca575060065481115b15611beb5760405163d8d9aee760e01b815260048101829052602401610827565b6004548290811115611bfc57506004545b600082611c1183670de0b6b3a764000061377c565b611c1b9190613793565b6001600160a01b03891660009081526007602052604090205490915060ff16611c625760405163016241a960e31b81526001600160a01b0389166004820152602401610827565b6000611c6f878784612381565b9050886001600160a01b0316336001600160a01b03167fe43ea144cbbf6de550ac149ab576cfebdbfab1507ca6fd97bd2c5dcd156283a783604051611cb491906137b5565b60405180910390a36000611cc98a8989612468565b90508015611ddf5788471015611d2c5760405162461bcd60e51b815260206004820152602260248201527f496e73756666696369656e74204554482062616c616e636520666f722076616c604482015261756560f01b6064820152608401610827565b896001600160a01b0316336001600160a01b03167fa864987eaebf6d66b036151c6b7a20e43e7cd92b9e648691c091638426e368b084604051611d6f91906137b5565b60405180910390a37f00000000000000000000000000000000000000000000000000000000000000006001600160a01b03167f2bd783d5edab7e192dbb4c8b86f4e6fa9078424092f1000d9b545275cf98d50784604051611dd291815260200190565b60405180910390a2611faa565b611de9838a61386e565b471015611e4b5760405162461bcd60e51b815260206004820152602a60248201527f496e73756666696369656e74204554482062616c616e636520666f722076616c604482015269756520616e642066656560b01b6064820152608401610827565b600083118015611e8357507f00000000000000000000000000000000000000000000000000000000000000006001600160a01b031615155b15611faa5760007f00000000000000000000000000000000000000000000000000000000000000006001600160a01b03168460405160006040518083038185875af1925050503d8060008114611ef5576040519150601f19603f3d011682016040523d82523d6000602084013e611efa565b606091505b5050905080611f455760405162461bcd60e51b815260206004820152601760248201527611551208199959481d1c985b9cd9995c8819985a5b1959604a1b6044820152606401610827565b7f00000000000000000000000000000000000000000000000000000000000000006001600160a01b03167f34e8a84e537ed93d93ddf39a78816dcbc74df8397c635838b8cc973d4fa943f885604051611fa091815260200190565b60405180910390a2505b611feb8a8a8a8a8080601f0160208091040260200160405190810160405280939291908181526020018383808284376000920191909152506120d892505050565b50505050505050505050565b7f19457468657265756d205369676e6564204d6573736167653a0a3332000000006000908152601c839052603c81206120308184612563565b6000546001600160a01b03918216911614949350505050565b336001600160a01b037f000000000000000000000000000000000000000000000000000000000000000016148061208a57506000546001600160a01b031633145b6120d65760405162461bcd60e51b815260206004820181905260248201527f6163636f756e743a206e6f74204f776e6572206f7220456e747279506f696e746044820152606401610827565b565b600080846001600160a01b031684846040516120f49190613881565b60006040518083038185875af1925050503d8060008114612131576040519150601f19603f3d011682016040523d82523d6000602084013e612136565b606091505b5091509150816108cd57805160208201fd5b336001600160a01b037f000000000000000000000000000000000000000000000000000000000000000016146120d65760405162461bcd60e51b815260206004820152601c60248201527f6163636f756e743a206e6f742066726f6d20456e747279506f696e74000000006044820152606401610827565b7f19457468657265756d205369676e6564204d6573736167653a0a3332000000006000908152601c829052603c8120600061223f6122026101008701876133b7565b8080601f01602080910402602001604051908101604052809392919081815260200183838082843760009201919091525086939250506125639050565b6001549091506001600160a01b0316156122c1576001546001600160a01b03908116908216036122b6576001546040518581526001600160a01b03909116907f2d27bd1200042fa25303e24cacd6892d9c8dacf3780736d24f22b1a9daccc6a79060200160405180910390a26000925050506107cc565b6001925050506107cc565b6000546001600160a01b0316158015906122e857506000546001600160a01b038281169116145b156122f8576000925050506107cc565b6000546001600160a01b031615801561231957506001600160a01b03811630145b15612329576000925050506107cc565b506001949350505050565b801561173a57604051600090339060001990849084818181858888f193505050503d80600081146108cd576040519150601f19603f3d011682016040523d82523d6000602084013e6108cd565b6123c16040518060e00160405280600081526020016060815260200160008152602001600081526020016000815260200160008152602001600081525090565b60646123ce83601e61377c565b6123d89190613793565b815260646123e783601461377c565b6123f19190613793565b60408201526124178484606461240886603261377c565b6124129190613793565b61258d565b60208201526000606082018190526080820181905260a082015260c081018290529392505050565b6000807ff0c57e16840df040f15088dc2f81fe391c3923bec73e23a9662efc9c229c6a006107cc565b6000600482101561247b575060006107f9565b600061248a60048285876138b0565b612493916138da565b90506001600160e01b0319811663832d7e6960e01b0361252d57306330eb237f6124c085600481896138b0565b6040518363ffffffff1660e01b81526004016124dd92919061390a565b602060405180830381865afa925050508015612516575060408051601f3d908101601f1916820190925261251391810190613939565b60015b6125245760009150506107f9565b91506107f99050565b6001600160e01b03198116636f84329f60e01b0361255857306319eee9136124c085600481896138b0565b506000949350505050565b60008060008061257386866129a1565b92509250925061258382826129ee565b5090949350505050565b6060600483101561262e5760408051600180825281830190925290816020015b60408051808201909152600080825260208201528152602001906001900390816125ad57905050905060405180604001604052807f8364c3767e797e2abe1e2eb32a8d79faef034dc82b4f0af3e5c798cb163f5f818152602001838152508160008151811061261e5761261e6133a1565b60200260200101819052506107f9565b600061263d60048286886138b0565b612646916138da565b90506001600160e01b0319811663832d7e6960e01b0361277b576040805160028082526060820190925290816020015b604080518082019091526000808252602082015281526020019060019003908161267657905050915060405180604001604052807fd584ea033b2617ddc60ab2be1cb201cd76bdfe3af35c63817367d117e0cd0a94815260200160648560466126df919061377c565b6126e99190613793565b815250826000815181106126ff576126ff6133a1565b602002602001018190525060405180604001604052807fd5ea97cb3076fa1fb047fbe5918ed05c676ad54b0613e243f993ef1a1d591a2d8152602001606485601e61274a919061377c565b6127549190613793565b8152508260018151811061276a5761276a6133a1565b6020026020010181905250506107f9565b6001600160e01b03198116636f84329f60e01b03612908576040805160038082526080820190925290816020015b60408051808201909152600080825260208201528152602001906001900390816127a957905050915060405180604001604052807f5fa46f5b6db5d7d083de3a3d58bba0a32bd04425fadb111761739e6594fc7b1081526020016064856032612812919061377c565b61281c9190613793565b81525082600081518110612832576128326133a1565b602002602001018190525060405180604001604052807fd5ea97cb3076fa1fb047fbe5918ed05c676ad54b0613e243f993ef1a1d591a2d8152602001606485601e61287d919061377c565b6128879190613793565b8152508260018151811061289d5761289d6133a1565b602002602001018190525060405180604001604052807f85f15e1b7cd56792dde24eb24a8d705ce45aaae89a91f00b953d03371b6bc0ab815260200160648560146128e8919061377c565b6128f29190613793565b8152508260028151811061276a5761276a6133a1565b60408051600180825281830190925290816020015b604080518082019091526000808252602082015281526020019060019003908161291d57905050915060405180604001604052807fff5ddd34c2af1295505d2cec18fab64eff67ccc5aa0614e3e9454a405d0c434d8152602001848152508260008151811061298e5761298e6133a1565b6020026020010181905250509392505050565b600080600083516041036129db5760208401516040850151606086015160001a6129cd88828585612aa7565b9550955095505050506129e7565b50508151600091506002905b9250925092565b6000826003811115612a0257612a02613956565b03612a0b575050565b6001826003811115612a1f57612a1f613956565b03612a3d5760405163f645eedf60e01b815260040160405180910390fd5b6002826003811115612a5157612a51613956565b03612a725760405163fce698f760e01b815260048101829052602401610827565b6003826003811115612a8657612a86613956565b03610bec576040516335e2f38360e21b815260048101829052602401610827565b600080807f7fffffffffffffffffffffffffffffff5d576e7357a4501ddfe92f46681b20a0841115612ae25750600091506003905082612b6c565b604080516000808252602082018084528a905260ff891692820192909252606081018790526080810186905260019060a0016020604051602081039080840390855afa158015612b36573d6000803e3d6000fd5b5050604051601f1901519150506001600160a01b038116612b6257506000925060019150829050612b6c565b9250600091508190505b9450945094915050565b600060208284031215612b8857600080fd5b81356001600160e01b0319811681146107f957600080fd5b80356001600160a01b0381168114612bb757600080fd5b919050565b634e487b7160e01b600052604160045260246000fd5b604051606081016001600160401b0381118282101715612bf457612bf4612bbc565b60405290565b60405160e081016001600160401b0381118282101715612bf457612bf4612bbc565b604051601f8201601f191681016001600160401b0381118282101715612c4457612c44612bbc565b604052919050565b600082601f830112612c5d57600080fd5b81356001600160401b03811115612c7657612c76612bbc565b612c89601f8201601f1916602001612c1c565b818152846020838601011115612c9e57600080fd5b816020850160208301376000918101602001919091529392505050565b60008060008060808587031215612cd157600080fd5b612cda85612ba0565b9350612ce860208601612ba0565b92506040850135915060608501356001600160401b03811115612d0a57600080fd5b612d1687828801612c4c565b91505092959194509250565b60008060408385031215612d3557600080fd5b8235915060208301356001600160401b03811115612d5257600080fd5b612d5e85828601612c4c565b9150509250929050565b60008083601f840112612d7a57600080fd5b5081356001600160401b03811115612d9157600080fd5b6020830191508360208260051b8501011115612dac57600080fd5b9250929050565b60008060008060408587031215612dc957600080fd5b84356001600160401b0380821115612de057600080fd5b612dec88838901612d68565b90965094506020870135915080821115612e0557600080fd5b50612e1287828801612d68565b95989497509550505050565b600080600060608486031215612e3357600080fd5b83356001600160401b03811115612e4957600080fd5b84016101208187031215612e5c57600080fd5b95602085013595506040909401359392505050565b60008083601f840112612e8357600080fd5b5081356001600160401b03811115612e9a57600080fd5b602083019150836020828501011115612dac57600080fd5b60008060208385031215612ec557600080fd5b82356001600160401b03811115612edb57600080fd5b612ee785828601612e71565b90969095509350505050565b600060208284031215612f0557600080fd5b81356001600160401b03811115612f1b57600080fd5b820161010081850312156107f957600080fd5b60008060008060008060608789031215612f4757600080fd5b86356001600160401b0380821115612f5e57600080fd5b612f6a8a838b01612d68565b90985096506020890135915080821115612f8357600080fd5b612f8f8a838b01612d68565b90965094506040890135915080821115612fa857600080fd5b50612fb589828a01612d68565b979a9699509497509295939492505050565b600060208284031215612fd957600080fd5b5035919050565b801515811461173a57600080fd5b8035612bb781612fe0565b6000806040838503121561300c57600080fd5b61301583612ba0565b9150602083013561302581612fe0565b809150509250929050565b60008060008060008060c0878903121561304957600080fd5b61305287612ba0565b955061306060208801612ba0565b95989597505050506040840135936060810135936080820135935060a0909101359150565b6000806000806000806080878903121561309e57600080fd5b86356001600160401b03808211156130b557600080fd5b6130c18a838b01612d68565b909850965060208901359150808211156130da57600080fd5b506130e789828a01612d68565b979a9699509760408101359660609091013595509350505050565b6000806000806060858703121561311857600080fd5b61312185612ba0565b93506020850135925060408501356001600160401b0381111561314357600080fd5b612e1287828801612e71565b60006001600160401b0382111561316857613168612bbc565b5060051b60200190565b600082601f83011261318357600080fd5b813560206131986131938361314f565b612c1c565b8083825260208201915060208460051b8701019350868411156131ba57600080fd5b602086015b848110156131d657803583529183019183016131bf565b509695505050505050565b600080600080600060a086880312156131f957600080fd5b61320286612ba0565b945061321060208701612ba0565b935060408601356001600160401b038082111561322c57600080fd5b61323889838a01613172565b9450606088013591508082111561324e57600080fd5b61325a89838a01613172565b9350608088013591508082111561327057600080fd5b5061327d88828901612c4c565b9150509295509295909350565b60006020828403121561329c57600080fd5b6107f982612ba0565b60008060008060008060a087890312156132be57600080fd5b6132c787612ba0565b95506020870135945060408701356001600160401b038111156132e957600080fd5b6132f589828a01612e71565b979a9699509760608101359660809091013595509350505050565b600080600080600060a0868803121561332857600080fd5b61333186612ba0565b945061333f60208701612ba0565b9350604086013592506060860135915060808601356001600160401b0381111561336857600080fd5b61327d88828901612c4c565b60208082526013908201527277726f6e67206172726179206c656e6774687360681b604082015260600190565b634e487b7160e01b600052603260045260246000fd5b6000808335601e198436030181126133ce57600080fd5b8301803591506001600160401b038211156133e857600080fd5b602001915036819003821315612dac57600080fd5b600082601f83011261340e57600080fd5b8135602061341e6131938361314f565b82815260059290921b8401810191818101908684111561343d57600080fd5b8286015b848110156131d65780356001600160401b03808211156134615760008081fd5b908801906060828b03601f190181131561347b5760008081fd5b613483612bd2565b8784013581526040808501358481111561349d5760008081fd5b6134ab8e8b83890101612c4c565b838b0152509184013591838311156134c35760008081fd5b6134d18d8a85880101612c4c565b908201528652505050918301918301613441565b600060e082840312156134f757600080fd5b6134ff612bfa565b905081358152602082013560208201526040820135604082015260608201356001600160401b038082111561353357600080fd5b61353f858386016133fd565b6060840152608084013591508082111561355857600080fd5b61356485838601612c4c565b608084015261357560a08501612fee565b60a084015260c084013591508082111561358e57600080fd5b5061359b84828501612c4c565b60c08301525092915050565b600080604083850312156135ba57600080fd5b82356001600160401b038111156135d057600080fd5b6135dc858286016134e5565b95602094909401359450505050565b60208082526026908201527f4d61782072617465206d7573742062652067726561746572207468616e206d696040820152656e207261746560d01b606082015260800190565b60208082526026908201527f4d6178206665652063616e6e6f7420657863656564203130205553444320686160408201526507264206361760d41b606082015260800190565b6020808252602d908201527f4d696e20666565206d757374206265206c657373207468616e206f722065717560408201526c616c20746f206d61782066656560981b606082015260800190565b6000808335601e198436030181126136db57600080fd5b8301803591506001600160401b038211156136f557600080fd5b6020019150600581901b3603821315612dac57600080fd5b60006020828403121561371f57600080fd5b81356107f981612fe0565b60006020828403121561373c57600080fd5b81356001600160401b0381111561375257600080fd5b61375e848285016134e5565b949350505050565b634e487b7160e01b600052601160045260246000fd5b80820281158282048414176107cc576107cc613766565b6000826137b057634e487b7160e01b600052601260045260246000fd5b500490565b60006020808352610100830184518285015281850151604060e06040870152828251808552610120880191508584019450600093505b8084101561381457845180518352860151868301529385019360019390930192908201906137eb565b506040880151606088015260608801516080880152608088015160a088015260a088015160c088015260c088015160e0880152809550505050505092915050565b60006020828403121561386757600080fd5b5051919050565b808201808211156107cc576107cc613766565b6000825160005b818110156138a25760208186018101518583015201613888565b506000920191825250919050565b600080858511156138c057600080fd5b838611156138cd57600080fd5b5050820193919092039150565b6001600160e01b031981358181169160048510156139025780818660040360031b1b83161692505b505092915050565b60208152816020820152818360408301376000818301604090810191909152601f909201601f19160101919050565b60006020828403121561394b57600080fd5b81516107f981612fe0565b634e487b7160e01b600052602160045260246000fdfea2646970667358221220c1022c54fd982d1733c6eb55ddef68c53d39821d8b02323d7e1440e81d8c159864736f6c63430008170033","linkReferences":{}},"methodIdentifiers":{"FEE_RECIPIENT()":"ebd09054","_decodePurchaseTokens(bytes)":"19eee913","_decodeSubmitPropertyAnalysis(bytes)":"30eb237f","batchUpdateDestinationWhitelist(address[],bool[])":"d16f3a20","delegate()":"c89e4361","entryPoint()":"b0d691fe","execute(address,uint256,bytes)":"b61d27f6","execute(address,uint256,bytes,uint256,uint256)":"ef7b1f62","executeBatch(address[],bytes[])":"18dfb3c7","executeBatch(address[],bytes[],uint256,uint256)":"ad5c29f0","executeBatch(address[],uint256[],bytes[])":"47e1da2a","getFeeParameters()":"4722b4a5","getNonce()":"d087d288","hardFeeCap()":"4dcdfba5","initialize(address)":"c4d66de8","initialize(address,address,uint256,uint256,uint256,uint256)":"86489ba9","initializeWithConfig((address,address,uint256,uint256,uint256,uint256,address[],bool[]))":"1b28ca53","isDestinationWhitelisted(address)":"f0299dd8","isInitialized()":"392e53cd","isValidSignature(bytes32,bytes)":"1626ba7e","isWhitelistedDestination(address)":"e39fbbc9","maxExchangeRate()":"83728d2b","maxFeePerTransaction()":"3f1b112a","minExchangeRate()":"d091ed47","minRequiredFee()":"0c36b26f","onERC1155BatchReceived(address,address,uint256[],uint256[],bytes)":"bc197c81","onERC1155Received(address,address,uint256,uint256,bytes)":"f23a6e61","onERC721Received(address,address,uint256,bytes)":"150b7a02","owner()":"8da5cb5b","supportsInterface(bytes4)":"01ffc9a7","updateDestinationWhitelist(address,bool)":"5cc3b645","updateHardFeeCap(uint256)":"bdaf0434","updateMaxExchangeRate(uint256)":"d05144fc","updateMaxFee(uint256)":"550dddeb","updateMinExchangeRate(uint256)":"962354ee","updateMinFee(uint256)":"4867ef4f","validateUserOp((address,uint256,bytes,bytes,bytes32,uint256,bytes32,bytes,bytes),bytes32,uint256)":"19822f7c"},"id":67}